{
  "_format": "hh-sol-artifact-1",
  "contractName": "IcebreakerContract",
  "sourceName": "contracts/IcebreakerContract.sol",
  "abi": [
    {
      "inputs": [
        {
          "internalType": "address",
          "name": "admin",
          "type": "address"
        },
        {
          "internalType": "address",
          "name": "_pointsContract",
          "type": "address"
        },
        {
          "internalType": "address",
          "name": "_badgesContract",
          "type": "address"
        }
      ],
      "stateMutability": "nonpayable",
      "type": "constructor"
    },
    {
      "inputs": [
        {
          "internalType": "address",
          "name": "owner",
          "type": "address"
        }
      ],
      "name": "OwnableInvalidOwner",
      "type": "error"
    },
    {
      "inputs": [
        {
          "internalType": "address",
          "name": "account",
          "type": "address"
        }
      ],
      "name": "OwnableUnauthorizedAccount",
      "type": "error"
    },
    {
      "anonymous": false,
      "inputs": [
        {
          "indexed": true,
          "internalType": "uint256",
          "name": "categoryId",
          "type": "uint256"
        },
        {
          "indexed": false,
          "internalType": "string",
          "name": "name",
          "type": "string"
        },
        {
          "indexed": false,
          "internalType": "string",
          "name": "description",
          "type": "string"
        }
      ],
      "name": "CategoryCreated",
      "type": "event"
    },
    {
      "anonymous": false,
      "inputs": [
        {
          "indexed": true,
          "internalType": "address",
          "name": "previousOwner",
          "type": "address"
        },
        {
          "indexed": true,
          "internalType": "address",
          "name": "newOwner",
          "type": "address"
        }
      ],
      "name": "OwnershipTransferred",
      "type": "event"
    },
    {
      "anonymous": false,
      "inputs": [
        {
          "indexed": false,
          "internalType": "uint256",
          "name": "newPointsPerPrompt",
          "type": "uint256"
        },
        {
          "indexed": false,
          "internalType": "uint256",
          "name": "newPointsPerResponse",
          "type": "uint256"
        },
        {
          "indexed": false,
          "internalType": "uint256",
          "name": "newPointsPerVote",
          "type": "uint256"
        }
      ],
      "name": "PointsUpdated",
      "type": "event"
    },
    {
      "anonymous": false,
      "inputs": [
        {
          "indexed": true,
          "internalType": "address",
          "name": "creator",
          "type": "address"
        },
        {
          "indexed": true,
          "internalType": "uint256",
          "name": "pollId",
          "type": "uint256"
        },
        {
          "indexed": false,
          "internalType": "string",
          "name": "question",
          "type": "string"
        },
        {
          "indexed": false,
          "internalType": "string[]",
          "name": "options",
          "type": "string[]"
        }
      ],
      "name": "PollCreated",
      "type": "event"
    },
    {
      "anonymous": false,
      "inputs": [
        {
          "indexed": true,
          "internalType": "address",
          "name": "voter",
          "type": "address"
        },
        {
          "indexed": true,
          "internalType": "uint256",
          "name": "pollId",
          "type": "uint256"
        },
        {
          "indexed": false,
          "internalType": "uint256",
          "name": "optionIndex",
          "type": "uint256"
        }
      ],
      "name": "PollVoted",
      "type": "event"
    },
    {
      "anonymous": false,
      "inputs": [
        {
          "indexed": true,
          "internalType": "address",
          "name": "creator",
          "type": "address"
        },
        {
          "indexed": true,
          "internalType": "uint256",
          "name": "promptId",
          "type": "uint256"
        },
        {
          "indexed": false,
          "internalType": "string",
          "name": "text",
          "type": "string"
        },
        {
          "indexed": false,
          "internalType": "string",
          "name": "category",
          "type": "string"
        }
      ],
      "name": "PromptCreated",
      "type": "event"
    },
    {
      "anonymous": false,
      "inputs": [
        {
          "indexed": true,
          "internalType": "address",
          "name": "user",
          "type": "address"
        },
        {
          "indexed": true,
          "internalType": "uint256",
          "name": "promptId",
          "type": "uint256"
        },
        {
          "indexed": false,
          "internalType": "string",
          "name": "responseText",
          "type": "string"
        },
        {
          "indexed": false,
          "internalType": "string",
          "name": "responseImageIpfsHash",
          "type": "string"
        }
      ],
      "name": "ResponseSubmitted",
      "type": "event"
    },
    {
      "inputs": [],
      "name": "badgesContract",
      "outputs": [
        {
          "internalType": "contract VibeCasterBadges",
          "name": "",
          "type": "address"
        }
      ],
      "stateMutability": "view",
      "type": "function"
    },
    {
      "inputs": [
        {
          "internalType": "uint256",
          "name": "",
          "type": "uint256"
        }
      ],
      "name": "categories",
      "outputs": [
        {
          "internalType": "string",
          "name": "name",
          "type": "string"
        },
        {
          "internalType": "string",
          "name": "description",
          "type": "string"
        },
        {
          "internalType": "bool",
          "name": "exists",
          "type": "bool"
        }
      ],
      "stateMutability": "view",
      "type": "function"
    },
    {
      "inputs": [
        {
          "internalType": "string",
          "name": "category",
          "type": "string"
        }
      ],
      "name": "categoryExists",
      "outputs": [
        {
          "internalType": "bool",
          "name": "",
          "type": "bool"
        }
      ],
      "stateMutability": "view",
      "type": "function"
    },
    {
      "inputs": [
        {
          "internalType": "string",
          "name": "name",
          "type": "string"
        },
        {
          "internalType": "string",
          "name": "description",
          "type": "string"
        }
      ],
      "name": "createCategory",
      "outputs": [
        {
          "internalType": "uint256",
          "name": "",
          "type": "uint256"
        }
      ],
      "stateMutability": "nonpayable",
      "type": "function"
    },
    {
      "inputs": [
        {
          "internalType": "string",
          "name": "question",
          "type": "string"
        },
        {
          "internalType": "string[]",
          "name": "options",
          "type": "string[]"
        }
      ],
      "name": "createPoll",
      "outputs": [
        {
          "internalType": "uint256",
          "name": "",
          "type": "uint256"
        }
      ],
      "stateMutability": "nonpayable",
      "type": "function"
    },
    {
      "inputs": [
        {
          "internalType": "string",
          "name": "text",
          "type": "string"
        },
        {
          "internalType": "string",
          "name": "category",
          "type": "string"
        }
      ],
      "name": "createPrompt",
      "outputs": [
        {
          "internalType": "uint256",
          "name": "",
          "type": "uint256"
        }
      ],
      "stateMutability": "nonpayable",
      "type": "function"
    },
    {
      "inputs": [],
      "name": "getCategories",
      "outputs": [
        {
          "components": [
            {
              "internalType": "string",
              "name": "name",
              "type": "string"
            },
            {
              "internalType": "string",
              "name": "description",
              "type": "string"
            },
            {
              "internalType": "bool",
              "name": "exists",
              "type": "bool"
            }
          ],
          "internalType": "struct IcebreakerContract.Category[]",
          "name": "",
          "type": "tuple[]"
        }
      ],
      "stateMutability": "view",
      "type": "function"
    },
    {
      "inputs": [
        {
          "internalType": "uint256",
          "name": "categoryId",
          "type": "uint256"
        }
      ],
      "name": "getCategory",
      "outputs": [
        {
          "components": [
            {
              "internalType": "string",
              "name": "name",
              "type": "string"
            },
            {
              "internalType": "string",
              "name": "description",
              "type": "string"
            },
            {
              "internalType": "bool",
              "name": "exists",
              "type": "bool"
            }
          ],
          "internalType": "struct IcebreakerContract.Category",
          "name": "",
          "type": "tuple"
        }
      ],
      "stateMutability": "view",
      "type": "function"
    },
    {
      "inputs": [
        {
          "internalType": "uint256",
          "name": "pollId",
          "type": "uint256"
        }
      ],
      "name": "getPoll",
      "outputs": [
        {
          "internalType": "address",
          "name": "creator",
          "type": "address"
        },
        {
          "internalType": "string",
          "name": "question",
          "type": "string"
        },
        {
          "internalType": "string[]",
          "name": "options",
          "type": "string[]"
        },
        {
          "internalType": "uint256[]",
          "name": "voteCounts",
          "type": "uint256[]"
        },
        {
          "internalType": "uint256",
          "name": "totalVotes",
          "type": "uint256"
        }
      ],
      "stateMutability": "view",
      "type": "function"
    },
    {
      "inputs": [
        {
          "internalType": "uint256",
          "name": "promptId",
          "type": "uint256"
        }
      ],
      "name": "getPrompt",
      "outputs": [
        {
          "components": [
            {
              "internalType": "address",
              "name": "creator",
              "type": "address"
            },
            {
              "internalType": "string",
              "name": "text",
              "type": "string"
            },
            {
              "internalType": "string",
              "name": "category",
              "type": "string"
            },
            {
              "internalType": "uint256",
              "name": "timestamp",
              "type": "uint256"
            },
            {
              "internalType": "bool",
              "name": "exists",
              "type": "bool"
            }
          ],
          "internalType": "struct IcebreakerContract.Prompt",
          "name": "",
          "type": "tuple"
        }
      ],
      "stateMutability": "view",
      "type": "function"
    },
    {
      "inputs": [],
      "name": "getRandomPrompt",
      "outputs": [
        {
          "internalType": "uint256",
          "name": "",
          "type": "uint256"
        }
      ],
      "stateMutability": "view",
      "type": "function"
    },
    {
      "inputs": [
        {
          "internalType": "uint256",
          "name": "promptId",
          "type": "uint256"
        }
      ],
      "name": "getResponses",
      "outputs": [
        {
          "components": [
            {
              "internalType": "address",
              "name": "responder",
              "type": "address"
            },
            {
              "internalType": "string",
              "name": "responseText",
              "type": "string"
            },
            {
              "internalType": "string",
              "name": "responseImageIpfsHash",
              "type": "string"
            },
            {
              "internalType": "uint256",
              "name": "timestamp",
              "type": "uint256"
            },
            {
              "internalType": "bool",
              "name": "exists",
              "type": "bool"
            }
          ],
          "internalType": "struct IcebreakerContract.Response[]",
          "name": "",
          "type": "tuple[]"
        }
      ],
      "stateMutability": "view",
      "type": "function"
    },
    {
      "inputs": [
        {
          "internalType": "address",
          "name": "user",
          "type": "address"
        }
      ],
      "name": "getUserPromptCount",
      "outputs": [
        {
          "internalType": "uint256",
          "name": "",
          "type": "uint256"
        }
      ],
      "stateMutability": "view",
      "type": "function"
    },
    {
      "inputs": [
        {
          "internalType": "address",
          "name": "user",
          "type": "address"
        }
      ],
      "name": "getUserPrompts",
      "outputs": [
        {
          "internalType": "uint256[]",
          "name": "",
          "type": "uint256[]"
        }
      ],
      "stateMutability": "view",
      "type": "function"
    },
    {
      "inputs": [
        {
          "internalType": "address",
          "name": "user",
          "type": "address"
        }
      ],
      "name": "getUserResponseCount",
      "outputs": [
        {
          "internalType": "uint256",
          "name": "",
          "type": "uint256"
        }
      ],
      "stateMutability": "view",
      "type": "function"
    },
    {
      "inputs": [
        {
          "internalType": "address",
          "name": "user",
          "type": "address"
        }
      ],
      "name": "getUserResponses",
      "outputs": [
        {
          "internalType": "uint256[]",
          "name": "",
          "type": "uint256[]"
        }
      ],
      "stateMutability": "view",
      "type": "function"
    },
    {
      "inputs": [
        {
          "internalType": "address",
          "name": "user",
          "type": "address"
        },
        {
          "internalType": "uint256",
          "name": "pollId",
          "type": "uint256"
        }
      ],
      "name": "getUserVote",
      "outputs": [
        {
          "internalType": "uint256",
          "name": "",
          "type": "uint256"
        }
      ],
      "stateMutability": "view",
      "type": "function"
    },
    {
      "inputs": [
        {
          "internalType": "address",
          "name": "user",
          "type": "address"
        },
        {
          "internalType": "uint256",
          "name": "pollId",
          "type": "uint256"
        }
      ],
      "name": "hasUserVoted",
      "outputs": [
        {
          "internalType": "bool",
          "name": "",
          "type": "bool"
        }
      ],
      "stateMutability": "view",
      "type": "function"
    },
    {
      "inputs": [],
      "name": "owner",
      "outputs": [
        {
          "internalType": "address",
          "name": "",
          "type": "address"
        }
      ],
      "stateMutability": "view",
      "type": "function"
    },
    {
      "inputs": [],
      "name": "pointsContract",
      "outputs": [
        {
          "internalType": "contract VibeCasterPoints",
          "name": "",
          "type": "address"
        }
      ],
      "stateMutability": "view",
      "type": "function"
    },
    {
      "inputs": [],
      "name": "pointsPerPrompt",
      "outputs": [
        {
          "internalType": "uint256",
          "name": "",
          "type": "uint256"
        }
      ],
      "stateMutability": "view",
      "type": "function"
    },
    {
      "inputs": [],
      "name": "pointsPerResponse",
      "outputs": [
        {
          "internalType": "uint256",
          "name": "",
          "type": "uint256"
        }
      ],
      "stateMutability": "view",
      "type": "function"
    },
    {
      "inputs": [],
      "name": "pointsPerVote",
      "outputs": [
        {
          "internalType": "uint256",
          "name": "",
          "type": "uint256"
        }
      ],
      "stateMutability": "view",
      "type": "function"
    },
    {
      "inputs": [
        {
          "internalType": "uint256",
          "name": "",
          "type": "uint256"
        }
      ],
      "name": "polls",
      "outputs": [
        {
          "internalType": "address",
          "name": "creator",
          "type": "address"
        },
        {
          "internalType": "string",
          "name": "question",
          "type": "string"
        },
        {
          "internalType": "uint256",
          "name": "totalVotes",
          "type": "uint256"
        },
        {
          "internalType": "bool",
          "name": "exists",
          "type": "bool"
        }
      ],
      "stateMutability": "view",
      "type": "function"
    },
    {
      "inputs": [
        {
          "internalType": "uint256",
          "name": "",
          "type": "uint256"
        },
        {
          "internalType": "uint256",
          "name": "",
          "type": "uint256"
        }
      ],
      "name": "promptResponses",
      "outputs": [
        {
          "internalType": "address",
          "name": "responder",
          "type": "address"
        },
        {
          "internalType": "string",
          "name": "responseText",
          "type": "string"
        },
        {
          "internalType": "string",
          "name": "responseImageIpfsHash",
          "type": "string"
        },
        {
          "internalType": "uint256",
          "name": "timestamp",
          "type": "uint256"
        },
        {
          "internalType": "bool",
          "name": "exists",
          "type": "bool"
        }
      ],
      "stateMutability": "view",
      "type": "function"
    },
    {
      "inputs": [
        {
          "internalType": "uint256",
          "name": "",
          "type": "uint256"
        }
      ],
      "name": "prompts",
      "outputs": [
        {
          "internalType": "address",
          "name": "creator",
          "type": "address"
        },
        {
          "internalType": "string",
          "name": "text",
          "type": "string"
        },
        {
          "internalType": "string",
          "name": "category",
          "type": "string"
        },
        {
          "internalType": "uint256",
          "name": "timestamp",
          "type": "uint256"
        },
        {
          "internalType": "bool",
          "name": "exists",
          "type": "bool"
        }
      ],
      "stateMutability": "view",
      "type": "function"
    },
    {
      "inputs": [],
      "name": "renounceOwnership",
      "outputs": [],
      "stateMutability": "nonpayable",
      "type": "function"
    },
    {
      "inputs": [
        {
          "internalType": "uint256",
          "name": "promptId",
          "type": "uint256"
        },
        {
          "internalType": "string",
          "name": "responseText",
          "type": "string"
        },
        {
          "internalType": "string",
          "name": "responseImageIpfsHash",
          "type": "string"
        }
      ],
      "name": "submitResponse",
      "outputs": [
        {
          "internalType": "uint256",
          "name": "",
          "type": "uint256"
        }
      ],
      "stateMutability": "nonpayable",
      "type": "function"
    },
    {
      "inputs": [],
      "name": "totalCategories",
      "outputs": [
        {
          "internalType": "uint256",
          "name": "",
          "type": "uint256"
        }
      ],
      "stateMutability": "view",
      "type": "function"
    },
    {
      "inputs": [],
      "name": "totalPolls",
      "outputs": [
        {
          "internalType": "uint256",
          "name": "",
          "type": "uint256"
        }
      ],
      "stateMutability": "view",
      "type": "function"
    },
    {
      "inputs": [],
      "name": "totalPrompts",
      "outputs": [
        {
          "internalType": "uint256",
          "name": "",
          "type": "uint256"
        }
      ],
      "stateMutability": "view",
      "type": "function"
    },
    {
      "inputs": [
        {
          "internalType": "address",
          "name": "newOwner",
          "type": "address"
        }
      ],
      "name": "transferOwnership",
      "outputs": [],
      "stateMutability": "nonpayable",
      "type": "function"
    },
    {
      "inputs": [
        {
          "internalType": "uint256",
          "name": "newPointsPerPrompt",
          "type": "uint256"
        },
        {
          "internalType": "uint256",
          "name": "newPointsPerResponse",
          "type": "uint256"
        },
        {
          "internalType": "uint256",
          "name": "newPointsPerVote",
          "type": "uint256"
        }
      ],
      "name": "updatePoints",
      "outputs": [],
      "stateMutability": "nonpayable",
      "type": "function"
    },
    {
      "inputs": [
        {
          "internalType": "address",
          "name": "",
          "type": "address"
        }
      ],
      "name": "userPromptCount",
      "outputs": [
        {
          "internalType": "uint256",
          "name": "",
          "type": "uint256"
        }
      ],
      "stateMutability": "view",
      "type": "function"
    },
    {
      "inputs": [
        {
          "internalType": "address",
          "name": "",
          "type": "address"
        },
        {
          "internalType": "uint256",
          "name": "",
          "type": "uint256"
        }
      ],
      "name": "userPrompts",
      "outputs": [
        {
          "internalType": "uint256",
          "name": "",
          "type": "uint256"
        }
      ],
      "stateMutability": "view",
      "type": "function"
    },
    {
      "inputs": [
        {
          "internalType": "address",
          "name": "",
          "type": "address"
        }
      ],
      "name": "userResponseCount",
      "outputs": [
        {
          "internalType": "uint256",
          "name": "",
          "type": "uint256"
        }
      ],
      "stateMutability": "view",
      "type": "function"
    },
    {
      "inputs": [
        {
          "internalType": "address",
          "name": "",
          "type": "address"
        },
        {
          "internalType": "uint256",
          "name": "",
          "type": "uint256"
        }
      ],
      "name": "userResponses",
      "outputs": [
        {
          "internalType": "uint256",
          "name": "",
          "type": "uint256"
        }
      ],
      "stateMutability": "view",
      "type": "function"
    },
    {
      "inputs": [
        {
          "internalType": "uint256",
          "name": "pollId",
          "type": "uint256"
        },
        {
          "internalType": "uint256",
          "name": "optionIndex",
          "type": "uint256"
        }
      ],
      "name": "votePoll",
      "outputs": [],
      "stateMutability": "nonpayable",
      "type": "function"
    }
  ],
  "bytecode": "0x6080604052600f600e556005600f55600160105534801561001f57600080fd5b5060405161513738038061513783398181016040528101906100419190610275565b82600073ffffffffffffffffffffffffffffffffffffffff168173ffffffffffffffffffffffffffffffffffffffff16036100b45760006040517f1e4fbdf70000000000000000000000000000000000000000000000000000000081526004016100ab91906102d7565b60405180910390fd5b6100c38161014e60201b60201c565b5081600160006101000a81548173ffffffffffffffffffffffffffffffffffffffff021916908373ffffffffffffffffffffffffffffffffffffffff16021790555080600260006101000a81548173ffffffffffffffffffffffffffffffffffffffff021916908373ffffffffffffffffffffffffffffffffffffffff1602179055505050506102f2565b60008060009054906101000a900473ffffffffffffffffffffffffffffffffffffffff169050816000806101000a81548173ffffffffffffffffffffffffffffffffffffffff021916908373ffffffffffffffffffffffffffffffffffffffff1602179055508173ffffffffffffffffffffffffffffffffffffffff168173ffffffffffffffffffffffffffffffffffffffff167f8be0079c531659141344cd1fd0a4f28419497f9722a3daafe3b4186f6b6457e060405160405180910390a35050565b600080fd5b600073ffffffffffffffffffffffffffffffffffffffff82169050919050565b600061024282610217565b9050919050565b61025281610237565b811461025d57600080fd5b50565b60008151905061026f81610249565b92915050565b60008060006060848603121561028e5761028d610212565b5b600061029c86828701610260565b93505060206102ad86828701610260565b92505060406102be86828701610260565b9150509250925092565b6102d181610237565b82525050565b60006020820190506102ec60008301846102c8565b92915050565b614e36806103016000396000f3fe608060405234801561001057600080fd5b50600436106102325760003560e01c8063a01bc01f11610130578063c6cdbe5e116100b8578063dcb0578d1161007c578063dcb0578d1461078a578063e9cdaed6146107a6578063f2fde38b146107c4578063f3052d26146107e0578063f6d595aa1461081057610232565b8063c6cdbe5e146106a6578063cf73cdd2146106d8578063d46f96ed14610708578063d4cf9af714610738578063da3f8ade1461076c57610232565b8063b224b4e9116100ff578063b224b4e9146105c4578063b595a419146105f4578063b9456fe214610628578063bdf75cb614610658578063bfb6d2d11461068857610232565b8063a01bc01f14610513578063a2eeeb2f14610543578063ac2f007414610561578063afe7341e1461059457610232565b806339275b0a116101be57806372e89f701161018257806372e89f701461046d5780637e3d71c3146104895780638106da60146104b95780638da5cb5b146104d757806397d3b9ec146104f557610232565b806339275b0a146103c7578063490a07b1146103e55780634db0412c14610415578063715018a61461043357806371ee2ce11461043d57610232565b8063197e9f5e11610205578063197e9f5e146102f75780631a8cbcaa146103275780632b4f8a1f1461035b5780632be94e4a146103795780633724e8491461039757610232565b806308a305391461023757806308c4b60f146102675780630e300b261461029757806314c9830b146102c7575b600080fd5b610251600480360381019061024c919061328d565b610840565b60405161025e91906132d3565b60405180910390f35b610281600480360381019061027c9190613434565b610889565b60405161028e9190613498565b60405180910390f35b6102b160048036038101906102ac919061328d565b610927565b6040516102be91906132d3565b60405180910390f35b6102e160048036038101906102dc91906134b3565b61093f565b6040516102ee91906132d3565b60405180910390f35b610311600480360381019061030c919061328d565b610d4b565b60405161031e91906135e9565b60405180910390f35b610341600480360381019061033c9190613637565b610de2565b6040516103529594939291906137fe565b60405180910390f35b610363611060565b60405161037091906138c5565b60405180910390f35b610381611086565b60405161038e91906132d3565b60405180910390f35b6103b160048036038101906103ac919061328d565b61108c565b6040516103be91906132d3565b60405180910390f35b6103cf6110d5565b6040516103dc91906132d3565b60405180910390f35b6103ff60048036038101906103fa91906138e0565b6110df565b60405161040c91906132d3565b60405180910390f35b61041d611110565b60405161042a9190613a48565b60405180910390f35b61043b611348565b005b61045760048036038101906104529190613637565b61135c565b6040516104649190613bb8565b60405180910390f35b61048760048036038101906104829190613bda565b6115d0565b005b6104a3600480360381019061049e9190613d13565b61162d565b6040516104b091906132d3565b60405180910390f35b6104c1611961565b6040516104ce91906132d3565b60405180910390f35b6104df61196b565b6040516104ec9190613d8b565b60405180910390f35b6104fd611994565b60405161050a9190613dc7565b60405180910390f35b61052d600480360381019061052891906138e0565b6119ba565b60405161053a91906132d3565b60405180910390f35b61054b611ab9565b60405161055891906132d3565b60405180910390f35b61057b60048036038101906105769190613637565b611ac3565b60405161058b9493929190613de2565b60405180910390f35b6105ae60048036038101906105a9919061328d565b611ba8565b6040516105bb91906132d3565b60405180910390f35b6105de60048036038101906105d991906134b3565b611bc0565b6040516105eb91906132d3565b60405180910390f35b61060e60048036038101906106099190613e2e565b611d35565b60405161061f959493929190613e6e565b60405180910390f35b610642600480360381019061063d91906138e0565b611ec5565b60405161064f91906132d3565b60405180910390f35b610672600480360381019061066d919061328d565b611ef6565b60405161067f91906135e9565b60405180910390f35b610690611f8d565b60405161069d91906132d3565b60405180910390f35b6106c060048036038101906106bb9190613637565b611fda565b6040516106cf93929190613ecf565b60405180910390f35b6106f260048036038101906106ed9190613637565b612121565b6040516106ff9190613f91565b60405180910390f35b610722600480360381019061071d91906138e0565b612350565b60405161072f9190613498565b60405180910390f35b610752600480360381019061074d9190613637565b6123b0565b604051610763959493929190613e6e565b60405180910390f35b610774612523565b60405161078191906132d3565b60405180910390f35b6107a4600480360381019061079f9190613e2e565b612529565b005b6107ae6128bb565b6040516107bb91906132d3565b60405180910390f35b6107de60048036038101906107d9919061328d565b6128c1565b005b6107fa60048036038101906107f59190613637565b612947565b604051610807919061400a565b60405180910390f35b61082a6004803603810190610825919061402c565b612b16565b60405161083791906132d3565b60405180910390f35b6000600a60008373ffffffffffffffffffffffffffffffffffffffff1673ffffffffffffffffffffffffffffffffffffffff168152602001908152602001600020549050919050565b600080600190505b600b54811161091c576003600082815260200190815260200160002060020160009054906101000a900460ff1680156108fa57508280519060200120600360008381526020019081526020016000206000016040516108f091906141ba565b6040518091039020145b15610909576001915050610922565b808061091490614200565b915050610891565b50600090505b919050565b60096020528060005260406000206000915090505481565b600080835111610984576040517f08c379a000000000000000000000000000000000000000000000000000000000815260040161097b90614294565b60405180910390fd5b60008251116109c8576040517f08c379a00000000000000000000000000000000000000000000000000000000081526004016109bf90614300565b60405180910390fd5b6109d182610889565b610a10576040517f08c379a0000000000000000000000000000000000000000000000000000000008152600401610a079061436c565b60405180910390fd5b600c6000815480929190610a2390614200565b91905055506000600c5490506040518060a001604052803373ffffffffffffffffffffffffffffffffffffffff168152602001858152602001848152602001428152602001600115158152506004600083815260200190815260200160002060008201518160000160006101000a81548173ffffffffffffffffffffffffffffffffffffffff021916908373ffffffffffffffffffffffffffffffffffffffff1602179055506020820151816001019081610ade919061452e565b506040820151816002019081610af4919061452e565b506060820151816003015560808201518160040160006101000a81548160ff021916908315150217905550905050600760003373ffffffffffffffffffffffffffffffffffffffff1673ffffffffffffffffffffffffffffffffffffffff168152602001908152602001600020819080600181540180825580915050600190039060005260206000200160009091909190915055600960003373ffffffffffffffffffffffffffffffffffffffff1673ffffffffffffffffffffffffffffffffffffffff1681526020019081526020016000206000815480929190610bd890614200565b9190505550600160009054906101000a900473ffffffffffffffffffffffffffffffffffffffff1673ffffffffffffffffffffffffffffffffffffffff1663f0c47cab33600e546040518363ffffffff1660e01b8152600401610c3c92919061464c565b600060405180830381600087803b158015610c5657600080fd5b505af1158015610c6a573d6000803e3d6000fd5b50505050600160009054906101000a900473ffffffffffffffffffffffffffffffffffffffff1673ffffffffffffffffffffffffffffffffffffffff16634756f60c6040518163ffffffff1660e01b8152600401600060405180830381600087803b158015610cd857600080fd5b505af1158015610cec573d6000803e3d6000fd5b50505050803373ffffffffffffffffffffffffffffffffffffffff167fb936f0e434635cbbf74ac7b0d6ed27950523a1bda3ef7d0bb29e0323302e1da68686604051610d39929190614688565b60405180910390a38091505092915050565b6060600760008373ffffffffffffffffffffffffffffffffffffffff1673ffffffffffffffffffffffffffffffffffffffff168152602001908152602001600020805480602002602001604051908101604052809291908181526020018280548015610dd657602002820191906000526020600020905b815481526020019060010190808311610dc2575b50505050509050919050565b6000606080606060006006600087815260200190815260200160002060060160009054906101000a900460ff16610e4e576040517f08c379a0000000000000000000000000000000000000000000000000000000008152600401610e459061470b565b60405180910390fd5b60006006600088815260200190815260200160002090508060000160009054906101000a900473ffffffffffffffffffffffffffffffffffffffff168160010182600201836004018460050154838054610ea7906140e6565b80601f0160208091040260200160405190810160405280929190818152602001828054610ed3906140e6565b8015610f205780601f10610ef557610100808354040283529160200191610f20565b820191906000526020600020905b815481529060010190602001808311610f0357829003601f168201915b5050505050935082805480602002602001604051908101604052809291908181526020016000905b82821015610ff4578382906000526020600020018054610f67906140e6565b80601f0160208091040260200160405190810160405280929190818152602001828054610f93906140e6565b8015610fe05780601f10610fb557610100808354040283529160200191610fe0565b820191906000526020600020905b815481529060010190602001808311610fc357829003601f168201915b505050505081526020019060010190610f48565b5050505092508180548060200260200160405190810160405280929190818152602001828054801561104557602002820191906000526020600020905b815481526020019060010190808311611031575b50505050509150955095509550955095505091939590929450565b600160009054906101000a900473ffffffffffffffffffffffffffffffffffffffff1681565b60105481565b6000600960008373ffffffffffffffffffffffffffffffffffffffff1673ffffffffffffffffffffffffffffffffffffffff168152602001908152602001600020549050919050565b6000600b54905090565b600760205281600052604060002081815481106110fb57600080fd5b90600052602060002001600091509150505481565b60606000600b5467ffffffffffffffff8111156111305761112f613309565b5b60405190808252806020026020018201604052801561116957816020015b61115661308a565b81526020019060019003908161114e5790505b5090506000600190505b600b548111611340576003600082815260200190815260200160002060020160009054906101000a900460ff161561132d57600360008281526020019081526020016000206040518060600160405290816000820180546111d3906140e6565b80601f01602080910402602001604051908101604052809291908181526020018280546111ff906140e6565b801561124c5780601f106112215761010080835404028352916020019161124c565b820191906000526020600020905b81548152906001019060200180831161122f57829003601f168201915b50505050508152602001600182018054611265906140e6565b80601f0160208091040260200160405190810160405280929190818152602001828054611291906140e6565b80156112de5780601f106112b3576101008083540402835291602001916112de565b820191906000526020600020905b8154815290600101906020018083116112c157829003601f168201915b505050505081526020016002820160009054906101000a900460ff16151515158152505082600183611310919061472b565b815181106113215761132061475f565b5b60200260200101819052505b808061133890614200565b915050611173565b508091505090565b611350612f37565b61135a6000612fbe565b565b60606004600083815260200190815260200160002060040160009054906101000a900460ff166113c1576040517f08c379a00000000000000000000000000000000000000000000000000000000081526004016113b8906147da565b60405180910390fd5b60056000838152602001908152602001600020805480602002602001604051908101604052809291908181526020016000905b828210156115c557838290600052602060002090600502016040518060a00160405290816000820160009054906101000a900473ffffffffffffffffffffffffffffffffffffffff1673ffffffffffffffffffffffffffffffffffffffff1673ffffffffffffffffffffffffffffffffffffffff16815260200160018201805461147d906140e6565b80601f01602080910402602001604051908101604052809291908181526020018280546114a9906140e6565b80156114f65780601f106114cb576101008083540402835291602001916114f6565b820191906000526020600020905b8154815290600101906020018083116114d957829003601f168201915b5050505050815260200160028201805461150f906140e6565b80601f016020809104026020016040519081016040528092919081815260200182805461153b906140e6565b80156115885780601f1061155d57610100808354040283529160200191611588565b820191906000526020600020905b81548152906001019060200180831161156b57829003601f168201915b50505050508152602001600382015481526020016004820160009054906101000a900460ff161515151581525050815260200190600101906113f4565b505050509050919050565b6115d8612f37565b82600e8190555081600f81905550806010819055507f96afec48c2f05b52e11e40b17e255ef5ef2087e41dddc5a14503782c71af63bf838383604051611620939291906147fa565b60405180910390a1505050565b600080835111611672576040517f08c379a00000000000000000000000000000000000000000000000000000000081526004016116699061487d565b60405180910390fd5b60028251101580156116865750600a825111155b6116c5576040517f08c379a00000000000000000000000000000000000000000000000000000000081526004016116bc906148e9565b60405180910390fd5b600d60008154809291906116d890614200565b91905055506000600d5490506000600660008381526020019081526020016000209050338160000160006101000a81548173ffffffffffffffffffffffffffffffffffffffff021916908373ffffffffffffffffffffffffffffffffffffffff1602179055508481600101908161174f919061452e565b50838160020190805190602001906117689291906130ad565b50835167ffffffffffffffff81111561178457611783613309565b5b6040519080825280602002602001820160405280156117b25781602001602082028036833780820191505090505b508160040190805190602001906117ca929190613106565b506000816005018190555060018160060160006101000a81548160ff021916908315150217905550600160009054906101000a900473ffffffffffffffffffffffffffffffffffffffff1673ffffffffffffffffffffffffffffffffffffffff1663f0c47cab33600e546040518363ffffffff1660e01b8152600401611851929190614955565b600060405180830381600087803b15801561186b57600080fd5b505af115801561187f573d6000803e3d6000fd5b50505050600160009054906101000a900473ffffffffffffffffffffffffffffffffffffffff1673ffffffffffffffffffffffffffffffffffffffff16634756f60c6040518163ffffffff1660e01b8152600401600060405180830381600087803b1580156118ed57600080fd5b505af1158015611901573d6000803e3d6000fd5b50505050813373ffffffffffffffffffffffffffffffffffffffff167f58c8a1447c9b19ba373f331a7dadab0d65b13cd1a355b263aebc52b714f6db27878760405161194e929190614991565b60405180910390a3819250505092915050565b6000600c54905090565b60008060009054906101000a900473ffffffffffffffffffffffffffffffffffffffff16905090565b600260009054906101000a900473ffffffffffffffffffffffffffffffffffffffff1681565b6000806006600084815260200190815260200160002060030160008573ffffffffffffffffffffffffffffffffffffffff1673ffffffffffffffffffffffffffffffffffffffff1681526020019081526020016000205411611a51576040517f08c379a0000000000000000000000000000000000000000000000000000000008152600401611a4890614a14565b60405180910390fd5b60016006600084815260200190815260200160002060030160008573ffffffffffffffffffffffffffffffffffffffff1673ffffffffffffffffffffffffffffffffffffffff16815260200190815260200160002054611ab1919061472b565b905092915050565b6000600d54905090565b60066020528060005260406000206000915090508060000160009054906101000a900473ffffffffffffffffffffffffffffffffffffffff1690806001018054611b0c906140e6565b80601f0160208091040260200160405190810160405280929190818152602001828054611b38906140e6565b8015611b855780601f10611b5a57610100808354040283529160200191611b85565b820191906000526020600020905b815481529060010190602001808311611b6857829003601f168201915b5050505050908060050154908060060160009054906101000a900460ff16905084565b600a6020528060005260406000206000915090505481565b6000611bca612f37565b6000835111611c0e576040517f08c379a0000000000000000000000000000000000000000000000000000000008152600401611c0590614a80565b60405180910390fd5b6000825111611c52576040517f08c379a0000000000000000000000000000000000000000000000000000000008152600401611c4990614aec565b60405180910390fd5b600b6000815480929190611c6590614200565b91905055506000600b549050604051806060016040528085815260200184815260200160011515815250600360008381526020019081526020016000206000820151816000019081611cb7919061452e565b506020820151816001019081611ccd919061452e565b5060408201518160020160006101000a81548160ff021916908315150217905550905050807f22c31dca291d7f417aeb56deed394f40bc020be39668f3b25e7c0414c21526df8585604051611d23929190614688565b60405180910390a28091505092915050565b60056020528160005260406000208181548110611d5157600080fd5b9060005260206000209060050201600091509150508060000160009054906101000a900473ffffffffffffffffffffffffffffffffffffffff1690806001018054611d9b906140e6565b80601f0160208091040260200160405190810160405280929190818152602001828054611dc7906140e6565b8015611e145780601f10611de957610100808354040283529160200191611e14565b820191906000526020600020905b815481529060010190602001808311611df757829003601f168201915b505050505090806002018054611e29906140e6565b80601f0160208091040260200160405190810160405280929190818152602001828054611e55906140e6565b8015611ea25780601f10611e7757610100808354040283529160200191611ea2565b820191906000526020600020905b815481529060010190602001808311611e8557829003601f168201915b5050505050908060030154908060040160009054906101000a900460ff16905085565b60086020528160005260406000208181548110611ee157600080fd5b90600052602060002001600091509150505481565b6060600860008373ffffffffffffffffffffffffffffffffffffffff1673ffffffffffffffffffffffffffffffffffffffff168152602001908152602001600020805480602002602001604051908101604052809291908181526020018280548015611f8157602002820191906000526020600020905b815481526020019060010190808311611f6d575b50505050509050919050565b600080600c5411611fd3576040517f08c379a0000000000000000000000000000000000000000000000000000000008152600401611fca90614b58565b60405180910390fd5b6001905090565b6003602052806000526040600020600091509050806000018054611ffd906140e6565b80601f0160208091040260200160405190810160405280929190818152602001828054612029906140e6565b80156120765780601f1061204b57610100808354040283529160200191612076565b820191906000526020600020905b81548152906001019060200180831161205957829003601f168201915b50505050509080600101805461208b906140e6565b80601f01602080910402602001604051908101604052809291908181526020018280546120b7906140e6565b80156121045780601f106120d957610100808354040283529160200191612104565b820191906000526020600020905b8154815290600101906020018083116120e757829003601f168201915b5050505050908060020160009054906101000a900460ff16905083565b612129613153565b6004600083815260200190815260200160002060040160009054906101000a900460ff1661218c576040517f08c379a0000000000000000000000000000000000000000000000000000000008152600401612183906147da565b60405180910390fd5b600460008381526020019081526020016000206040518060a00160405290816000820160009054906101000a900473ffffffffffffffffffffffffffffffffffffffff1673ffffffffffffffffffffffffffffffffffffffff1673ffffffffffffffffffffffffffffffffffffffff168152602001600182018054612210906140e6565b80601f016020809104026020016040519081016040528092919081815260200182805461223c906140e6565b80156122895780601f1061225e57610100808354040283529160200191612289565b820191906000526020600020905b81548152906001019060200180831161226c57829003601f168201915b505050505081526020016002820180546122a2906140e6565b80601f01602080910402602001604051908101604052809291908181526020018280546122ce906140e6565b801561231b5780601f106122f05761010080835404028352916020019161231b565b820191906000526020600020905b8154815290600101906020018083116122fe57829003601f168201915b50505050508152602001600382015481526020016004820160009054906101000a900460ff1615151515815250509050919050565b6000806006600084815260200190815260200160002060030160008573ffffffffffffffffffffffffffffffffffffffff1673ffffffffffffffffffffffffffffffffffffffff1681526020019081526020016000205411905092915050565b60046020528060005260406000206000915090508060000160009054906101000a900473ffffffffffffffffffffffffffffffffffffffff16908060010180546123f9906140e6565b80601f0160208091040260200160405190810160405280929190818152602001828054612425906140e6565b80156124725780601f1061244757610100808354040283529160200191612472565b820191906000526020600020905b81548152906001019060200180831161245557829003601f168201915b505050505090806002018054612487906140e6565b80601f01602080910402602001604051908101604052809291908181526020018280546124b3906140e6565b80156125005780601f106124d557610100808354040283529160200191612500565b820191906000526020600020905b8154815290600101906020018083116124e357829003601f168201915b5050505050908060030154908060040160009054906101000a900460ff16905085565b600e5481565b6006600083815260200190815260200160002060060160009054906101000a900460ff1661258c576040517f08c379a00000000000000000000000000000000000000000000000000000000081526004016125839061470b565b60405180910390fd5b600660008381526020019081526020016000206002018054905081106125e7576040517f08c379a00000000000000000000000000000000000000000000000000000000081526004016125de90614bc4565b60405180910390fd5b60006006600084815260200190815260200160002060030160003373ffffffffffffffffffffffffffffffffffffffff1673ffffffffffffffffffffffffffffffffffffffff168152602001908152602001600020541461267d576040517f08c379a000000000000000000000000000000000000000000000000000000000815260040161267490614c30565b60405180910390fd5b60018161268a9190614c50565b6006600084815260200190815260200160002060030160003373ffffffffffffffffffffffffffffffffffffffff1673ffffffffffffffffffffffffffffffffffffffff168152602001908152602001600020819055506006600083815260200190815260200160002060040181815481106127095761270861475f565b5b90600052602060002001600081548092919061272490614200565b919050555060066000838152602001908152602001600020600501600081548092919061275090614200565b9190505550600160009054906101000a900473ffffffffffffffffffffffffffffffffffffffff1673ffffffffffffffffffffffffffffffffffffffff1663f0c47cab336010546040518363ffffffff1660e01b81526004016127b4929190614cd0565b600060405180830381600087803b1580156127ce57600080fd5b505af11580156127e2573d6000803e3d6000fd5b50505050600160009054906101000a900473ffffffffffffffffffffffffffffffffffffffff1673ffffffffffffffffffffffffffffffffffffffff16634756f60c6040518163ffffffff1660e01b8152600401600060405180830381600087803b15801561285057600080fd5b505af1158015612864573d6000803e3d6000fd5b50505050813373ffffffffffffffffffffffffffffffffffffffff167f82a30cb57d1a6b996aab3673f306464dfb52a8b1dbd1bcf9e0c3515269b80ad4836040516128af91906132d3565b60405180910390a35050565b600f5481565b6128c9612f37565b600073ffffffffffffffffffffffffffffffffffffffff168173ffffffffffffffffffffffffffffffffffffffff160361293b5760006040517f1e4fbdf70000000000000000000000000000000000000000000000000000000081526004016129329190613d8b565b60405180910390fd5b61294481612fbe565b50565b61294f61308a565b6003600083815260200190815260200160002060020160009054906101000a900460ff166129b2576040517f08c379a00000000000000000000000000000000000000000000000000000000081526004016129a99061436c565b60405180910390fd5b600360008381526020019081526020016000206040518060600160405290816000820180546129e0906140e6565b80601f0160208091040260200160405190810160405280929190818152602001828054612a0c906140e6565b8015612a595780601f10612a2e57610100808354040283529160200191612a59565b820191906000526020600020905b815481529060010190602001808311612a3c57829003601f168201915b50505050508152602001600182018054612a72906140e6565b80601f0160208091040260200160405190810160405280929190818152602001828054612a9e906140e6565b8015612aeb5780601f10612ac057610100808354040283529160200191612aeb565b820191906000526020600020905b815481529060010190602001808311612ace57829003601f168201915b505050505081526020016002820160009054906101000a900460ff1615151515815250509050919050565b60006004600085815260200190815260200160002060040160009054906101000a900460ff16612b7b576040517f08c379a0000000000000000000000000000000000000000000000000000000008152600401612b72906147da565b60405180910390fd5b600083511180612b8c575060008251115b612bcb576040517f08c379a0000000000000000000000000000000000000000000000000000000008152600401612bc290614d58565b60405180910390fd5b60006040518060a001604052803373ffffffffffffffffffffffffffffffffffffffff1681526020018581526020018481526020014281526020016001151581525090506005600086815260200190815260200160002081908060018154018082558091505060019003906000526020600020906005020160009091909190915060008201518160000160006101000a81548173ffffffffffffffffffffffffffffffffffffffff021916908373ffffffffffffffffffffffffffffffffffffffff1602179055506020820151816001019081612ca8919061452e565b506040820151816002019081612cbe919061452e565b506060820151816003015560808201518160040160006101000a81548160ff0219169083151502179055505050600860003373ffffffffffffffffffffffffffffffffffffffff1673ffffffffffffffffffffffffffffffffffffffff168152602001908152602001600020859080600181540180825580915050600190039060005260206000200160009091909190915055600a60003373ffffffffffffffffffffffffffffffffffffffff1673ffffffffffffffffffffffffffffffffffffffff1681526020019081526020016000206000815480929190612da190614200565b9190505550600160009054906101000a900473ffffffffffffffffffffffffffffffffffffffff1673ffffffffffffffffffffffffffffffffffffffff1663f0c47cab33600f546040518363ffffffff1660e01b8152600401612e05929190614dc4565b600060405180830381600087803b158015612e1f57600080fd5b505af1158015612e33573d6000803e3d6000fd5b50505050600160009054906101000a900473ffffffffffffffffffffffffffffffffffffffff1673ffffffffffffffffffffffffffffffffffffffff16634756f60c6040518163ffffffff1660e01b8152600401600060405180830381600087803b158015612ea157600080fd5b505af1158015612eb5573d6000803e3d6000fd5b50505050843373ffffffffffffffffffffffffffffffffffffffff167fefc9cd03953f49e08f8cf64bb0a416ef8230547876b638aaf8c5e676414c361f8686604051612f02929190614688565b60405180910390a360016005600087815260200190815260200160002080549050612f2d919061472b565b9150509392505050565b612f3f613082565b73ffffffffffffffffffffffffffffffffffffffff16612f5d61196b565b73ffffffffffffffffffffffffffffffffffffffff1614612fbc57612f80613082565b6040517f118cdaa7000000000000000000000000000000000000000000000000000000008152600401612fb39190613d8b565b60405180910390fd5b565b60008060009054906101000a900473ffffffffffffffffffffffffffffffffffffffff169050816000806101000a81548173ffffffffffffffffffffffffffffffffffffffff021916908373ffffffffffffffffffffffffffffffffffffffff1602179055508173ffffffffffffffffffffffffffffffffffffffff168173ffffffffffffffffffffffffffffffffffffffff167f8be0079c531659141344cd1fd0a4f28419497f9722a3daafe3b4186f6b6457e060405160405180910390a35050565b600033905090565b604051806060016040528060608152602001606081526020016000151581525090565b8280548282559060005260206000209081019282156130f5579160200282015b828111156130f45782518290816130e4919061452e565b50916020019190600101906130cd565b5b509050613102919061319a565b5090565b828054828255906000526020600020908101928215613142579160200282015b82811115613141578251825591602001919060010190613126565b5b50905061314f91906131be565b5090565b6040518060a00160405280600073ffffffffffffffffffffffffffffffffffffffff1681526020016060815260200160608152602001600081526020016000151581525090565b5b808211156131ba57600081816131b191906131db565b5060010161319b565b5090565b5b808211156131d75760008160009055506001016131bf565b5090565b5080546131e7906140e6565b6000825580601f106131f95750613218565b601f01602090049060005260206000209081019061321791906131be565b5b50565b6000604051905090565b600080fd5b600080fd5b600073ffffffffffffffffffffffffffffffffffffffff82169050919050565b600061325a8261322f565b9050919050565b61326a8161324f565b811461327557600080fd5b50565b60008135905061328781613261565b92915050565b6000602082840312156132a3576132a2613225565b5b60006132b184828501613278565b91505092915050565b6000819050919050565b6132cd816132ba565b82525050565b60006020820190506132e860008301846132c4565b92915050565b600080fd5b600080fd5b6000601f19601f8301169050919050565b7f4e487b7100000000000000000000000000000000000000000000000000000000600052604160045260246000fd5b613341826132f8565b810181811067ffffffffffffffff821117156133605761335f613309565b5b80604052505050565b600061337361321b565b905061337f8282613338565b919050565b600067ffffffffffffffff82111561339f5761339e613309565b5b6133a8826132f8565b9050602081019050919050565b82818337600083830152505050565b60006133d76133d284613384565b613369565b9050828152602081018484840111156133f3576133f26132f3565b5b6133fe8482856133b5565b509392505050565b600082601f83011261341b5761341a6132ee565b5b813561342b8482602086016133c4565b91505092915050565b60006020828403121561344a57613449613225565b5b600082013567ffffffffffffffff8111156134685761346761322a565b5b61347484828501613406565b91505092915050565b60008115159050919050565b6134928161347d565b82525050565b60006020820190506134ad6000830184613489565b92915050565b600080604083850312156134ca576134c9613225565b5b600083013567ffffffffffffffff8111156134e8576134e761322a565b5b6134f485828601613406565b925050602083013567ffffffffffffffff8111156135155761351461322a565b5b61352185828601613406565b9150509250929050565b600081519050919050565b600082825260208201905092915050565b6000819050602082019050919050565b613560816132ba565b82525050565b60006135728383613557565b60208301905092915050565b6000602082019050919050565b60006135968261352b565b6135a08185613536565b93506135ab83613547565b8060005b838110156135dc5781516135c38882613566565b97506135ce8361357e565b9250506001810190506135af565b5085935050505092915050565b60006020820190508181036000830152613603818461358b565b905092915050565b613614816132ba565b811461361f57600080fd5b50565b6000813590506136318161360b565b92915050565b60006020828403121561364d5761364c613225565b5b600061365b84828501613622565b91505092915050565b61366d8161324f565b82525050565b600081519050919050565b600082825260208201905092915050565b60005b838110156136ad578082015181840152602081019050613692565b60008484015250505050565b60006136c482613673565b6136ce818561367e565b93506136de81856020860161368f565b6136e7816132f8565b840191505092915050565b600081519050919050565b600082825260208201905092915050565b6000819050602082019050919050565b600082825260208201905092915050565b600061373a82613673565b613744818561371e565b935061375481856020860161368f565b61375d816132f8565b840191505092915050565b6000613774838361372f565b905092915050565b6000602082019050919050565b6000613794826136f2565b61379e81856136fd565b9350836020820285016137b08561370e565b8060005b858110156137ec57848403895281516137cd8582613768565b94506137d88361377c565b925060208a019950506001810190506137b4565b50829750879550505050505092915050565b600060a0820190506138136000830188613664565b818103602083015261382581876136b9565b905081810360408301526138398186613789565b9050818103606083015261384d818561358b565b905061385c60808301846132c4565b9695505050505050565b6000819050919050565b600061388b6138866138818461322f565b613866565b61322f565b9050919050565b600061389d82613870565b9050919050565b60006138af82613892565b9050919050565b6138bf816138a4565b82525050565b60006020820190506138da60008301846138b6565b92915050565b600080604083850312156138f7576138f6613225565b5b600061390585828601613278565b925050602061391685828601613622565b9150509250929050565b600081519050919050565b600082825260208201905092915050565b6000819050602082019050919050565b6139558161347d565b82525050565b60006060830160008301518482036000860152613978828261372f565b91505060208301518482036020860152613992828261372f565b91505060408301516139a7604086018261394c565b508091505092915050565b60006139be838361395b565b905092915050565b6000602082019050919050565b60006139de82613920565b6139e8818561392b565b9350836020820285016139fa8561393c565b8060005b85811015613a365784840389528151613a1785826139b2565b9450613a22836139c6565b925060208a019950506001810190506139fe565b50829750879550505050505092915050565b60006020820190508181036000830152613a6281846139d3565b905092915050565b600081519050919050565b600082825260208201905092915050565b6000819050602082019050919050565b613a9f8161324f565b82525050565b600060a083016000830151613abd6000860182613a96565b5060208301518482036020860152613ad5828261372f565b91505060408301518482036040860152613aef828261372f565b9150506060830151613b046060860182613557565b506080830151613b17608086018261394c565b508091505092915050565b6000613b2e8383613aa5565b905092915050565b6000602082019050919050565b6000613b4e82613a6a565b613b588185613a75565b935083602082028501613b6a85613a86565b8060005b85811015613ba65784840389528151613b878582613b22565b9450613b9283613b36565b925060208a01995050600181019050613b6e565b50829750879550505050505092915050565b60006020820190508181036000830152613bd28184613b43565b905092915050565b600080600060608486031215613bf357613bf2613225565b5b6000613c0186828701613622565b9350506020613c1286828701613622565b9250506040613c2386828701613622565b9150509250925092565b600067ffffffffffffffff821115613c4857613c47613309565b5b602082029050602081019050919050565b600080fd5b6000613c71613c6c84613c2d565b613369565b90508083825260208201905060208402830185811115613c9457613c93613c59565b5b835b81811015613cdb57803567ffffffffffffffff811115613cb957613cb86132ee565b5b808601613cc68982613406565b85526020850194505050602081019050613c96565b5050509392505050565b600082601f830112613cfa57613cf96132ee565b5b8135613d0a848260208601613c5e565b91505092915050565b60008060408385031215613d2a57613d29613225565b5b600083013567ffffffffffffffff811115613d4857613d4761322a565b5b613d5485828601613406565b925050602083013567ffffffffffffffff811115613d7557613d7461322a565b5b613d8185828601613ce5565b9150509250929050565b6000602082019050613da06000830184613664565b92915050565b6000613db182613892565b9050919050565b613dc181613da6565b82525050565b6000602082019050613ddc6000830184613db8565b92915050565b6000608082019050613df76000830187613664565b8181036020830152613e0981866136b9565b9050613e1860408301856132c4565b613e256060830184613489565b95945050505050565b60008060408385031215613e4557613e44613225565b5b6000613e5385828601613622565b9250506020613e6485828601613622565b9150509250929050565b600060a082019050613e836000830188613664565b8181036020830152613e9581876136b9565b90508181036040830152613ea981866136b9565b9050613eb860608301856132c4565b613ec56080830184613489565b9695505050505050565b60006060820190508181036000830152613ee981866136b9565b90508181036020830152613efd81856136b9565b9050613f0c6040830184613489565b949350505050565b600060a083016000830151613f2c6000860182613a96565b5060208301518482036020860152613f44828261372f565b91505060408301518482036040860152613f5e828261372f565b9150506060830151613f736060860182613557565b506080830151613f86608086018261394c565b508091505092915050565b60006020820190508181036000830152613fab8184613f14565b905092915050565b60006060830160008301518482036000860152613fd0828261372f565b91505060208301518482036020860152613fea828261372f565b9150506040830151613fff604086018261394c565b508091505092915050565b600060208201905081810360008301526140248184613fb3565b905092915050565b60008060006060848603121561404557614044613225565b5b600061405386828701613622565b935050602084013567ffffffffffffffff8111156140745761407361322a565b5b61408086828701613406565b925050604084013567ffffffffffffffff8111156140a1576140a061322a565b5b6140ad86828701613406565b9150509250925092565b7f4e487b7100000000000000000000000000000000000000000000000000000000600052602260045260246000fd5b600060028204905060018216806140fe57607f821691505b602082108103614111576141106140b7565b5b50919050565b600081905092915050565b60008190508160005260206000209050919050565b60008154614144816140e6565b61414e8186614117565b94506001821660008114614169576001811461417e576141b1565b60ff19831686528115158202860193506141b1565b61418785614122565b60005b838110156141a95781548189015260018201915060208101905061418a565b838801955050505b50505092915050565b60006141c68284614137565b915081905092915050565b7f4e487b7100000000000000000000000000000000000000000000000000000000600052601160045260246000fd5b600061420b826132ba565b91507fffffffffffffffffffffffffffffffffffffffffffffffffffffffffffffffff820361423d5761423c6141d1565b5b600182019050919050565b7f496e76616c69642070726f6d7074207465787400000000000000000000000000600082015250565b600061427e60138361367e565b915061428982614248565b602082019050919050565b600060208201905081810360008301526142ad81614271565b9050919050565b7f496e76616c69642063617465676f727900000000000000000000000000000000600082015250565b60006142ea60108361367e565b91506142f5826142b4565b602082019050919050565b60006020820190508181036000830152614319816142dd565b9050919050565b7f43617465676f727920646f6573206e6f74206578697374000000000000000000600082015250565b600061435660178361367e565b915061436182614320565b602082019050919050565b6000602082019050818103600083015261438581614349565b9050919050565b60008190508160005260206000209050919050565b60006020601f8301049050919050565b600082821b905092915050565b6000600883026143ee7fffffffffffffffffffffffffffffffffffffffffffffffffffffffffffffffff826143b1565b6143f886836143b1565b95508019841693508086168417925050509392505050565b600061442b614426614421846132ba565b613866565b6132ba565b9050919050565b6000819050919050565b61444583614410565b61445961445182614432565b8484546143be565b825550505050565b600090565b61446e614461565b61447981848461443c565b505050565b5b8181101561449d57614492600082614466565b60018101905061447f565b5050565b601f8211156144e2576144b38161438c565b6144bc846143a1565b810160208510156144cb578190505b6144df6144d7856143a1565b83018261447e565b50505b505050565b600082821c905092915050565b6000614505600019846008026144e7565b1980831691505092915050565b600061451e83836144f4565b9150826002028217905092915050565b61453782613673565b67ffffffffffffffff8111156145505761454f613309565b5b61455a82546140e6565b6145658282856144a1565b600060209050601f8311600181146145985760008415614586578287015190505b6145908582614512565b8655506145f8565b601f1984166145a68661438c565b60005b828110156145ce578489015182556001820191506020850194506020810190506145a9565b868310156145eb57848901516145e7601f8916826144f4565b8355505b6001600288020188555050505b505050505050565b7f4372656174696e6720696365627265616b65722070726f6d7074000000000000600082015250565b6000614636601a8361367e565b915061464182614600565b602082019050919050565b60006060820190506146616000830185613664565b61466e60208301846132c4565b818103604083015261467f81614629565b90509392505050565b600060408201905081810360008301526146a281856136b9565b905081810360208301526146b681846136b9565b90509392505050565b7f506f6c6c20646f6573206e6f7420657869737400000000000000000000000000600082015250565b60006146f560138361367e565b9150614700826146bf565b602082019050919050565b60006020820190508181036000830152614724816146e8565b9050919050565b6000614736826132ba565b9150614741836132ba565b9250828203905081811115614759576147586141d1565b5b92915050565b7f4e487b7100000000000000000000000000000000000000000000000000000000600052603260045260246000fd5b7f50726f6d707420646f6573206e6f742065786973740000000000000000000000600082015250565b60006147c460158361367e565b91506147cf8261478e565b602082019050919050565b600060208201905081810360008301526147f3816147b7565b9050919050565b600060608201905061480f60008301866132c4565b61481c60208301856132c4565b61482960408301846132c4565b949350505050565b7f496e76616c6964207175657374696f6e00000000000000000000000000000000600082015250565b600061486760108361367e565b915061487282614831565b602082019050919050565b600060208201905081810360008301526148968161485a565b9050919050565b7f496e76616c6964206e756d626572206f66206f7074696f6e7300000000000000600082015250565b60006148d360198361367e565b91506148de8261489d565b602082019050919050565b60006020820190508181036000830152614902816148c6565b9050919050565b7f4372656174696e6720696365627265616b657220706f6c6c0000000000000000600082015250565b600061493f60188361367e565b915061494a82614909565b602082019050919050565b600060608201905061496a6000830185613664565b61497760208301846132c4565b818103604083015261498881614932565b90509392505050565b600060408201905081810360008301526149ab81856136b9565b905081810360208301526149bf8184613789565b90509392505050565b7f5573657220686173206e6f7420766f7465640000000000000000000000000000600082015250565b60006149fe60128361367e565b9150614a09826149c8565b602082019050919050565b60006020820190508181036000830152614a2d816149f1565b9050919050565b7f496e76616c69642063617465676f7279206e616d650000000000000000000000600082015250565b6000614a6a60158361367e565b9150614a7582614a34565b602082019050919050565b60006020820190508181036000830152614a9981614a5d565b9050919050565b7f496e76616c69642063617465676f7279206465736372697074696f6e00000000600082015250565b6000614ad6601c8361367e565b9150614ae182614aa0565b602082019050919050565b60006020820190508181036000830152614b0581614ac9565b9050919050565b7f4e6f2070726f6d70747320617661696c61626c65000000000000000000000000600082015250565b6000614b4260148361367e565b9150614b4d82614b0c565b602082019050919050565b60006020820190508181036000830152614b7181614b35565b9050919050565b7f496e76616c6964206f7074696f6e000000000000000000000000000000000000600082015250565b6000614bae600e8361367e565b9150614bb982614b78565b602082019050919050565b60006020820190508181036000830152614bdd81614ba1565b9050919050565b7f416c726561647920766f74656400000000000000000000000000000000000000600082015250565b6000614c1a600d8361367e565b9150614c2582614be4565b602082019050919050565b60006020820190508181036000830152614c4981614c0d565b9050919050565b6000614c5b826132ba565b9150614c66836132ba565b9250828201905080821115614c7e57614c7d6141d1565b5b92915050565b7f506f6c6c20766f74650000000000000000000000000000000000000000000000600082015250565b6000614cba60098361367e565b9150614cc582614c84565b602082019050919050565b6000606082019050614ce56000830185613664565b614cf260208301846132c4565b8181036040830152614d0381614cad565b90509392505050565b7f526573706f6e73652063616e6e6f7420626520656d7074790000000000000000600082015250565b6000614d4260188361367e565b9150614d4d82614d0c565b602082019050919050565b60006020820190508181036000830152614d7181614d35565b9050919050565b7f496365627265616b657220726573706f6e736500000000000000000000000000600082015250565b6000614dae60138361367e565b9150614db982614d78565b602082019050919050565b6000606082019050614dd96000830185613664565b614de660208301846132c4565b8181036040830152614df781614da1565b9050939250505056fea26469706673582212207a479028f39dad5ffb2d8d903cb5d724be0195a29dc46ee0f0e877b48306f4ad64736f6c634300081a0033",
  "linkReferences": {},
  "deployedLinkReferences": {}
}