{
  "_format": "hh-sol-artifact-1",
  "contractName": "RoastMeContract",
  "sourceName": "contracts/RoastMeContract.sol",
  "abi": [
    {
      "inputs": [
        {
          "internalType": "address",
          "name": "admin",
          "type": "address"
        },
        {
          "internalType": "address",
          "name": "_pointsContract",
          "type": "address"
        },
        {
          "internalType": "address",
          "name": "_badgesContract",
          "type": "address"
        }
      ],
      "stateMutability": "nonpayable",
      "type": "constructor"
    },
    {
      "inputs": [
        {
          "internalType": "address",
          "name": "owner",
          "type": "address"
        }
      ],
      "name": "OwnableInvalidOwner",
      "type": "error"
    },
    {
      "inputs": [
        {
          "internalType": "address",
          "name": "account",
          "type": "address"
        }
      ],
      "name": "OwnableUnauthorizedAccount",
      "type": "error"
    },
    {
      "anonymous": false,
      "inputs": [
        {
          "indexed": true,
          "internalType": "address",
          "name": "previousOwner",
          "type": "address"
        },
        {
          "indexed": true,
          "internalType": "address",
          "name": "newOwner",
          "type": "address"
        }
      ],
      "name": "OwnershipTransferred",
      "type": "event"
    },
    {
      "anonymous": false,
      "inputs": [
        {
          "indexed": false,
          "internalType": "uint256",
          "name": "newPointsPerRoast",
          "type": "uint256"
        },
        {
          "indexed": false,
          "internalType": "uint256",
          "name": "newPointsPerVote",
          "type": "uint256"
        },
        {
          "indexed": false,
          "internalType": "uint256",
          "name": "newPointsPerFunnyVote",
          "type": "uint256"
        }
      ],
      "name": "PointsUpdated",
      "type": "event"
    },
    {
      "anonymous": false,
      "inputs": [
        {
          "indexed": true,
          "internalType": "address",
          "name": "user",
          "type": "address"
        },
        {
          "indexed": false,
          "internalType": "uint256",
          "name": "roastId",
          "type": "uint256"
        },
        {
          "indexed": false,
          "internalType": "string",
          "name": "originalImageIpfsHash",
          "type": "string"
        },
        {
          "indexed": false,
          "internalType": "string",
          "name": "roastIpfsHash",
          "type": "string"
        }
      ],
      "name": "RoastSubmitted",
      "type": "event"
    },
    {
      "anonymous": false,
      "inputs": [
        {
          "indexed": true,
          "internalType": "address",
          "name": "voter",
          "type": "address"
        },
        {
          "indexed": false,
          "internalType": "uint256",
          "name": "roastId",
          "type": "uint256"
        },
        {
          "indexed": false,
          "internalType": "bool",
          "name": "isFunny",
          "type": "bool"
        }
      ],
      "name": "RoastVoted",
      "type": "event"
    },
    {
      "inputs": [],
      "name": "badgesContract",
      "outputs": [
        {
          "internalType": "contract VibeCasterBadges",
          "name": "",
          "type": "address"
        }
      ],
      "stateMutability": "view",
      "type": "function"
    },
    {
      "inputs": [
        {
          "internalType": "uint256",
          "name": "roastId",
          "type": "uint256"
        }
      ],
      "name": "getRoast",
      "outputs": [
        {
          "components": [
            {
              "internalType": "address",
              "name": "submitter",
              "type": "address"
            },
            {
              "internalType": "string",
              "name": "originalImageIpfsHash",
              "type": "string"
            },
            {
              "internalType": "string",
              "name": "roastIpfsHash",
              "type": "string"
            },
            {
              "internalType": "uint256",
              "name": "funnyVotes",
              "type": "uint256"
            },
            {
              "internalType": "uint256",
              "name": "mehVotes",
              "type": "uint256"
            },
            {
              "internalType": "uint256",
              "name": "timestamp",
              "type": "uint256"
            },
            {
              "internalType": "bool",
              "name": "exists",
              "type": "bool"
            }
          ],
          "internalType": "struct RoastMeContract.Roast",
          "name": "",
          "type": "tuple"
        }
      ],
      "stateMutability": "view",
      "type": "function"
    },
    {
      "inputs": [
        {
          "internalType": "uint256",
          "name": "limit",
          "type": "uint256"
        }
      ],
      "name": "getTopRoasts",
      "outputs": [
        {
          "internalType": "uint256[]",
          "name": "",
          "type": "uint256[]"
        }
      ],
      "stateMutability": "view",
      "type": "function"
    },
    {
      "inputs": [
        {
          "internalType": "address",
          "name": "user",
          "type": "address"
        }
      ],
      "name": "getUserRoasts",
      "outputs": [
        {
          "internalType": "uint256[]",
          "name": "",
          "type": "uint256[]"
        }
      ],
      "stateMutability": "view",
      "type": "function"
    },
    {
      "inputs": [
        {
          "internalType": "address",
          "name": "user",
          "type": "address"
        },
        {
          "internalType": "uint256",
          "name": "roastId",
          "type": "uint256"
        }
      ],
      "name": "getUserVote",
      "outputs": [
        {
          "internalType": "bool",
          "name": "",
          "type": "bool"
        }
      ],
      "stateMutability": "view",
      "type": "function"
    },
    {
      "inputs": [
        {
          "internalType": "address",
          "name": "user",
          "type": "address"
        },
        {
          "internalType": "uint256",
          "name": "roastId",
          "type": "uint256"
        }
      ],
      "name": "hasUserVoted",
      "outputs": [
        {
          "internalType": "bool",
          "name": "",
          "type": "bool"
        }
      ],
      "stateMutability": "view",
      "type": "function"
    },
    {
      "inputs": [
        {
          "internalType": "address",
          "name": "",
          "type": "address"
        },
        {
          "internalType": "uint256",
          "name": "",
          "type": "uint256"
        }
      ],
      "name": "hasVoted",
      "outputs": [
        {
          "internalType": "bool",
          "name": "",
          "type": "bool"
        }
      ],
      "stateMutability": "view",
      "type": "function"
    },
    {
      "inputs": [],
      "name": "owner",
      "outputs": [
        {
          "internalType": "address",
          "name": "",
          "type": "address"
        }
      ],
      "stateMutability": "view",
      "type": "function"
    },
    {
      "inputs": [],
      "name": "pointsContract",
      "outputs": [
        {
          "internalType": "contract VibeCasterPoints",
          "name": "",
          "type": "address"
        }
      ],
      "stateMutability": "view",
      "type": "function"
    },
    {
      "inputs": [],
      "name": "pointsPerFunnyVote",
      "outputs": [
        {
          "internalType": "uint256",
          "name": "",
          "type": "uint256"
        }
      ],
      "stateMutability": "view",
      "type": "function"
    },
    {
      "inputs": [],
      "name": "pointsPerRoast",
      "outputs": [
        {
          "internalType": "uint256",
          "name": "",
          "type": "uint256"
        }
      ],
      "stateMutability": "view",
      "type": "function"
    },
    {
      "inputs": [],
      "name": "pointsPerVote",
      "outputs": [
        {
          "internalType": "uint256",
          "name": "",
          "type": "uint256"
        }
      ],
      "stateMutability": "view",
      "type": "function"
    },
    {
      "inputs": [],
      "name": "renounceOwnership",
      "outputs": [],
      "stateMutability": "nonpayable",
      "type": "function"
    },
    {
      "inputs": [
        {
          "internalType": "uint256",
          "name": "",
          "type": "uint256"
        }
      ],
      "name": "roasts",
      "outputs": [
        {
          "internalType": "address",
          "name": "submitter",
          "type": "address"
        },
        {
          "internalType": "string",
          "name": "originalImageIpfsHash",
          "type": "string"
        },
        {
          "internalType": "string",
          "name": "roastIpfsHash",
          "type": "string"
        },
        {
          "internalType": "uint256",
          "name": "funnyVotes",
          "type": "uint256"
        },
        {
          "internalType": "uint256",
          "name": "mehVotes",
          "type": "uint256"
        },
        {
          "internalType": "uint256",
          "name": "timestamp",
          "type": "uint256"
        },
        {
          "internalType": "bool",
          "name": "exists",
          "type": "bool"
        }
      ],
      "stateMutability": "view",
      "type": "function"
    },
    {
      "inputs": [
        {
          "internalType": "string",
          "name": "originalImageIpfsHash",
          "type": "string"
        },
        {
          "internalType": "string",
          "name": "roastIpfsHash",
          "type": "string"
        }
      ],
      "name": "submitRoast",
      "outputs": [
        {
          "internalType": "uint256",
          "name": "",
          "type": "uint256"
        }
      ],
      "stateMutability": "nonpayable",
      "type": "function"
    },
    {
      "inputs": [],
      "name": "totalRoasts",
      "outputs": [
        {
          "internalType": "uint256",
          "name": "",
          "type": "uint256"
        }
      ],
      "stateMutability": "view",
      "type": "function"
    },
    {
      "inputs": [
        {
          "internalType": "address",
          "name": "newOwner",
          "type": "address"
        }
      ],
      "name": "transferOwnership",
      "outputs": [],
      "stateMutability": "nonpayable",
      "type": "function"
    },
    {
      "inputs": [
        {
          "internalType": "uint256",
          "name": "newPointsPerRoast",
          "type": "uint256"
        },
        {
          "internalType": "uint256",
          "name": "newPointsPerVote",
          "type": "uint256"
        },
        {
          "internalType": "uint256",
          "name": "newPointsPerFunnyVote",
          "type": "uint256"
        }
      ],
      "name": "updatePoints",
      "outputs": [],
      "stateMutability": "nonpayable",
      "type": "function"
    },
    {
      "inputs": [
        {
          "internalType": "address",
          "name": "",
          "type": "address"
        },
        {
          "internalType": "uint256",
          "name": "",
          "type": "uint256"
        }
      ],
      "name": "userRoasts",
      "outputs": [
        {
          "internalType": "uint256",
          "name": "",
          "type": "uint256"
        }
      ],
      "stateMutability": "view",
      "type": "function"
    },
    {
      "inputs": [
        {
          "internalType": "uint256",
          "name": "roastId",
          "type": "uint256"
        },
        {
          "internalType": "bool",
          "name": "isFunny",
          "type": "bool"
        }
      ],
      "name": "voteRoast",
      "outputs": [],
      "stateMutability": "nonpayable",
      "type": "function"
    },
    {
      "inputs": [
        {
          "internalType": "address",
          "name": "",
          "type": "address"
        },
        {
          "internalType": "uint256",
          "name": "",
          "type": "uint256"
        }
      ],
      "name": "voteType",
      "outputs": [
        {
          "internalType": "bool",
          "name": "",
          "type": "bool"
        }
      ],
      "stateMutability": "view",
      "type": "function"
    }
  ],
  "bytecode": "0x6080604052600a60085560016009556005600a5534801561001f57600080fd5b50604051612c13380380612c1383398181016040528101906100419190610275565b82600073ffffffffffffffffffffffffffffffffffffffff168173ffffffffffffffffffffffffffffffffffffffff16036100b45760006040517f1e4fbdf70000000000000000000000000000000000000000000000000000000081526004016100ab91906102d7565b60405180910390fd5b6100c38161014e60201b60201c565b5081600160006101000a81548173ffffffffffffffffffffffffffffffffffffffff021916908373ffffffffffffffffffffffffffffffffffffffff16021790555080600260006101000a81548173ffffffffffffffffffffffffffffffffffffffff021916908373ffffffffffffffffffffffffffffffffffffffff1602179055505050506102f2565b60008060009054906101000a900473ffffffffffffffffffffffffffffffffffffffff169050816000806101000a81548173ffffffffffffffffffffffffffffffffffffffff021916908373ffffffffffffffffffffffffffffffffffffffff1602179055508173ffffffffffffffffffffffffffffffffffffffff168173ffffffffffffffffffffffffffffffffffffffff167f8be0079c531659141344cd1fd0a4f28419497f9722a3daafe3b4186f6b6457e060405160405180910390a35050565b600080fd5b600073ffffffffffffffffffffffffffffffffffffffff82169050919050565b600061024282610217565b9050919050565b61025281610237565b811461025d57600080fd5b50565b60008151905061026f81610249565b92915050565b60008060006060848603121561028e5761028d610212565b5b600061029c86828701610260565b93505060206102ad86828701610260565b92505060406102be86828701610260565b9150509250925092565b6102d181610237565b82525050565b60006020820190506102ec60008301846102c8565b92915050565b612912806103016000396000f3fe608060405234801561001057600080fd5b50600436106101375760003560e01c806378a20443116100b8578063a01bc01f1161007c578063a01bc01f14610358578063bdf9bc7c14610388578063d46f96ed146103b8578063df84c742146103e8578063e369a23d14610418578063f2fde38b1461043657610137565b806378a204431461029e5780638908e3b7146102ce5780638da5cb5b146102ec57806397d3b9ec1461030a5780639afbe7e21461032857610137565b806342545825116100ff578063425458251461020e5780635d877e641461023e578063715018a61461025a57806372e89f701461026457806377738fa91461028057610137565b80632b4f8a1f1461013c5780632be94e4a1461015a5780632f1f911314610178578063339f25be146101a85780633f4ce2d0146101d8575b600080fd5b610144610452565b60405161015191906118a8565b60405180910390f35b610162610478565b60405161016f91906118dc565b60405180910390f35b610192600480360381019061018d9190611937565b61047e565b60405161019f9190611ae2565b60405180910390f35b6101c260048036038101906101bd9190611b30565b6106c1565b6040516101cf91906118dc565b60405180910390f35b6101f260048036038101906101ed9190611937565b6106f2565b6040516102059796959493929190611bd8565b60405180910390f35b61022860048036038101906102239190611b30565b610871565b6040516102359190611c55565b60405180910390f35b61025860048036038101906102539190611c9c565b6108a0565b005b610262610e39565b005b61027e60048036038101906102799190611cdc565b610e4d565b005b610288610eaa565b60405161029591906118dc565b60405180910390f35b6102b860048036038101906102b39190611937565b610eb0565b6040516102c59190611dde565b60405180910390f35b6102d6610fd7565b6040516102e391906118dc565b60405180910390f35b6102f4610fdd565b6040516103019190611e00565b60405180910390f35b610312611006565b60405161031f9190611e3c565b60405180910390f35b610342600480360381019061033d9190611b30565b61102c565b60405161034f9190611c55565b60405180910390f35b610372600480360381019061036d9190611b30565b61105b565b60405161037f9190611c55565b60405180910390f35b6103a2600480360381019061039d9190611f8c565b611160565b6040516103af91906118dc565b60405180910390f35b6103d260048036038101906103cd9190611b30565b6114f2565b6040516103df9190611c55565b60405180910390f35b61040260048036038101906103fd9190612004565b61155a565b60405161040f9190611dde565b60405180910390f35b6104206115f1565b60405161042d91906118dc565b60405180910390f35b610450600480360381019061044b9190612004565b6115fb565b005b600160009054906101000a900473ffffffffffffffffffffffffffffffffffffffff1681565b60095481565b6104866117d4565b6003600083815260200190815260200160002060060160009054906101000a900460ff166104e9576040517f08c379a00000000000000000000000000000000000000000000000000000000081526004016104e09061207d565b60405180910390fd5b600360008381526020019081526020016000206040518060e00160405290816000820160009054906101000a900473ffffffffffffffffffffffffffffffffffffffff1673ffffffffffffffffffffffffffffffffffffffff1673ffffffffffffffffffffffffffffffffffffffff16815260200160018201805461056d906120cc565b80601f0160208091040260200160405190810160405280929190818152602001828054610599906120cc565b80156105e65780601f106105bb576101008083540402835291602001916105e6565b820191906000526020600020905b8154815290600101906020018083116105c957829003601f168201915b505050505081526020016002820180546105ff906120cc565b80601f016020809104026020016040519081016040528092919081815260200182805461062b906120cc565b80156106785780601f1061064d57610100808354040283529160200191610678565b820191906000526020600020905b81548152906001019060200180831161065b57829003601f168201915b505050505081526020016003820154815260200160048201548152602001600582015481526020016006820160009054906101000a900460ff1615151515815250509050919050565b600460205281600052604060002081815481106106dd57600080fd5b90600052602060002001600091509150505481565b60036020528060005260406000206000915090508060000160009054906101000a900473ffffffffffffffffffffffffffffffffffffffff169080600101805461073b906120cc565b80601f0160208091040260200160405190810160405280929190818152602001828054610767906120cc565b80156107b45780601f10610789576101008083540402835291602001916107b4565b820191906000526020600020905b81548152906001019060200180831161079757829003601f168201915b5050505050908060020180546107c9906120cc565b80601f01602080910402602001604051908101604052809291908181526020018280546107f5906120cc565b80156108425780601f1061081757610100808354040283529160200191610842565b820191906000526020600020905b81548152906001019060200180831161082557829003601f168201915b5050505050908060030154908060040154908060050154908060060160009054906101000a900460ff16905087565b60056020528160005260406000206020528060005260406000206000915091509054906101000a900460ff1681565b6003600083815260200190815260200160002060060160009054906101000a900460ff16610903576040517f08c379a00000000000000000000000000000000000000000000000000000000081526004016108fa9061207d565b60405180910390fd5b600560003373ffffffffffffffffffffffffffffffffffffffff1673ffffffffffffffffffffffffffffffffffffffff168152602001908152602001600020600083815260200190815260200160002060009054906101000a900460ff16156109a1576040517f08c379a000000000000000000000000000000000000000000000000000000000815260040161099890612149565b60405180910390fd5b6003600083815260200190815260200160002060000160009054906101000a900473ffffffffffffffffffffffffffffffffffffffff1673ffffffffffffffffffffffffffffffffffffffff163373ffffffffffffffffffffffffffffffffffffffff1603610a45576040517f08c379a0000000000000000000000000000000000000000000000000000000008152600401610a3c906121b5565b60405180910390fd5b6001600560003373ffffffffffffffffffffffffffffffffffffffff1673ffffffffffffffffffffffffffffffffffffffff168152602001908152602001600020600084815260200190815260200160002060006101000a81548160ff02191690831515021790555080600660003373ffffffffffffffffffffffffffffffffffffffff1673ffffffffffffffffffffffffffffffffffffffff168152602001908152602001600020600084815260200190815260200160002060006101000a81548160ff0219169083151502179055508015610ca557600360008381526020019081526020016000206003016000815480929190610b4390612204565b9190505550600160009054906101000a900473ffffffffffffffffffffffffffffffffffffffff1673ffffffffffffffffffffffffffffffffffffffff1663f0c47cab336009546040518363ffffffff1660e01b8152600401610ba7929190612298565b600060405180830381600087803b158015610bc157600080fd5b505af1158015610bd5573d6000803e3d6000fd5b50505050600160009054906101000a900473ffffffffffffffffffffffffffffffffffffffff1673ffffffffffffffffffffffffffffffffffffffff1663f0c47cab6003600085815260200190815260200160002060000160009054906101000a900473ffffffffffffffffffffffffffffffffffffffff16600a546040518363ffffffff1660e01b8152600401610c6e929190612320565b600060405180830381600087803b158015610c8857600080fd5b505af1158015610c9c573d6000803e3d6000fd5b50505050610d63565b600360008381526020019081526020016000206004016000815480929190610ccc90612204565b9190505550600160009054906101000a900473ffffffffffffffffffffffffffffffffffffffff1673ffffffffffffffffffffffffffffffffffffffff1663f0c47cab336009546040518363ffffffff1660e01b8152600401610d30929190612298565b600060405180830381600087803b158015610d4a57600080fd5b505af1158015610d5e573d6000803e3d6000fd5b505050505b600160009054906101000a900473ffffffffffffffffffffffffffffffffffffffff1673ffffffffffffffffffffffffffffffffffffffff16634756f60c6040518163ffffffff1660e01b8152600401600060405180830381600087803b158015610dcd57600080fd5b505af1158015610de1573d6000803e3d6000fd5b505050503373ffffffffffffffffffffffffffffffffffffffff167fa2339584a091f8e7951781ceff400eb4a02bb6d9eba2771a045fb95906c5c9648383604051610e2d92919061235c565b60405180910390a25050565b610e41611681565b610e4b6000611708565b565b610e55611681565b826008819055508160098190555080600a819055507f96afec48c2f05b52e11e40b17e255ef5ef2087e41dddc5a14503782c71af63bf838383604051610e9d93929190612385565b60405180910390a1505050565b60085481565b60606032821115610ef6576040517f08c379a0000000000000000000000000000000000000000000000000000000008152600401610eed90612408565b60405180910390fd5b60008267ffffffffffffffff811115610f1257610f11611e61565b5b604051908082528060200260200182016040528015610f405781602001602082028036833780820191505090505b509050600080600190505b6007548111158015610f5c57508482105b15610fcc576003600082815260200190815260200160002060060160009054906101000a900460ff1615610fb95780838381518110610f9e57610f9d612428565b5b6020026020010181815250508180610fb590612204565b9250505b8080610fc490612204565b915050610f4b565b508192505050919050565b600a5481565b60008060009054906101000a900473ffffffffffffffffffffffffffffffffffffffff16905090565b600260009054906101000a900473ffffffffffffffffffffffffffffffffffffffff1681565b60066020528160005260406000206020528060005260406000206000915091509054906101000a900460ff1681565b6000600560008473ffffffffffffffffffffffffffffffffffffffff1673ffffffffffffffffffffffffffffffffffffffff168152602001908152602001600020600083815260200190815260200160002060009054906101000a900460ff166110fa576040517f08c379a00000000000000000000000000000000000000000000000000000000081526004016110f1906124a3565b60405180910390fd5b600660008473ffffffffffffffffffffffffffffffffffffffff1673ffffffffffffffffffffffffffffffffffffffff168152602001908152602001600020600083815260200190815260200160002060009054906101000a900460ff16905092915050565b6000808351116111a5576040517f08c379a000000000000000000000000000000000000000000000000000000000815260040161119c9061250f565b60405180910390fd5b60008251116111e9576040517f08c379a00000000000000000000000000000000000000000000000000000000081526004016111e09061257b565b60405180910390fd5b600760008154809291906111fc90612204565b9190505550600060075490506040518060e001604052803373ffffffffffffffffffffffffffffffffffffffff1681526020018581526020018481526020016000815260200160008152602001428152602001600115158152506003600083815260200190815260200160002060008201518160000160006101000a81548173ffffffffffffffffffffffffffffffffffffffff021916908373ffffffffffffffffffffffffffffffffffffffff16021790555060208201518160010190816112c5919061273d565b5060408201518160020190816112db919061273d565b50606082015181600301556080820151816004015560a0820151816005015560c08201518160060160006101000a81548160ff021916908315150217905550905050600460003373ffffffffffffffffffffffffffffffffffffffff1673ffffffffffffffffffffffffffffffffffffffff168152602001908152602001600020819080600181540180825580915050600190039060005260206000200160009091909190915055600160009054906101000a900473ffffffffffffffffffffffffffffffffffffffff1673ffffffffffffffffffffffffffffffffffffffff1663f0c47cab336008546040518363ffffffff1660e01b81526004016113e292919061285b565b600060405180830381600087803b1580156113fc57600080fd5b505af1158015611410573d6000803e3d6000fd5b50505050600160009054906101000a900473ffffffffffffffffffffffffffffffffffffffff1673ffffffffffffffffffffffffffffffffffffffff16634756f60c6040518163ffffffff1660e01b8152600401600060405180830381600087803b15801561147e57600080fd5b505af1158015611492573d6000803e3d6000fd5b505050503373ffffffffffffffffffffffffffffffffffffffff167f681fba15562f4985eb3ee7610945ab2017cd443cbfc73df5dae76d8a06b3f8138286866040516114e093929190612897565b60405180910390a28091505092915050565b6000600560008473ffffffffffffffffffffffffffffffffffffffff1673ffffffffffffffffffffffffffffffffffffffff168152602001908152602001600020600083815260200190815260200160002060009054906101000a900460ff16905092915050565b6060600460008373ffffffffffffffffffffffffffffffffffffffff1673ffffffffffffffffffffffffffffffffffffffff1681526020019081526020016000208054806020026020016040519081016040528092919081815260200182805480156115e557602002820191906000526020600020905b8154815260200190600101908083116115d1575b50505050509050919050565b6000600754905090565b611603611681565b600073ffffffffffffffffffffffffffffffffffffffff168173ffffffffffffffffffffffffffffffffffffffff16036116755760006040517f1e4fbdf700000000000000000000000000000000000000000000000000000000815260040161166c9190611e00565b60405180910390fd5b61167e81611708565b50565b6116896117cc565b73ffffffffffffffffffffffffffffffffffffffff166116a7610fdd565b73ffffffffffffffffffffffffffffffffffffffff1614611706576116ca6117cc565b6040517f118cdaa70000000000000000000000000000000000000000000000000000000081526004016116fd9190611e00565b60405180910390fd5b565b60008060009054906101000a900473ffffffffffffffffffffffffffffffffffffffff169050816000806101000a81548173ffffffffffffffffffffffffffffffffffffffff021916908373ffffffffffffffffffffffffffffffffffffffff1602179055508173ffffffffffffffffffffffffffffffffffffffff168173ffffffffffffffffffffffffffffffffffffffff167f8be0079c531659141344cd1fd0a4f28419497f9722a3daafe3b4186f6b6457e060405160405180910390a35050565b600033905090565b6040518060e00160405280600073ffffffffffffffffffffffffffffffffffffffff16815260200160608152602001606081526020016000815260200160008152602001600081526020016000151581525090565b600073ffffffffffffffffffffffffffffffffffffffff82169050919050565b6000819050919050565b600061186e61186961186484611829565b611849565b611829565b9050919050565b600061188082611853565b9050919050565b600061189282611875565b9050919050565b6118a281611887565b82525050565b60006020820190506118bd6000830184611899565b92915050565b6000819050919050565b6118d6816118c3565b82525050565b60006020820190506118f160008301846118cd565b92915050565b6000604051905090565b600080fd5b600080fd5b611914816118c3565b811461191f57600080fd5b50565b6000813590506119318161190b565b92915050565b60006020828403121561194d5761194c611901565b5b600061195b84828501611922565b91505092915050565b600061196f82611829565b9050919050565b61197f81611964565b82525050565b600081519050919050565b600082825260208201905092915050565b60005b838110156119bf5780820151818401526020810190506119a4565b60008484015250505050565b6000601f19601f8301169050919050565b60006119e782611985565b6119f18185611990565b9350611a018185602086016119a1565b611a0a816119cb565b840191505092915050565b611a1e816118c3565b82525050565b60008115159050919050565b611a3981611a24565b82525050565b600060e083016000830151611a576000860182611976565b5060208301518482036020860152611a6f82826119dc565b91505060408301518482036040860152611a8982826119dc565b9150506060830151611a9e6060860182611a15565b506080830151611ab16080860182611a15565b5060a0830151611ac460a0860182611a15565b5060c0830151611ad760c0860182611a30565b508091505092915050565b60006020820190508181036000830152611afc8184611a3f565b905092915050565b611b0d81611964565b8114611b1857600080fd5b50565b600081359050611b2a81611b04565b92915050565b60008060408385031215611b4757611b46611901565b5b6000611b5585828601611b1b565b9250506020611b6685828601611922565b9150509250929050565b611b7981611964565b82525050565b600082825260208201905092915050565b6000611b9b82611985565b611ba58185611b7f565b9350611bb58185602086016119a1565b611bbe816119cb565b840191505092915050565b611bd281611a24565b82525050565b600060e082019050611bed600083018a611b70565b8181036020830152611bff8189611b90565b90508181036040830152611c138188611b90565b9050611c2260608301876118cd565b611c2f60808301866118cd565b611c3c60a08301856118cd565b611c4960c0830184611bc9565b98975050505050505050565b6000602082019050611c6a6000830184611bc9565b92915050565b611c7981611a24565b8114611c8457600080fd5b50565b600081359050611c9681611c70565b92915050565b60008060408385031215611cb357611cb2611901565b5b6000611cc185828601611922565b9250506020611cd285828601611c87565b9150509250929050565b600080600060608486031215611cf557611cf4611901565b5b6000611d0386828701611922565b9350506020611d1486828701611922565b9250506040611d2586828701611922565b9150509250925092565b600081519050919050565b600082825260208201905092915050565b6000819050602082019050919050565b6000611d678383611a15565b60208301905092915050565b6000602082019050919050565b6000611d8b82611d2f565b611d958185611d3a565b9350611da083611d4b565b8060005b83811015611dd1578151611db88882611d5b565b9750611dc383611d73565b925050600181019050611da4565b5085935050505092915050565b60006020820190508181036000830152611df88184611d80565b905092915050565b6000602082019050611e156000830184611b70565b92915050565b6000611e2682611875565b9050919050565b611e3681611e1b565b82525050565b6000602082019050611e516000830184611e2d565b92915050565b600080fd5b600080fd5b7f4e487b7100000000000000000000000000000000000000000000000000000000600052604160045260246000fd5b611e99826119cb565b810181811067ffffffffffffffff82111715611eb857611eb7611e61565b5b80604052505050565b6000611ecb6118f7565b9050611ed78282611e90565b919050565b600067ffffffffffffffff821115611ef757611ef6611e61565b5b611f00826119cb565b9050602081019050919050565b82818337600083830152505050565b6000611f2f611f2a84611edc565b611ec1565b905082815260208101848484011115611f4b57611f4a611e5c565b5b611f56848285611f0d565b509392505050565b600082601f830112611f7357611f72611e57565b5b8135611f83848260208601611f1c565b91505092915050565b60008060408385031215611fa357611fa2611901565b5b600083013567ffffffffffffffff811115611fc157611fc0611906565b5b611fcd85828601611f5e565b925050602083013567ffffffffffffffff811115611fee57611fed611906565b5b611ffa85828601611f5e565b9150509250929050565b60006020828403121561201a57612019611901565b5b600061202884828501611b1b565b91505092915050565b7f526f61737420646f6573206e6f74206578697374000000000000000000000000600082015250565b6000612067601483611b7f565b915061207282612031565b602082019050919050565b600060208201905081810360008301526120968161205a565b9050919050565b7f4e487b7100000000000000000000000000000000000000000000000000000000600052602260045260246000fd5b600060028204905060018216806120e457607f821691505b6020821081036120f7576120f661209d565b5b50919050565b7f416c726561647920766f746564206f6e207468697320726f6173740000000000600082015250565b6000612133601b83611b7f565b915061213e826120fd565b602082019050919050565b6000602082019050818103600083015261216281612126565b9050919050565b7f43616e6e6f7420766f7465206f6e20796f7572206f776e20726f617374000000600082015250565b600061219f601d83611b7f565b91506121aa82612169565b602082019050919050565b600060208201905081810360008301526121ce81612192565b9050919050565b7f4e487b7100000000000000000000000000000000000000000000000000000000600052601160045260246000fd5b600061220f826118c3565b91507fffffffffffffffffffffffffffffffffffffffffffffffffffffffffffffffff8203612241576122406121d5565b5b600182019050919050565b7f566f74696e67206f6e20726f6173740000000000000000000000000000000000600082015250565b6000612282600f83611b7f565b915061228d8261224c565b602082019050919050565b60006060820190506122ad6000830185611b70565b6122ba60208301846118cd565b81810360408301526122cb81612275565b90509392505050565b7f46756e6e7920726f61737420766f746500000000000000000000000000000000600082015250565b600061230a601083611b7f565b9150612315826122d4565b602082019050919050565b60006060820190506123356000830185611b70565b61234260208301846118cd565b8181036040830152612353816122fd565b90509392505050565b600060408201905061237160008301856118cd565b61237e6020830184611bc9565b9392505050565b600060608201905061239a60008301866118cd565b6123a760208301856118cd565b6123b460408301846118cd565b949350505050565b7f4c696d697420746f6f2068696768000000000000000000000000000000000000600082015250565b60006123f2600e83611b7f565b91506123fd826123bc565b602082019050919050565b60006020820190508181036000830152612421816123e5565b9050919050565b7f4e487b7100000000000000000000000000000000000000000000000000000000600052603260045260246000fd5b7f5573657220686173206e6f7420766f7465640000000000000000000000000000600082015250565b600061248d601283611b7f565b915061249882612457565b602082019050919050565b600060208201905081810360008301526124bc81612480565b9050919050565b7f496e76616c6964206f726967696e616c20696d61676520686173680000000000600082015250565b60006124f9601b83611b7f565b9150612504826124c3565b602082019050919050565b60006020820190508181036000830152612528816124ec565b9050919050565b7f496e76616c696420726f61737420686173680000000000000000000000000000600082015250565b6000612565601283611b7f565b91506125708261252f565b602082019050919050565b6000602082019050818103600083015261259481612558565b9050919050565b60008190508160005260206000209050919050565b60006020601f8301049050919050565b600082821b905092915050565b6000600883026125fd7fffffffffffffffffffffffffffffffffffffffffffffffffffffffffffffffff826125c0565b61260786836125c0565b95508019841693508086168417925050509392505050565b600061263a612635612630846118c3565b611849565b6118c3565b9050919050565b6000819050919050565b6126548361261f565b61266861266082612641565b8484546125cd565b825550505050565b600090565b61267d612670565b61268881848461264b565b505050565b5b818110156126ac576126a1600082612675565b60018101905061268e565b5050565b601f8211156126f1576126c28161259b565b6126cb846125b0565b810160208510156126da578190505b6126ee6126e6856125b0565b83018261268d565b50505b505050565b600082821c905092915050565b6000612714600019846008026126f6565b1980831691505092915050565b600061272d8383612703565b9150826002028217905092915050565b61274682611985565b67ffffffffffffffff81111561275f5761275e611e61565b5b61276982546120cc565b6127748282856126b0565b600060209050601f8311600181146127a75760008415612795578287015190505b61279f8582612721565b865550612807565b601f1984166127b58661259b565b60005b828110156127dd578489015182556001820191506020850194506020810190506127b8565b868310156127fa57848901516127f6601f891682612703565b8355505b6001600288020188555050505b505050505050565b7f526f617374207375626d697373696f6e00000000000000000000000000000000600082015250565b6000612845601083611b7f565b91506128508261280f565b602082019050919050565b60006060820190506128706000830185611b70565b61287d60208301846118cd565b818103604083015261288e81612838565b90509392505050565b60006060820190506128ac60008301866118cd565b81810360208301526128be8185611b90565b905081810360408301526128d28184611b90565b905094935050505056fea2646970667358221220d66e297f9a686dc3efa63ca27bc99b4520e675e3e18fc341f34cef1675e0e90764736f6c634300081a0033",
  "linkReferences": {},
  "deployedLinkReferences": {}
}