{
  "_format": "hh-sol-artifact-1",
  "contractName": "VibeCasterAdmin",
  "sourceName": "contracts/VibeCasterAdmin.sol",
  "abi": [
    {
      "inputs": [
        {
          "internalType": "address",
          "name": "admin",
          "type": "address"
        }
      ],
      "stateMutability": "nonpayable",
      "type": "constructor"
    },
    {
      "inputs": [
        {
          "internalType": "address",
          "name": "owner",
          "type": "address"
        }
      ],
      "name": "OwnableInvalidOwner",
      "type": "error"
    },
    {
      "inputs": [
        {
          "internalType": "address",
          "name": "account",
          "type": "address"
        }
      ],
      "name": "OwnableUnauthorizedAccount",
      "type": "error"
    },
    {
      "anonymous": false,
      "inputs": [
        {
          "indexed": true,
          "internalType": "address",
          "name": "admin",
          "type": "address"
        }
      ],
      "name": "AdminAuthorized",
      "type": "event"
    },
    {
      "anonymous": false,
      "inputs": [
        {
          "indexed": true,
          "internalType": "address",
          "name": "admin",
          "type": "address"
        }
      ],
      "name": "AdminDeauthorized",
      "type": "event"
    },
    {
      "anonymous": false,
      "inputs": [],
      "name": "BadgeRequirementsUpdated",
      "type": "event"
    },
    {
      "anonymous": false,
      "inputs": [],
      "name": "BadgeURIsUpdated",
      "type": "event"
    },
    {
      "anonymous": false,
      "inputs": [
        {
          "indexed": false,
          "internalType": "uint256",
          "name": "categoryId",
          "type": "uint256"
        },
        {
          "indexed": false,
          "internalType": "string",
          "name": "name",
          "type": "string"
        },
        {
          "indexed": false,
          "internalType": "string",
          "name": "description",
          "type": "string"
        }
      ],
      "name": "CategoryCreated",
      "type": "event"
    },
    {
      "anonymous": false,
      "inputs": [
        {
          "indexed": true,
          "internalType": "address",
          "name": "previousOwner",
          "type": "address"
        },
        {
          "indexed": true,
          "internalType": "address",
          "name": "newOwner",
          "type": "address"
        }
      ],
      "name": "OwnershipTransferred",
      "type": "event"
    },
    {
      "anonymous": false,
      "inputs": [
        {
          "indexed": false,
          "internalType": "string",
          "name": "contractName",
          "type": "string"
        },
        {
          "indexed": false,
          "internalType": "uint256",
          "name": "newPointsPerAction",
          "type": "uint256"
        },
        {
          "indexed": false,
          "internalType": "uint256",
          "name": "newPointsPerVote",
          "type": "uint256"
        },
        {
          "indexed": false,
          "internalType": "uint256",
          "name": "newPointsPerBonus",
          "type": "uint256"
        }
      ],
      "name": "PointsUpdated",
      "type": "event"
    },
    {
      "inputs": [
        {
          "internalType": "address",
          "name": "admin",
          "type": "address"
        }
      ],
      "name": "authorizeAdmin",
      "outputs": [],
      "stateMutability": "nonpayable",
      "type": "function"
    },
    {
      "inputs": [
        {
          "internalType": "address",
          "name": "contractAddress",
          "type": "address"
        }
      ],
      "name": "authorizeContractInPoints",
      "outputs": [],
      "stateMutability": "nonpayable",
      "type": "function"
    },
    {
      "inputs": [
        {
          "internalType": "address",
          "name": "minter",
          "type": "address"
        }
      ],
      "name": "authorizeMinterInBadges",
      "outputs": [],
      "stateMutability": "nonpayable",
      "type": "function"
    },
    {
      "inputs": [
        {
          "internalType": "address",
          "name": "",
          "type": "address"
        }
      ],
      "name": "authorizedAdmins",
      "outputs": [
        {
          "internalType": "bool",
          "name": "",
          "type": "bool"
        }
      ],
      "stateMutability": "view",
      "type": "function"
    },
    {
      "inputs": [],
      "name": "badgesContract",
      "outputs": [
        {
          "internalType": "contract VibeCasterBadges",
          "name": "",
          "type": "address"
        }
      ],
      "stateMutability": "view",
      "type": "function"
    },
    {
      "inputs": [],
      "name": "chainReactionContract",
      "outputs": [
        {
          "internalType": "contract ChainReactionContract",
          "name": "",
          "type": "address"
        }
      ],
      "stateMutability": "view",
      "type": "function"
    },
    {
      "inputs": [
        {
          "internalType": "string",
          "name": "name",
          "type": "string"
        },
        {
          "internalType": "string",
          "name": "description",
          "type": "string"
        }
      ],
      "name": "createIcebreakerCategory",
      "outputs": [
        {
          "internalType": "uint256",
          "name": "",
          "type": "uint256"
        }
      ],
      "stateMutability": "nonpayable",
      "type": "function"
    },
    {
      "inputs": [
        {
          "internalType": "address",
          "name": "admin",
          "type": "address"
        }
      ],
      "name": "deauthorizeAdmin",
      "outputs": [],
      "stateMutability": "nonpayable",
      "type": "function"
    },
    {
      "inputs": [
        {
          "internalType": "address",
          "name": "contractAddress",
          "type": "address"
        }
      ],
      "name": "deauthorizeContractInPoints",
      "outputs": [],
      "stateMutability": "nonpayable",
      "type": "function"
    },
    {
      "inputs": [
        {
          "internalType": "address",
          "name": "minter",
          "type": "address"
        }
      ],
      "name": "deauthorizeMinterInBadges",
      "outputs": [],
      "stateMutability": "nonpayable",
      "type": "function"
    },
    {
      "inputs": [],
      "name": "emergencyPause",
      "outputs": [],
      "stateMutability": "nonpayable",
      "type": "function"
    },
    {
      "inputs": [],
      "name": "emergencyUnpause",
      "outputs": [],
      "stateMutability": "nonpayable",
      "type": "function"
    },
    {
      "inputs": [
        {
          "internalType": "address",
          "name": "user",
          "type": "address"
        }
      ],
      "name": "getActivityStreak",
      "outputs": [
        {
          "internalType": "uint256",
          "name": "",
          "type": "uint256"
        }
      ],
      "stateMutability": "view",
      "type": "function"
    },
    {
      "inputs": [],
      "name": "getCategories",
      "outputs": [
        {
          "components": [
            {
              "internalType": "string",
              "name": "name",
              "type": "string"
            },
            {
              "internalType": "string",
              "name": "description",
              "type": "string"
            },
            {
              "internalType": "bool",
              "name": "exists",
              "type": "bool"
            }
          ],
          "internalType": "struct IcebreakerContract.Category[]",
          "name": "",
          "type": "tuple[]"
        }
      ],
      "stateMutability": "view",
      "type": "function"
    },
    {
      "inputs": [],
      "name": "getChainReactionStats",
      "outputs": [
        {
          "internalType": "uint256",
          "name": "totalChallenges",
          "type": "uint256"
        },
        {
          "internalType": "uint256",
          "name": "totalResponses",
          "type": "uint256"
        }
      ],
      "stateMutability": "view",
      "type": "function"
    },
    {
      "inputs": [],
      "name": "getIcebreakerStats",
      "outputs": [
        {
          "internalType": "uint256",
          "name": "totalCategories",
          "type": "uint256"
        },
        {
          "internalType": "uint256",
          "name": "totalPrompts",
          "type": "uint256"
        },
        {
          "internalType": "uint256",
          "name": "totalPolls",
          "type": "uint256"
        }
      ],
      "stateMutability": "view",
      "type": "function"
    },
    {
      "inputs": [
        {
          "internalType": "address",
          "name": "user",
          "type": "address"
        }
      ],
      "name": "getLoginStreak",
      "outputs": [
        {
          "internalType": "uint256",
          "name": "",
          "type": "uint256"
        }
      ],
      "stateMutability": "view",
      "type": "function"
    },
    {
      "inputs": [
        {
          "internalType": "address",
          "name": "user",
          "type": "address"
        }
      ],
      "name": "getPoints",
      "outputs": [
        {
          "internalType": "uint256",
          "name": "",
          "type": "uint256"
        }
      ],
      "stateMutability": "view",
      "type": "function"
    },
    {
      "inputs": [],
      "name": "getRoastMeStats",
      "outputs": [
        {
          "internalType": "uint256",
          "name": "totalRoasts",
          "type": "uint256"
        }
      ],
      "stateMutability": "view",
      "type": "function"
    },
    {
      "inputs": [
        {
          "internalType": "address",
          "name": "user",
          "type": "address"
        }
      ],
      "name": "getUserBadges",
      "outputs": [
        {
          "internalType": "uint256[]",
          "name": "",
          "type": "uint256[]"
        }
      ],
      "stateMutability": "view",
      "type": "function"
    },
    {
      "inputs": [],
      "name": "icebreakerContract",
      "outputs": [
        {
          "internalType": "contract IcebreakerContract",
          "name": "",
          "type": "address"
        }
      ],
      "stateMutability": "view",
      "type": "function"
    },
    {
      "inputs": [
        {
          "internalType": "address",
          "name": "admin",
          "type": "address"
        }
      ],
      "name": "isAuthorizedAdmin",
      "outputs": [
        {
          "internalType": "bool",
          "name": "",
          "type": "bool"
        }
      ],
      "stateMutability": "view",
      "type": "function"
    },
    {
      "inputs": [],
      "name": "owner",
      "outputs": [
        {
          "internalType": "address",
          "name": "",
          "type": "address"
        }
      ],
      "stateMutability": "view",
      "type": "function"
    },
    {
      "inputs": [],
      "name": "pointsContract",
      "outputs": [
        {
          "internalType": "contract VibeCasterPoints",
          "name": "",
          "type": "address"
        }
      ],
      "stateMutability": "view",
      "type": "function"
    },
    {
      "inputs": [],
      "name": "renounceOwnership",
      "outputs": [],
      "stateMutability": "nonpayable",
      "type": "function"
    },
    {
      "inputs": [],
      "name": "roastContract",
      "outputs": [
        {
          "internalType": "contract RoastMeContract",
          "name": "",
          "type": "address"
        }
      ],
      "stateMutability": "view",
      "type": "function"
    },
    {
      "inputs": [
        {
          "internalType": "string",
          "name": "newBaseURI",
          "type": "string"
        }
      ],
      "name": "setBadgeBaseURI",
      "outputs": [],
      "stateMutability": "nonpayable",
      "type": "function"
    },
    {
      "inputs": [
        {
          "internalType": "uint256",
          "name": "_firstActivityRequirement",
          "type": "uint256"
        },
        {
          "internalType": "uint256",
          "name": "_loginStreakRequirement",
          "type": "uint256"
        },
        {
          "internalType": "uint256",
          "name": "_activityStreakRequirement",
          "type": "uint256"
        },
        {
          "internalType": "uint256",
          "name": "_topRoasterRequirement",
          "type": "uint256"
        },
        {
          "internalType": "uint256",
          "name": "_chainMasterRequirement",
          "type": "uint256"
        },
        {
          "internalType": "uint256",
          "name": "_icebreakerRequirement",
          "type": "uint256"
        }
      ],
      "name": "setBadgeRequirements",
      "outputs": [],
      "stateMutability": "nonpayable",
      "type": "function"
    },
    {
      "inputs": [
        {
          "internalType": "string",
          "name": "_firstActivityBadgeURI",
          "type": "string"
        },
        {
          "internalType": "string",
          "name": "_loginStreakBadgeURI",
          "type": "string"
        },
        {
          "internalType": "string",
          "name": "_activityStreakBadgeURI",
          "type": "string"
        },
        {
          "internalType": "string",
          "name": "_topRoasterBadgeURI",
          "type": "string"
        },
        {
          "internalType": "string",
          "name": "_chainMasterBadgeURI",
          "type": "string"
        },
        {
          "internalType": "string",
          "name": "_icebreakerBadgeURI",
          "type": "string"
        }
      ],
      "name": "setBadgeURIs",
      "outputs": [],
      "stateMutability": "nonpayable",
      "type": "function"
    },
    {
      "inputs": [
        {
          "internalType": "address",
          "name": "_pointsContract",
          "type": "address"
        },
        {
          "internalType": "address",
          "name": "_badgesContract",
          "type": "address"
        },
        {
          "internalType": "address",
          "name": "_roastContract",
          "type": "address"
        },
        {
          "internalType": "address",
          "name": "_icebreakerContract",
          "type": "address"
        },
        {
          "internalType": "address",
          "name": "_chainReactionContract",
          "type": "address"
        }
      ],
      "name": "setContracts",
      "outputs": [],
      "stateMutability": "nonpayable",
      "type": "function"
    },
    {
      "inputs": [
        {
          "internalType": "address",
          "name": "newOwner",
          "type": "address"
        }
      ],
      "name": "transferOwnership",
      "outputs": [],
      "stateMutability": "nonpayable",
      "type": "function"
    },
    {
      "inputs": [
        {
          "internalType": "uint256",
          "name": "newPointsPerChallenge",
          "type": "uint256"
        },
        {
          "internalType": "uint256",
          "name": "newPointsPerResponse",
          "type": "uint256"
        }
      ],
      "name": "updateChainReactionPoints",
      "outputs": [],
      "stateMutability": "nonpayable",
      "type": "function"
    },
    {
      "inputs": [
        {
          "internalType": "uint256",
          "name": "newDailyLoginPoints",
          "type": "uint256"
        },
        {
          "internalType": "uint256",
          "name": "newStreakBonusPoints",
          "type": "uint256"
        },
        {
          "internalType": "uint256",
          "name": "newActivityStreakBonus",
          "type": "uint256"
        }
      ],
      "name": "updateDailyLoginPoints",
      "outputs": [],
      "stateMutability": "nonpayable",
      "type": "function"
    },
    {
      "inputs": [
        {
          "internalType": "uint256",
          "name": "newPointsPerPrompt",
          "type": "uint256"
        },
        {
          "internalType": "uint256",
          "name": "newPointsPerResponse",
          "type": "uint256"
        },
        {
          "internalType": "uint256",
          "name": "newPointsPerVote",
          "type": "uint256"
        }
      ],
      "name": "updateIcebreakerPoints",
      "outputs": [],
      "stateMutability": "nonpayable",
      "type": "function"
    },
    {
      "inputs": [
        {
          "internalType": "uint256",
          "name": "newPointsPerRoast",
          "type": "uint256"
        },
        {
          "internalType": "uint256",
          "name": "newPointsPerVote",
          "type": "uint256"
        },
        {
          "internalType": "uint256",
          "name": "newPointsPerFunnyVote",
          "type": "uint256"
        }
      ],
      "name": "updateRoastMePoints",
      "outputs": [],
      "stateMutability": "nonpayable",
      "type": "function"
    }
  ],
  "bytecode": "0x608060405234801561001057600080fd5b50604051613c52380380613c52833981810160405281019061003291906101e2565b80600073ffffffffffffffffffffffffffffffffffffffff168173ffffffffffffffffffffffffffffffffffffffff16036100a55760006040517f1e4fbdf700000000000000000000000000000000000000000000000000000000815260040161009c919061021e565b60405180910390fd5b6100b4816100bb60201b60201c565b5050610239565b60008060009054906101000a900473ffffffffffffffffffffffffffffffffffffffff169050816000806101000a81548173ffffffffffffffffffffffffffffffffffffffff021916908373ffffffffffffffffffffffffffffffffffffffff1602179055508173ffffffffffffffffffffffffffffffffffffffff168173ffffffffffffffffffffffffffffffffffffffff167f8be0079c531659141344cd1fd0a4f28419497f9722a3daafe3b4186f6b6457e060405160405180910390a35050565b600080fd5b600073ffffffffffffffffffffffffffffffffffffffff82169050919050565b60006101af82610184565b9050919050565b6101bf816101a4565b81146101ca57600080fd5b50565b6000815190506101dc816101b6565b92915050565b6000602082840312156101f8576101f761017f565b5b6000610206848285016101cd565b91505092915050565b610218816101a4565b82525050565b6000602082019050610233600083018461020f565b92915050565b613a0a806102486000396000f3fe608060405234801561001057600080fd5b50600436106102115760003560e01c806397d3b9ec11610125578063c10460d8116100ad578063e4bb67521161007c578063e4bb6752146105b7578063e6490665146105d3578063ee204abb146105ef578063f2fde38b1461061f578063f63bf8bd1461063b57610211565b8063c10460d81461051b578063c1d5a0331461054b578063cdf115a014610567578063e3f5f1031461058757610211565b8063b1fcce07116100f4578063b1fcce0714610476578063b821e89914610495578063b8f0f726146104b3578063bac1d901146104cf578063c02bafa2146104ff57610211565b806397d3b9ec1461040257806398046a14146104205780639c7dbf1d1461043c578063b0ab2ec81461045a57610211565b80634db0412c116101a8578063579f60da11610177578063579f60da1461038457806357c72453146103a05780635e3e6da3146103bc578063715018a6146103da5780638da5cb5b146103e457610211565b80634db0412c146103105780634f059dea1461032e5780634f1daf301461034a57806351858e271461037a57610211565b80633cededc6116101e45780633cededc6146102b057806348b6834c146102cc5780634a4e3bd5146102e85780634ceee277146102f257610211565b8063010f726a1461021657806322a12450146102325780632b4f8a1f1461026257806337c245fe14610280575b600080fd5b610230600480360381019061022b9190612677565b610657565b005b61024c60048036038101906102479190612728565b6107f1565b6040516102599190612770565b60405180910390f35b61026a610884565b60405161027791906127ea565b60405180910390f35b61029a60048036038101906102959190612728565b6108aa565b6040516102a791906128c3565b60405180910390f35b6102ca60048036038101906102c59190612728565b610954565b005b6102e660048036038101906102e19190612677565b610aad565b005b6102f0610c47565b005b6102fa610c51565b60405161030791906128f4565b60405180910390f35b610318610ce9565b6040516103259190612ac7565b60405180910390f35b61034860048036038101906103439190612c1e565b610d86565b005b610364600480360381019061035f9190612728565b610edf565b60405161037191906128f4565b60405180910390f35b610382610f84565b005b61039e60048036038101906103999190612728565b610f8e565b005b6103ba60048036038101906103b59190612c67565b6110a3565b005b6103c4611237565b6040516103d19190612d15565b60405180910390f35b6103e261125d565b005b6103ec611271565b6040516103f99190612d3f565b60405180910390f35b61040a61129a565b6040516104179190612d7b565b60405180910390f35b61043a60048036038101906104359190612728565b6112c0565b005b610444611419565b6040516104519190612db7565b60405180910390f35b610474600480360381019061046f9190612728565b61143f565b005b61047e611554565b60405161048c929190612dd2565b60405180910390f35b61049d611681565b6040516104aa9190612e1c565b60405180910390f35b6104cd60048036038101906104c89190612677565b6116a7565b005b6104e960048036038101906104e49190612728565b611841565b6040516104f691906128f4565b60405180910390f35b61051960048036038101906105149190612728565b6118e6565b005b61053560048036038101906105309190612728565b611a3f565b6040516105429190612770565b60405180910390f35b61056560048036038101906105609190612728565b611a5f565b005b61056f611bb8565b60405161057e93929190612e37565b60405180910390f35b6105a1600480360381019061059c9190612e6e565b611d7b565b6040516105ae91906128f4565b60405180910390f35b6105d160048036038101906105cc9190612ee6565b611f2f565b005b6105ed60048036038101906105e89190612f26565b6120c7565b005b61060960048036038101906106049190612728565b61225b565b60405161061691906128f4565b60405180910390f35b61063960048036038101906106349190612728565b612300565b005b6106556004803603810190610650919061305b565b612386565b005b600660003373ffffffffffffffffffffffffffffffffffffffff1673ffffffffffffffffffffffffffffffffffffffff16815260200190815260200160002060009054906101000a900460ff16806106e157506106b2611271565b73ffffffffffffffffffffffffffffffffffffffff163373ffffffffffffffffffffffffffffffffffffffff16145b610720576040517f08c379a000000000000000000000000000000000000000000000000000000000815260040161071790613133565b60405180910390fd5b600460009054906101000a900473ffffffffffffffffffffffffffffffffffffffff1673ffffffffffffffffffffffffffffffffffffffff166372e89f708484846040518463ffffffff1660e01b815260040161077f93929190612e37565b600060405180830381600087803b15801561079957600080fd5b505af11580156107ad573d6000803e3d6000fd5b505050507fd20ca42cde2d93e5262bda1d8fa1a877ba096aaf62615ff152c6001c41a86f948383836040516107e49392919061319f565b60405180910390a1505050565b6000600660008373ffffffffffffffffffffffffffffffffffffffff1673ffffffffffffffffffffffffffffffffffffffff16815260200190815260200160002060009054906101000a900460ff168061087d575061084e611271565b73ffffffffffffffffffffffffffffffffffffffff168273ffffffffffffffffffffffffffffffffffffffff16145b9050919050565b600160009054906101000a900473ffffffffffffffffffffffffffffffffffffffff1681565b6060600260009054906101000a900473ffffffffffffffffffffffffffffffffffffffff1673ffffffffffffffffffffffffffffffffffffffff166303828e45836040518263ffffffff1660e01b81526004016109079190612d3f565b600060405180830381865afa158015610924573d6000803e3d6000fd5b505050506040513d6000823e3d601f19601f8201168201806040525081019061094d91906132c6565b9050919050565b600660003373ffffffffffffffffffffffffffffffffffffffff1673ffffffffffffffffffffffffffffffffffffffff16815260200190815260200160002060009054906101000a900460ff16806109de57506109af611271565b73ffffffffffffffffffffffffffffffffffffffff163373ffffffffffffffffffffffffffffffffffffffff16145b610a1d576040517f08c379a0000000000000000000000000000000000000000000000000000000008152600401610a1490613133565b60405180910390fd5b600260009054906101000a900473ffffffffffffffffffffffffffffffffffffffff1673ffffffffffffffffffffffffffffffffffffffff1663c6f69fbb826040518263ffffffff1660e01b8152600401610a789190612d3f565b600060405180830381600087803b158015610a9257600080fd5b505af1158015610aa6573d6000803e3d6000fd5b5050505050565b600660003373ffffffffffffffffffffffffffffffffffffffff1673ffffffffffffffffffffffffffffffffffffffff16815260200190815260200160002060009054906101000a900460ff1680610b375750610b08611271565b73ffffffffffffffffffffffffffffffffffffffff163373ffffffffffffffffffffffffffffffffffffffff16145b610b76576040517f08c379a0000000000000000000000000000000000000000000000000000000008152600401610b6d90613133565b60405180910390fd5b600160009054906101000a900473ffffffffffffffffffffffffffffffffffffffff1673ffffffffffffffffffffffffffffffffffffffff1663edbe92188484846040518463ffffffff1660e01b8152600401610bd593929190612e37565b600060405180830381600087803b158015610bef57600080fd5b505af1158015610c03573d6000803e3d6000fd5b505050507fd20ca42cde2d93e5262bda1d8fa1a877ba096aaf62615ff152c6001c41a86f94838383604051610c3a9392919061335b565b60405180910390a1505050565b610c4f6124da565b565b6000600360009054906101000a900473ffffffffffffffffffffffffffffffffffffffff1673ffffffffffffffffffffffffffffffffffffffff1663e369a23d6040518163ffffffff1660e01b8152600401602060405180830381865afa158015610cc0573d6000803e3d6000fd5b505050506040513d601f19601f82011682018060405250810190610ce491906133a5565b905090565b6060600460009054906101000a900473ffffffffffffffffffffffffffffffffffffffff1673ffffffffffffffffffffffffffffffffffffffff16634db0412c6040518163ffffffff1660e01b8152600401600060405180830381865afa158015610d58573d6000803e3d6000fd5b505050506040513d6000823e3d601f19601f82011682018060405250810190610d8191906135f5565b905090565b600660003373ffffffffffffffffffffffffffffffffffffffff1673ffffffffffffffffffffffffffffffffffffffff16815260200190815260200160002060009054906101000a900460ff1680610e105750610de1611271565b73ffffffffffffffffffffffffffffffffffffffff163373ffffffffffffffffffffffffffffffffffffffff16145b610e4f576040517f08c379a0000000000000000000000000000000000000000000000000000000008152600401610e4690613133565b60405180910390fd5b600260009054906101000a900473ffffffffffffffffffffffffffffffffffffffff1673ffffffffffffffffffffffffffffffffffffffff166355f804b3826040518263ffffffff1660e01b8152600401610eaa9190613677565b600060405180830381600087803b158015610ec457600080fd5b505af1158015610ed8573d6000803e3d6000fd5b5050505050565b6000600160009054906101000a900473ffffffffffffffffffffffffffffffffffffffff1673ffffffffffffffffffffffffffffffffffffffff16634f1daf30836040518263ffffffff1660e01b8152600401610f3c9190612d3f565b602060405180830381865afa158015610f59573d6000803e3d6000fd5b505050506040513d601f19601f82011682018060405250810190610f7d91906133a5565b9050919050565b610f8c6124da565b565b610f966124da565b600073ffffffffffffffffffffffffffffffffffffffff168173ffffffffffffffffffffffffffffffffffffffff1603611005576040517f08c379a0000000000000000000000000000000000000000000000000000000008152600401610ffc906136e5565b60405180910390fd5b6001600660008373ffffffffffffffffffffffffffffffffffffffff1673ffffffffffffffffffffffffffffffffffffffff16815260200190815260200160002060006101000a81548160ff0219169083151502179055508073ffffffffffffffffffffffffffffffffffffffff167f5481d9ad8ae9261381727027aa19258cb29ffe58222eb81a23cc590c870ff2f460405160405180910390a250565b600660003373ffffffffffffffffffffffffffffffffffffffff1673ffffffffffffffffffffffffffffffffffffffff16815260200190815260200160002060009054906101000a900460ff168061112d57506110fe611271565b73ffffffffffffffffffffffffffffffffffffffff163373ffffffffffffffffffffffffffffffffffffffff16145b61116c576040517f08c379a000000000000000000000000000000000000000000000000000000000815260040161116390613133565b60405180910390fd5b600260009054906101000a900473ffffffffffffffffffffffffffffffffffffffff1673ffffffffffffffffffffffffffffffffffffffff166357c724538787878787876040518763ffffffff1660e01b81526004016111d196959493929190613705565b600060405180830381600087803b1580156111eb57600080fd5b505af11580156111ff573d6000803e3d6000fd5b505050507fea404f680df68bc94c6765a78600d90c31a6ad23138352391ae5429ddb96d96560405160405180910390a1505050505050565b600560009054906101000a900473ffffffffffffffffffffffffffffffffffffffff1681565b6112656124da565b61126f6000612561565b565b60008060009054906101000a900473ffffffffffffffffffffffffffffffffffffffff16905090565b600260009054906101000a900473ffffffffffffffffffffffffffffffffffffffff1681565b600660003373ffffffffffffffffffffffffffffffffffffffff1673ffffffffffffffffffffffffffffffffffffffff16815260200190815260200160002060009054906101000a900460ff168061134a575061131b611271565b73ffffffffffffffffffffffffffffffffffffffff163373ffffffffffffffffffffffffffffffffffffffff16145b611389576040517f08c379a000000000000000000000000000000000000000000000000000000000815260040161138090613133565b60405180910390fd5b600260009054906101000a900473ffffffffffffffffffffffffffffffffffffffff1673ffffffffffffffffffffffffffffffffffffffff16630c984832826040518263ffffffff1660e01b81526004016113e49190612d3f565b600060405180830381600087803b1580156113fe57600080fd5b505af1158015611412573d6000803e3d6000fd5b5050505050565b600460009054906101000a900473ffffffffffffffffffffffffffffffffffffffff1681565b6114476124da565b600073ffffffffffffffffffffffffffffffffffffffff168173ffffffffffffffffffffffffffffffffffffffff16036114b6576040517f08c379a00000000000000000000000000000000000000000000000000000000081526004016114ad906136e5565b60405180910390fd5b6000600660008373ffffffffffffffffffffffffffffffffffffffff1673ffffffffffffffffffffffffffffffffffffffff16815260200190815260200160002060006101000a81548160ff0219169083151502179055508073ffffffffffffffffffffffffffffffffffffffff167f1d249488f7749783fc3511b518bf9f54605ce921f1b82ad97d877447490de68260405160405180910390a250565b600080600560009054906101000a900473ffffffffffffffffffffffffffffffffffffffff1673ffffffffffffffffffffffffffffffffffffffff1663d17defcb6040518163ffffffff1660e01b8152600401602060405180830381865afa1580156115c4573d6000803e3d6000fd5b505050506040513d601f19601f820116820180604052508101906115e891906133a5565b600560009054906101000a900473ffffffffffffffffffffffffffffffffffffffff1673ffffffffffffffffffffffffffffffffffffffff16635a5619de6040518163ffffffff1660e01b8152600401602060405180830381865afa158015611655573d6000803e3d6000fd5b505050506040513d601f19601f8201168201806040525081019061167991906133a5565b915091509091565b600360009054906101000a900473ffffffffffffffffffffffffffffffffffffffff1681565b600660003373ffffffffffffffffffffffffffffffffffffffff1673ffffffffffffffffffffffffffffffffffffffff16815260200190815260200160002060009054906101000a900460ff16806117315750611702611271565b73ffffffffffffffffffffffffffffffffffffffff163373ffffffffffffffffffffffffffffffffffffffff16145b611770576040517f08c379a000000000000000000000000000000000000000000000000000000000815260040161176790613133565b60405180910390fd5b600360009054906101000a900473ffffffffffffffffffffffffffffffffffffffff1673ffffffffffffffffffffffffffffffffffffffff166372e89f708484846040518463ffffffff1660e01b81526004016117cf93929190612e37565b600060405180830381600087803b1580156117e957600080fd5b505af11580156117fd573d6000803e3d6000fd5b505050507fd20ca42cde2d93e5262bda1d8fa1a877ba096aaf62615ff152c6001c41a86f94838383604051611834939291906137b2565b60405180910390a1505050565b6000600160009054906101000a900473ffffffffffffffffffffffffffffffffffffffff1673ffffffffffffffffffffffffffffffffffffffff1663bac1d901836040518263ffffffff1660e01b815260040161189e9190612d3f565b602060405180830381865afa1580156118bb573d6000803e3d6000fd5b505050506040513d601f19601f820116820180604052508101906118df91906133a5565b9050919050565b600660003373ffffffffffffffffffffffffffffffffffffffff1673ffffffffffffffffffffffffffffffffffffffff16815260200190815260200160002060009054906101000a900460ff16806119705750611941611271565b73ffffffffffffffffffffffffffffffffffffffff163373ffffffffffffffffffffffffffffffffffffffff16145b6119af576040517f08c379a00000000000000000000000000000000000000000000000000000000081526004016119a690613133565b60405180910390fd5b600160009054906101000a900473ffffffffffffffffffffffffffffffffffffffff1673ffffffffffffffffffffffffffffffffffffffff16636e861c0e826040518263ffffffff1660e01b8152600401611a0a9190612d3f565b600060405180830381600087803b158015611a2457600080fd5b505af1158015611a38573d6000803e3d6000fd5b5050505050565b60066020528060005260406000206000915054906101000a900460ff1681565b600660003373ffffffffffffffffffffffffffffffffffffffff1673ffffffffffffffffffffffffffffffffffffffff16815260200190815260200160002060009054906101000a900460ff1680611ae95750611aba611271565b73ffffffffffffffffffffffffffffffffffffffff163373ffffffffffffffffffffffffffffffffffffffff16145b611b28576040517f08c379a0000000000000000000000000000000000000000000000000000000008152600401611b1f90613133565b60405180910390fd5b600160009054906101000a900473ffffffffffffffffffffffffffffffffffffffff1673ffffffffffffffffffffffffffffffffffffffff166367561d93826040518263ffffffff1660e01b8152600401611b839190612d3f565b600060405180830381600087803b158015611b9d57600080fd5b505af1158015611bb1573d6000803e3d6000fd5b5050505050565b6000806000600460009054906101000a900473ffffffffffffffffffffffffffffffffffffffff1673ffffffffffffffffffffffffffffffffffffffff166339275b0a6040518163ffffffff1660e01b8152600401602060405180830381865afa158015611c2a573d6000803e3d6000fd5b505050506040513d601f19601f82011682018060405250810190611c4e91906133a5565b600460009054906101000a900473ffffffffffffffffffffffffffffffffffffffff1673ffffffffffffffffffffffffffffffffffffffff16638106da606040518163ffffffff1660e01b8152600401602060405180830381865afa158015611cbb573d6000803e3d6000fd5b505050506040513d601f19601f82011682018060405250810190611cdf91906133a5565b600460009054906101000a900473ffffffffffffffffffffffffffffffffffffffff1673ffffffffffffffffffffffffffffffffffffffff1663a2eeeb2f6040518163ffffffff1660e01b8152600401602060405180830381865afa158015611d4c573d6000803e3d6000fd5b505050506040513d601f19601f82011682018060405250810190611d7091906133a5565b925092509250909192565b6000600660003373ffffffffffffffffffffffffffffffffffffffff1673ffffffffffffffffffffffffffffffffffffffff16815260200190815260200160002060009054906101000a900460ff1680611e075750611dd8611271565b73ffffffffffffffffffffffffffffffffffffffff163373ffffffffffffffffffffffffffffffffffffffff16145b611e46576040517f08c379a0000000000000000000000000000000000000000000000000000000008152600401611e3d90613133565b60405180910390fd5b6000600460009054906101000a900473ffffffffffffffffffffffffffffffffffffffff1673ffffffffffffffffffffffffffffffffffffffff1663b224b4e985856040518363ffffffff1660e01b8152600401611ea59291906137fc565b6020604051808303816000875af1158015611ec4573d6000803e3d6000fd5b505050506040513d601f19601f82011682018060405250810190611ee891906133a5565b90507f22c31dca291d7f417aeb56deed394f40bc020be39668f3b25e7c0414c21526df818585604051611f1d93929190613833565b60405180910390a18091505092915050565b600660003373ffffffffffffffffffffffffffffffffffffffff1673ffffffffffffffffffffffffffffffffffffffff16815260200190815260200160002060009054906101000a900460ff1680611fb95750611f8a611271565b73ffffffffffffffffffffffffffffffffffffffff163373ffffffffffffffffffffffffffffffffffffffff16145b611ff8576040517f08c379a0000000000000000000000000000000000000000000000000000000008152600401611fef90613133565b60405180910390fd5b600560009054906101000a900473ffffffffffffffffffffffffffffffffffffffff1673ffffffffffffffffffffffffffffffffffffffff166309d145ea83836040518363ffffffff1660e01b8152600401612055929190612dd2565b600060405180830381600087803b15801561206f57600080fd5b505af1158015612083573d6000803e3d6000fd5b505050507fd20ca42cde2d93e5262bda1d8fa1a877ba096aaf62615ff152c6001c41a86f94828260006040516120bb939291906138ff565b60405180910390a15050565b600660003373ffffffffffffffffffffffffffffffffffffffff1673ffffffffffffffffffffffffffffffffffffffff16815260200190815260200160002060009054906101000a900460ff16806121515750612122611271565b73ffffffffffffffffffffffffffffffffffffffff163373ffffffffffffffffffffffffffffffffffffffff16145b612190576040517f08c379a000000000000000000000000000000000000000000000000000000000815260040161218790613133565b60405180910390fd5b600260009054906101000a900473ffffffffffffffffffffffffffffffffffffffff1673ffffffffffffffffffffffffffffffffffffffff1663e64906658787878787876040518763ffffffff1660e01b81526004016121f596959493929190613949565b600060405180830381600087803b15801561220f57600080fd5b505af1158015612223573d6000803e3d6000fd5b505050507f046a1b738fda1f983d3ce5d82ced41b1aa42c557ff1162722cbff99818066ad360405160405180910390a1505050505050565b6000600160009054906101000a900473ffffffffffffffffffffffffffffffffffffffff1673ffffffffffffffffffffffffffffffffffffffff1663ee204abb836040518263ffffffff1660e01b81526004016122b89190612d3f565b602060405180830381865afa1580156122d5573d6000803e3d6000fd5b505050506040513d601f19601f820116820180604052508101906122f991906133a5565b9050919050565b6123086124da565b600073ffffffffffffffffffffffffffffffffffffffff168173ffffffffffffffffffffffffffffffffffffffff160361237a5760006040517f1e4fbdf70000000000000000000000000000000000000000000000000000000081526004016123719190612d3f565b60405180910390fd5b61238381612561565b50565b61238e6124da565b84600160006101000a81548173ffffffffffffffffffffffffffffffffffffffff021916908373ffffffffffffffffffffffffffffffffffffffff16021790555083600260006101000a81548173ffffffffffffffffffffffffffffffffffffffff021916908373ffffffffffffffffffffffffffffffffffffffff16021790555082600360006101000a81548173ffffffffffffffffffffffffffffffffffffffff021916908373ffffffffffffffffffffffffffffffffffffffff16021790555081600460006101000a81548173ffffffffffffffffffffffffffffffffffffffff021916908373ffffffffffffffffffffffffffffffffffffffff16021790555080600560006101000a81548173ffffffffffffffffffffffffffffffffffffffff021916908373ffffffffffffffffffffffffffffffffffffffff1602179055505050505050565b6124e2612625565b73ffffffffffffffffffffffffffffffffffffffff16612500611271565b73ffffffffffffffffffffffffffffffffffffffff161461255f57612523612625565b6040517f118cdaa70000000000000000000000000000000000000000000000000000000081526004016125569190612d3f565b60405180910390fd5b565b60008060009054906101000a900473ffffffffffffffffffffffffffffffffffffffff169050816000806101000a81548173ffffffffffffffffffffffffffffffffffffffff021916908373ffffffffffffffffffffffffffffffffffffffff1602179055508173ffffffffffffffffffffffffffffffffffffffff168173ffffffffffffffffffffffffffffffffffffffff167f8be0079c531659141344cd1fd0a4f28419497f9722a3daafe3b4186f6b6457e060405160405180910390a35050565b600033905090565b6000604051905090565b600080fd5b600080fd5b6000819050919050565b61265481612641565b811461265f57600080fd5b50565b6000813590506126718161264b565b92915050565b6000806000606084860312156126905761268f612637565b5b600061269e86828701612662565b93505060206126af86828701612662565b92505060406126c086828701612662565b9150509250925092565b600073ffffffffffffffffffffffffffffffffffffffff82169050919050565b60006126f5826126ca565b9050919050565b612705816126ea565b811461271057600080fd5b50565b600081359050612722816126fc565b92915050565b60006020828403121561273e5761273d612637565b5b600061274c84828501612713565b91505092915050565b60008115159050919050565b61276a81612755565b82525050565b60006020820190506127856000830184612761565b92915050565b6000819050919050565b60006127b06127ab6127a6846126ca565b61278b565b6126ca565b9050919050565b60006127c282612795565b9050919050565b60006127d4826127b7565b9050919050565b6127e4816127c9565b82525050565b60006020820190506127ff60008301846127db565b92915050565b600081519050919050565b600082825260208201905092915050565b6000819050602082019050919050565b61283a81612641565b82525050565b600061284c8383612831565b60208301905092915050565b6000602082019050919050565b600061287082612805565b61287a8185612810565b935061288583612821565b8060005b838110156128b657815161289d8882612840565b97506128a883612858565b925050600181019050612889565b5085935050505092915050565b600060208201905081810360008301526128dd8184612865565b905092915050565b6128ee81612641565b82525050565b600060208201905061290960008301846128e5565b92915050565b600081519050919050565b600082825260208201905092915050565b6000819050602082019050919050565b600081519050919050565b600082825260208201905092915050565b60005b8381101561297557808201518184015260208101905061295a565b60008484015250505050565b6000601f19601f8301169050919050565b600061299d8261293b565b6129a78185612946565b93506129b7818560208601612957565b6129c081612981565b840191505092915050565b6129d481612755565b82525050565b600060608301600083015184820360008601526129f78282612992565b91505060208301518482036020860152612a118282612992565b9150506040830151612a2660408601826129cb565b508091505092915050565b6000612a3d83836129da565b905092915050565b6000602082019050919050565b6000612a5d8261290f565b612a67818561291a565b935083602082028501612a798561292b565b8060005b85811015612ab55784840389528151612a968582612a31565b9450612aa183612a45565b925060208a01995050600181019050612a7d565b50829750879550505050505092915050565b60006020820190508181036000830152612ae18184612a52565b905092915050565b600080fd5b600080fd5b7f4e487b7100000000000000000000000000000000000000000000000000000000600052604160045260246000fd5b612b2b82612981565b810181811067ffffffffffffffff82111715612b4a57612b49612af3565b5b80604052505050565b6000612b5d61262d565b9050612b698282612b22565b919050565b600067ffffffffffffffff821115612b8957612b88612af3565b5b612b9282612981565b9050602081019050919050565b82818337600083830152505050565b6000612bc1612bbc84612b6e565b612b53565b905082815260208101848484011115612bdd57612bdc612aee565b5b612be8848285612b9f565b509392505050565b600082601f830112612c0557612c04612ae9565b5b8135612c15848260208601612bae565b91505092915050565b600060208284031215612c3457612c33612637565b5b600082013567ffffffffffffffff811115612c5257612c5161263c565b5b612c5e84828501612bf0565b91505092915050565b60008060008060008060c08789031215612c8457612c83612637565b5b6000612c9289828a01612662565b9650506020612ca389828a01612662565b9550506040612cb489828a01612662565b9450506060612cc589828a01612662565b9350506080612cd689828a01612662565b92505060a0612ce789828a01612662565b9150509295509295509295565b6000612cff826127b7565b9050919050565b612d0f81612cf4565b82525050565b6000602082019050612d2a6000830184612d06565b92915050565b612d39816126ea565b82525050565b6000602082019050612d546000830184612d30565b92915050565b6000612d65826127b7565b9050919050565b612d7581612d5a565b82525050565b6000602082019050612d906000830184612d6c565b92915050565b6000612da1826127b7565b9050919050565b612db181612d96565b82525050565b6000602082019050612dcc6000830184612da8565b92915050565b6000604082019050612de760008301856128e5565b612df460208301846128e5565b9392505050565b6000612e06826127b7565b9050919050565b612e1681612dfb565b82525050565b6000602082019050612e316000830184612e0d565b92915050565b6000606082019050612e4c60008301866128e5565b612e5960208301856128e5565b612e6660408301846128e5565b949350505050565b60008060408385031215612e8557612e84612637565b5b600083013567ffffffffffffffff811115612ea357612ea261263c565b5b612eaf85828601612bf0565b925050602083013567ffffffffffffffff811115612ed057612ecf61263c565b5b612edc85828601612bf0565b9150509250929050565b60008060408385031215612efd57612efc612637565b5b6000612f0b85828601612662565b9250506020612f1c85828601612662565b9150509250929050565b60008060008060008060c08789031215612f4357612f42612637565b5b600087013567ffffffffffffffff811115612f6157612f6061263c565b5b612f6d89828a01612bf0565b965050602087013567ffffffffffffffff811115612f8e57612f8d61263c565b5b612f9a89828a01612bf0565b955050604087013567ffffffffffffffff811115612fbb57612fba61263c565b5b612fc789828a01612bf0565b945050606087013567ffffffffffffffff811115612fe857612fe761263c565b5b612ff489828a01612bf0565b935050608087013567ffffffffffffffff8111156130155761301461263c565b5b61302189828a01612bf0565b92505060a087013567ffffffffffffffff8111156130425761304161263c565b5b61304e89828a01612bf0565b9150509295509295509295565b600080600080600060a0868803121561307757613076612637565b5b600061308588828901612713565b955050602061309688828901612713565b94505060406130a788828901612713565b93505060606130b888828901612713565b92505060806130c988828901612713565b9150509295509295909350565b600082825260208201905092915050565b7f4e6f7420617574686f72697a6564000000000000000000000000000000000000600082015250565b600061311d600e836130d6565b9150613128826130e7565b602082019050919050565b6000602082019050818103600083015261314c81613110565b9050919050565b7f496365627265616b657200000000000000000000000000000000000000000000600082015250565b6000613189600a836130d6565b915061319482613153565b602082019050919050565b600060808201905081810360008301526131b88161317c565b90506131c760208301866128e5565b6131d460408301856128e5565b6131e160608301846128e5565b949350505050565b600067ffffffffffffffff82111561320457613203612af3565b5b602082029050602081019050919050565b600080fd5b6000815190506132298161264b565b92915050565b600061324261323d846131e9565b612b53565b9050808382526020820190506020840283018581111561326557613264613215565b5b835b8181101561328e578061327a888261321a565b845260208401935050602081019050613267565b5050509392505050565b600082601f8301126132ad576132ac612ae9565b5b81516132bd84826020860161322f565b91505092915050565b6000602082840312156132dc576132db612637565b5b600082015167ffffffffffffffff8111156132fa576132f961263c565b5b61330684828501613298565b91505092915050565b7f4461696c794c6f67696e00000000000000000000000000000000000000000000600082015250565b6000613345600a836130d6565b91506133508261330f565b602082019050919050565b6000608082019050818103600083015261337481613338565b905061338360208301866128e5565b61339060408301856128e5565b61339d60608301846128e5565b949350505050565b6000602082840312156133bb576133ba612637565b5b60006133c98482850161321a565b91505092915050565b600067ffffffffffffffff8211156133ed576133ec612af3565b5b602082029050602081019050919050565b600080fd5b600080fd5b600061341b61341684612b6e565b612b53565b90508281526020810184848401111561343757613436612aee565b5b613442848285612957565b509392505050565b600082601f83011261345f5761345e612ae9565b5b815161346f848260208601613408565b91505092915050565b61348181612755565b811461348c57600080fd5b50565b60008151905061349e81613478565b92915050565b6000606082840312156134ba576134b96133fe565b5b6134c46060612b53565b9050600082015167ffffffffffffffff8111156134e4576134e3613403565b5b6134f08482850161344a565b600083015250602082015167ffffffffffffffff81111561351457613513613403565b5b6135208482850161344a565b60208301525060406135348482850161348f565b60408301525092915050565b600061355361354e846133d2565b612b53565b9050808382526020820190506020840283018581111561357657613575613215565b5b835b818110156135bd57805167ffffffffffffffff81111561359b5761359a612ae9565b5b8086016135a889826134a4565b85526020850194505050602081019050613578565b5050509392505050565b600082601f8301126135dc576135db612ae9565b5b81516135ec848260208601613540565b91505092915050565b60006020828403121561360b5761360a612637565b5b600082015167ffffffffffffffff8111156136295761362861263c565b5b613635848285016135c7565b91505092915050565b60006136498261293b565b61365381856130d6565b9350613663818560208601612957565b61366c81612981565b840191505092915050565b60006020820190508181036000830152613691818461363e565b905092915050565b7f496e76616c69642061646d696e20616464726573730000000000000000000000600082015250565b60006136cf6015836130d6565b91506136da82613699565b602082019050919050565b600060208201905081810360008301526136fe816136c2565b9050919050565b600060c08201905061371a60008301896128e5565b61372760208301886128e5565b61373460408301876128e5565b61374160608301866128e5565b61374e60808301856128e5565b61375b60a08301846128e5565b979650505050505050565b7f526f6173744d6500000000000000000000000000000000000000000000000000600082015250565b600061379c6007836130d6565b91506137a782613766565b602082019050919050565b600060808201905081810360008301526137cb8161378f565b90506137da60208301866128e5565b6137e760408301856128e5565b6137f460608301846128e5565b949350505050565b60006040820190508181036000830152613816818561363e565b9050818103602083015261382a818461363e565b90509392505050565b600060608201905061384860008301866128e5565b818103602083015261385a818561363e565b9050818103604083015261386e818461363e565b9050949350505050565b7f436861696e5265616374696f6e00000000000000000000000000000000000000600082015250565b60006138ae600d836130d6565b91506138b982613878565b602082019050919050565b6000819050919050565b60006138e96138e46138df846138c4565b61278b565b612641565b9050919050565b6138f9816138ce565b82525050565b60006080820190508181036000830152613918816138a1565b905061392760208301866128e5565b61393460408301856128e5565b61394160608301846138f0565b949350505050565b600060c0820190508181036000830152613963818961363e565b90508181036020830152613977818861363e565b9050818103604083015261398b818761363e565b9050818103606083015261399f818661363e565b905081810360808301526139b3818561363e565b905081810360a08301526139c7818461363e565b905097965050505050505056fea2646970667358221220c0a71eeba7b4f44a9b8c3644d0db17a03f11c253b09b11143d58f688695fe4ce64736f6c634300081a0033",
  "linkReferences": {},
  "deployedLinkReferences": {}
}