{
  "_format": "hh-sol-artifact-1",
  "contractName": "VhibesPoints",
  "sourceName": "contracts/VhibesPoints.sol",
  "abi": [
    {
      "inputs": [
        {
          "internalType": "address",
          "name": "admin",
          "type": "address"
        }
      ],
      "stateMutability": "nonpayable",
      "type": "constructor"
    },
    {
      "inputs": [
        {
          "internalType": "address",
          "name": "owner",
          "type": "address"
        }
      ],
      "name": "OwnableInvalidOwner",
      "type": "error"
    },
    {
      "inputs": [
        {
          "internalType": "address",
          "name": "account",
          "type": "address"
        }
      ],
      "name": "OwnableUnauthorizedAccount",
      "type": "error"
    },
    {
      "anonymous": false,
      "inputs": [
        {
          "indexed": true,
          "internalType": "address",
          "name": "user",
          "type": "address"
        },
        {
          "indexed": false,
          "internalType": "uint256",
          "name": "streak",
          "type": "uint256"
        },
        {
          "indexed": false,
          "internalType": "uint256",
          "name": "bonusPoints",
          "type": "uint256"
        }
      ],
      "name": "ActivityStreak",
      "type": "event"
    },
    {
      "anonymous": false,
      "inputs": [
        {
          "indexed": true,
          "internalType": "address",
          "name": "contractAddress",
          "type": "address"
        }
      ],
      "name": "ContractAuthorized",
      "type": "event"
    },
    {
      "anonymous": false,
      "inputs": [
        {
          "indexed": true,
          "internalType": "address",
          "name": "contractAddress",
          "type": "address"
        }
      ],
      "name": "ContractDeauthorized",
      "type": "event"
    },
    {
      "anonymous": false,
      "inputs": [
        {
          "indexed": true,
          "internalType": "address",
          "name": "user",
          "type": "address"
        },
        {
          "indexed": false,
          "internalType": "uint256",
          "name": "points",
          "type": "uint256"
        },
        {
          "indexed": false,
          "internalType": "uint256",
          "name": "streak",
          "type": "uint256"
        }
      ],
      "name": "DailyLogin",
      "type": "event"
    },
    {
      "anonymous": false,
      "inputs": [
        {
          "indexed": true,
          "internalType": "address",
          "name": "previousOwner",
          "type": "address"
        },
        {
          "indexed": true,
          "internalType": "address",
          "name": "newOwner",
          "type": "address"
        }
      ],
      "name": "OwnershipTransferred",
      "type": "event"
    },
    {
      "anonymous": false,
      "inputs": [
        {
          "indexed": true,
          "internalType": "address",
          "name": "user",
          "type": "address"
        },
        {
          "indexed": false,
          "internalType": "uint256",
          "name": "amount",
          "type": "uint256"
        },
        {
          "indexed": false,
          "internalType": "string",
          "name": "reason",
          "type": "string"
        }
      ],
      "name": "PointsAwarded",
      "type": "event"
    },
    {
      "anonymous": false,
      "inputs": [
        {
          "indexed": true,
          "internalType": "address",
          "name": "user",
          "type": "address"
        },
        {
          "indexed": false,
          "internalType": "uint256",
          "name": "amount",
          "type": "uint256"
        },
        {
          "indexed": false,
          "internalType": "string",
          "name": "reason",
          "type": "string"
        }
      ],
      "name": "PointsDeducted",
      "type": "event"
    },
    {
      "inputs": [
        {
          "internalType": "address",
          "name": "",
          "type": "address"
        }
      ],
      "name": "activityStreak",
      "outputs": [
        {
          "internalType": "uint256",
          "name": "",
          "type": "uint256"
        }
      ],
      "stateMutability": "view",
      "type": "function"
    },
    {
      "inputs": [],
      "name": "activityStreakBonus",
      "outputs": [
        {
          "internalType": "uint256",
          "name": "",
          "type": "uint256"
        }
      ],
      "stateMutability": "view",
      "type": "function"
    },
    {
      "inputs": [
        {
          "internalType": "address",
          "name": "contractAddress",
          "type": "address"
        }
      ],
      "name": "authorizeContract",
      "outputs": [],
      "stateMutability": "nonpayable",
      "type": "function"
    },
    {
      "inputs": [
        {
          "internalType": "address",
          "name": "",
          "type": "address"
        }
      ],
      "name": "authorizedContracts",
      "outputs": [
        {
          "internalType": "bool",
          "name": "",
          "type": "bool"
        }
      ],
      "stateMutability": "view",
      "type": "function"
    },
    {
      "inputs": [],
      "name": "dailyLogin",
      "outputs": [],
      "stateMutability": "nonpayable",
      "type": "function"
    },
    {
      "inputs": [],
      "name": "dailyLoginPoints",
      "outputs": [
        {
          "internalType": "uint256",
          "name": "",
          "type": "uint256"
        }
      ],
      "stateMutability": "view",
      "type": "function"
    },
    {
      "inputs": [
        {
          "internalType": "address",
          "name": "contractAddress",
          "type": "address"
        }
      ],
      "name": "deauthorizeContract",
      "outputs": [],
      "stateMutability": "nonpayable",
      "type": "function"
    },
    {
      "inputs": [
        {
          "internalType": "address",
          "name": "user",
          "type": "address"
        },
        {
          "internalType": "uint256",
          "name": "amount",
          "type": "uint256"
        },
        {
          "internalType": "string",
          "name": "reason",
          "type": "string"
        }
      ],
      "name": "deductPoints",
      "outputs": [],
      "stateMutability": "nonpayable",
      "type": "function"
    },
    {
      "inputs": [
        {
          "internalType": "address",
          "name": "user",
          "type": "address"
        },
        {
          "internalType": "uint256",
          "name": "amount",
          "type": "uint256"
        },
        {
          "internalType": "string",
          "name": "reason",
          "type": "string"
        }
      ],
      "name": "earnPoints",
      "outputs": [],
      "stateMutability": "nonpayable",
      "type": "function"
    },
    {
      "inputs": [
        {
          "internalType": "address",
          "name": "user",
          "type": "address"
        }
      ],
      "name": "getActivityStreak",
      "outputs": [
        {
          "internalType": "uint256",
          "name": "",
          "type": "uint256"
        }
      ],
      "stateMutability": "view",
      "type": "function"
    },
    {
      "inputs": [
        {
          "internalType": "address",
          "name": "user",
          "type": "address"
        }
      ],
      "name": "getLastActivity",
      "outputs": [
        {
          "internalType": "uint256",
          "name": "",
          "type": "uint256"
        }
      ],
      "stateMutability": "view",
      "type": "function"
    },
    {
      "inputs": [
        {
          "internalType": "address",
          "name": "user",
          "type": "address"
        }
      ],
      "name": "getLastLogin",
      "outputs": [
        {
          "internalType": "uint256",
          "name": "",
          "type": "uint256"
        }
      ],
      "stateMutability": "view",
      "type": "function"
    },
    {
      "inputs": [
        {
          "internalType": "uint256",
          "name": "startIndex",
          "type": "uint256"
        },
        {
          "internalType": "uint256",
          "name": "endIndex",
          "type": "uint256"
        }
      ],
      "name": "getLeaderboard",
      "outputs": [
        {
          "internalType": "address[]",
          "name": "",
          "type": "address[]"
        },
        {
          "internalType": "uint256[]",
          "name": "",
          "type": "uint256[]"
        }
      ],
      "stateMutability": "view",
      "type": "function"
    },
    {
      "inputs": [
        {
          "internalType": "address",
          "name": "user",
          "type": "address"
        }
      ],
      "name": "getLoginStreak",
      "outputs": [
        {
          "internalType": "uint256",
          "name": "",
          "type": "uint256"
        }
      ],
      "stateMutability": "view",
      "type": "function"
    },
    {
      "inputs": [
        {
          "internalType": "address",
          "name": "user",
          "type": "address"
        }
      ],
      "name": "getPoints",
      "outputs": [
        {
          "internalType": "uint256",
          "name": "",
          "type": "uint256"
        }
      ],
      "stateMutability": "view",
      "type": "function"
    },
    {
      "inputs": [
        {
          "internalType": "address",
          "name": "contractAddress",
          "type": "address"
        }
      ],
      "name": "isAuthorized",
      "outputs": [
        {
          "internalType": "bool",
          "name": "",
          "type": "bool"
        }
      ],
      "stateMutability": "view",
      "type": "function"
    },
    {
      "inputs": [
        {
          "internalType": "address",
          "name": "",
          "type": "address"
        }
      ],
      "name": "lastActivityTimestamp",
      "outputs": [
        {
          "internalType": "uint256",
          "name": "",
          "type": "uint256"
        }
      ],
      "stateMutability": "view",
      "type": "function"
    },
    {
      "inputs": [
        {
          "internalType": "address",
          "name": "",
          "type": "address"
        }
      ],
      "name": "lastLoginTimestamp",
      "outputs": [
        {
          "internalType": "uint256",
          "name": "",
          "type": "uint256"
        }
      ],
      "stateMutability": "view",
      "type": "function"
    },
    {
      "inputs": [
        {
          "internalType": "address",
          "name": "",
          "type": "address"
        }
      ],
      "name": "loginStreak",
      "outputs": [
        {
          "internalType": "uint256",
          "name": "",
          "type": "uint256"
        }
      ],
      "stateMutability": "view",
      "type": "function"
    },
    {
      "inputs": [],
      "name": "owner",
      "outputs": [
        {
          "internalType": "address",
          "name": "",
          "type": "address"
        }
      ],
      "stateMutability": "view",
      "type": "function"
    },
    {
      "inputs": [],
      "name": "recordActivity",
      "outputs": [],
      "stateMutability": "nonpayable",
      "type": "function"
    },
    {
      "inputs": [],
      "name": "renounceOwnership",
      "outputs": [],
      "stateMutability": "nonpayable",
      "type": "function"
    },
    {
      "inputs": [],
      "name": "streakBonusPoints",
      "outputs": [
        {
          "internalType": "uint256",
          "name": "",
          "type": "uint256"
        }
      ],
      "stateMutability": "view",
      "type": "function"
    },
    {
      "inputs": [
        {
          "internalType": "address",
          "name": "newOwner",
          "type": "address"
        }
      ],
      "name": "transferOwnership",
      "outputs": [],
      "stateMutability": "nonpayable",
      "type": "function"
    },
    {
      "inputs": [
        {
          "internalType": "uint256",
          "name": "newDailyLoginPoints",
          "type": "uint256"
        },
        {
          "internalType": "uint256",
          "name": "newStreakBonusPoints",
          "type": "uint256"
        },
        {
          "internalType": "uint256",
          "name": "newActivityStreakBonus",
          "type": "uint256"
        }
      ],
      "name": "updatePointValues",
      "outputs": [],
      "stateMutability": "nonpayable",
      "type": "function"
    },
    {
      "inputs": [
        {
          "internalType": "address",
          "name": "",
          "type": "address"
        }
      ],
      "name": "userPoints",
      "outputs": [
        {
          "internalType": "uint256",
          "name": "",
          "type": "uint256"
        }
      ],
      "stateMutability": "view",
      "type": "function"
    }
  ],
  "bytecode": "0x608060405260056007556002600855600360095534801561001f57600080fd5b506040516125c73803806125c7833981810160405281019061004191906101f1565b80600073ffffffffffffffffffffffffffffffffffffffff168173ffffffffffffffffffffffffffffffffffffffff16036100b45760006040517f1e4fbdf70000000000000000000000000000000000000000000000000000000081526004016100ab919061022d565b60405180910390fd5b6100c3816100ca60201b60201c565b5050610248565b60008060009054906101000a900473ffffffffffffffffffffffffffffffffffffffff169050816000806101000a81548173ffffffffffffffffffffffffffffffffffffffff021916908373ffffffffffffffffffffffffffffffffffffffff1602179055508173ffffffffffffffffffffffffffffffffffffffff168173ffffffffffffffffffffffffffffffffffffffff167f8be0079c531659141344cd1fd0a4f28419497f9722a3daafe3b4186f6b6457e060405160405180910390a35050565b600080fd5b600073ffffffffffffffffffffffffffffffffffffffff82169050919050565b60006101be82610193565b9050919050565b6101ce816101b3565b81146101d957600080fd5b50565b6000815190506101eb816101c5565b92915050565b6000602082840312156102075761020661018e565b5b6000610215848285016101dc565b91505092915050565b610227816101b3565b82525050565b6000602082019050610242600083018461021e565b92915050565b612370806102576000396000f3fe608060405234801561001057600080fd5b506004361061018e5760003560e01c8063b650fed3116100de578063edbe921811610097578063f2fde38b11610071578063f2fde38b14610496578063f50ddbc7146104b2578063f69a30b9146104e2578063fe9fbb80146105125761018e565b8063edbe92181461042e578063ee204abb1461044a578063f0c47cab1461047a5761018e565b8063b650fed314610320578063ba022ef614610350578063bac1d90114610380578063cdd97257146103b0578063d5b9221b146103ce578063da65b540146103fe5761018e565b80636e861c0e1161014b5780638c8f8a00116101255780638c8f8a00146102ac5780638cbe619c146102b65780638da5cb5b146102e65780639b465f6f146103045761018e565b80636e861c0e14610255578063715018a61461027157806373af16fc1461027b5761018e565b806311ae35231461019357806336f71682146101c35780634756f60c146101e15780634f1daf30146101eb57806360bc151b1461021b57806367561d9314610239575b600080fd5b6101ad60048036038101906101a89190611965565b610542565b6040516101ba91906119ab565b60405180910390f35b6101cb61058b565b6040516101d891906119ab565b60405180910390f35b6101e9610591565b005b61020560048036038101906102009190611965565b610982565b60405161021291906119ab565b60405180910390f35b6102236109cb565b60405161023091906119ab565b60405180910390f35b610253600480360381019061024e9190611965565b6109d1565b005b61026f600480360381019061026a9190611965565b610ae6565b005b610279610bfb565b005b610295600480360381019061029091906119f2565b610c0f565b6040516102a3929190611bae565b60405180910390f35b6102b4610d4c565b005b6102d060048036038101906102cb9190611965565b611032565b6040516102dd91906119ab565b60405180910390f35b6102ee61107b565b6040516102fb9190611bf4565b60405180910390f35b61031e60048036038101906103199190611d55565b6110a4565b005b61033a60048036038101906103359190611965565b61134c565b60405161034791906119ab565b60405180910390f35b61036a60048036038101906103659190611965565b611364565b60405161037791906119ab565b60405180910390f35b61039a60048036038101906103959190611965565b61137c565b6040516103a791906119ab565b60405180910390f35b6103b86113c5565b6040516103c591906119ab565b60405180910390f35b6103e860048036038101906103e39190611965565b6113cb565b6040516103f59190611ddf565b60405180910390f35b61041860048036038101906104139190611965565b6113eb565b60405161042591906119ab565b60405180910390f35b61044860048036038101906104439190611dfa565b611403565b005b610464600480360381019061045f9190611965565b611425565b60405161047191906119ab565b60405180910390f35b610494600480360381019061048f9190611d55565b61146e565b005b6104b060048036038101906104ab9190611965565b611694565b005b6104cc60048036038101906104c79190611965565b61171a565b6040516104d991906119ab565b60405180910390f35b6104fc60048036038101906104f79190611965565b611732565b60405161050991906119ab565b60405180910390f35b61052c60048036038101906105279190611965565b61174a565b6040516105399190611ddf565b60405180910390f35b6000600660008373ffffffffffffffffffffffffffffffffffffffff1673ffffffffffffffffffffffffffffffffffffffff168152602001908152602001600020549050919050565b60085481565b600260003373ffffffffffffffffffffffffffffffffffffffff1673ffffffffffffffffffffffffffffffffffffffff16815260200190815260200160002060009054906101000a900460ff168061061b57506105ec61107b565b73ffffffffffffffffffffffffffffffffffffffff163373ffffffffffffffffffffffffffffffffffffffff16145b61065a576040517f08c379a000000000000000000000000000000000000000000000000000000000815260040161065190611eaa565b60405180910390fd5b6000429050600032905062015180600660008373ffffffffffffffffffffffffffffffffffffffff1673ffffffffffffffffffffffffffffffffffffffff168152602001908152602001600020546106b29190611ef9565b821061097e576201518060026106c89190611f2d565b600660008373ffffffffffffffffffffffffffffffffffffffff1673ffffffffffffffffffffffffffffffffffffffff168152602001908152602001600020546107129190611ef9565b82101561077357600560008273ffffffffffffffffffffffffffffffffffffffff1673ffffffffffffffffffffffffffffffffffffffff168152602001908152602001600020600081548092919061076990611f6f565b91905055506107b9565b6001600560008373ffffffffffffffffffffffffffffffffffffffff1673ffffffffffffffffffffffffffffffffffffffff168152602001908152602001600020819055505b81600660008373ffffffffffffffffffffffffffffffffffffffff1673ffffffffffffffffffffffffffffffffffffffff168152602001908152602001600020819055506001600560008373ffffffffffffffffffffffffffffffffffffffff1673ffffffffffffffffffffffffffffffffffffffff16815260200190815260200160002054111561097d576000600954600560008473ffffffffffffffffffffffffffffffffffffffff1673ffffffffffffffffffffffffffffffffffffffff168152602001908152602001600020546108949190611f2d565b905080600160008473ffffffffffffffffffffffffffffffffffffffff1673ffffffffffffffffffffffffffffffffffffffff16815260200190815260200160002060008282546108e59190611ef9565b925050819055508173ffffffffffffffffffffffffffffffffffffffff167fd011b8476298d7da5e9674aec05ec4fb83a71dc507f900566ea8f23b3cdeda97600560008573ffffffffffffffffffffffffffffffffffffffff1673ffffffffffffffffffffffffffffffffffffffff1681526020019081526020016000205483604051610973929190611fb7565b60405180910390a2505b5b5050565b6000600460008373ffffffffffffffffffffffffffffffffffffffff1673ffffffffffffffffffffffffffffffffffffffff168152602001908152602001600020549050919050565b60095481565b6109d96117a0565b600073ffffffffffffffffffffffffffffffffffffffff168173ffffffffffffffffffffffffffffffffffffffff1603610a48576040517f08c379a0000000000000000000000000000000000000000000000000000000008152600401610a3f9061202c565b60405180910390fd5b6001600260008373ffffffffffffffffffffffffffffffffffffffff1673ffffffffffffffffffffffffffffffffffffffff16815260200190815260200160002060006101000a81548160ff0219169083151502179055508073ffffffffffffffffffffffffffffffffffffffff167f8983a1f3c3cb45c24c8226b5b805e3b6eb49686530b808534b2a920129eff65160405160405180910390a250565b610aee6117a0565b600073ffffffffffffffffffffffffffffffffffffffff168173ffffffffffffffffffffffffffffffffffffffff1603610b5d576040517f08c379a0000000000000000000000000000000000000000000000000000000008152600401610b549061202c565b60405180910390fd5b6000600260008373ffffffffffffffffffffffffffffffffffffffff1673ffffffffffffffffffffffffffffffffffffffff16815260200190815260200160002060006101000a81548160ff0219169083151502179055508073ffffffffffffffffffffffffffffffffffffffff167f54142b7cb3ceaa9e564243ce4cc2303723c842a1144192de6b3c594f68b16a9a60405160405180910390a250565b610c036117a0565b610c0d6000611827565b565b606080828410610c54576040517f08c379a0000000000000000000000000000000000000000000000000000000008152600401610c4b90612098565b60405180910390fd5b60648484610c6291906120b8565b1115610ca3576040517f08c379a0000000000000000000000000000000000000000000000000000000008152600401610c9a90612138565b60405180910390fd5b60008067ffffffffffffffff811115610cbf57610cbe611c2a565b5b604051908082528060200260200182016040528015610ced5781602001602082028036833780820191505090505b50905060008067ffffffffffffffff811115610d0c57610d0b611c2a565b5b604051908082528060200260200182016040528015610d3a5781602001602082028036833780820191505090505b50905081819350935050509250929050565b600042905062015180600360003373ffffffffffffffffffffffffffffffffffffffff1673ffffffffffffffffffffffffffffffffffffffff16815260200190815260200160002054610d9f9190611ef9565b811061102f57620151806002610db59190611f2d565b600360003373ffffffffffffffffffffffffffffffffffffffff1673ffffffffffffffffffffffffffffffffffffffff16815260200190815260200160002054610dff9190611ef9565b811015610e6057600460003373ffffffffffffffffffffffffffffffffffffffff1673ffffffffffffffffffffffffffffffffffffffff1681526020019081526020016000206000815480929190610e5690611f6f565b9190505550610ea6565b6001600460003373ffffffffffffffffffffffffffffffffffffffff1673ffffffffffffffffffffffffffffffffffffffff168152602001908152602001600020819055505b80600360003373ffffffffffffffffffffffffffffffffffffffff1673ffffffffffffffffffffffffffffffffffffffff168152602001908152602001600020819055506000600854600460003373ffffffffffffffffffffffffffffffffffffffff1673ffffffffffffffffffffffffffffffffffffffff16815260200190815260200160002054610f399190611f2d565b600754610f469190611ef9565b905080600160003373ffffffffffffffffffffffffffffffffffffffff1673ffffffffffffffffffffffffffffffffffffffff1681526020019081526020016000206000828254610f979190611ef9565b925050819055503373ffffffffffffffffffffffffffffffffffffffff167f6bbd45b0fe350556e768ac731436df4b1387dd52325e50996e37c6b84de3537f82600460003373ffffffffffffffffffffffffffffffffffffffff1673ffffffffffffffffffffffffffffffffffffffff16815260200190815260200160002054604051611025929190611fb7565b60405180910390a2505b50565b6000600360008373ffffffffffffffffffffffffffffffffffffffff1673ffffffffffffffffffffffffffffffffffffffff168152602001908152602001600020549050919050565b60008060009054906101000a900473ffffffffffffffffffffffffffffffffffffffff16905090565b600260003373ffffffffffffffffffffffffffffffffffffffff1673ffffffffffffffffffffffffffffffffffffffff16815260200190815260200160002060009054906101000a900460ff168061112e57506110ff61107b565b73ffffffffffffffffffffffffffffffffffffffff163373ffffffffffffffffffffffffffffffffffffffff16145b61116d576040517f08c379a000000000000000000000000000000000000000000000000000000000815260040161116490611eaa565b60405180910390fd5b600073ffffffffffffffffffffffffffffffffffffffff168373ffffffffffffffffffffffffffffffffffffffff16036111dc576040517f08c379a00000000000000000000000000000000000000000000000000000000081526004016111d3906121a4565b60405180910390fd5b6000821161121f576040517f08c379a000000000000000000000000000000000000000000000000000000000815260040161121690612210565b60405180910390fd5b81600160008573ffffffffffffffffffffffffffffffffffffffff1673ffffffffffffffffffffffffffffffffffffffff1681526020019081526020016000205410156112a1576040517f08c379a00000000000000000000000000000000000000000000000000000000081526004016112989061227c565b60405180910390fd5b81600160008573ffffffffffffffffffffffffffffffffffffffff1673ffffffffffffffffffffffffffffffffffffffff16815260200190815260200160002060008282546112f091906120b8565b925050819055508273ffffffffffffffffffffffffffffffffffffffff167ff9d84dc8dbc1ec63030d63fe51eb9e84f59905783078b2f3d84f3fcee1ae778f838360405161133f92919061230a565b60405180910390a2505050565b60046020528060005260406000206000915090505481565b60056020528060005260406000206000915090505481565b6000600560008373ffffffffffffffffffffffffffffffffffffffff1673ffffffffffffffffffffffffffffffffffffffff168152602001908152602001600020549050919050565b60075481565b60026020528060005260406000206000915054906101000a900460ff1681565b60066020528060005260406000206000915090505481565b61140b6117a0565b826007819055508160088190555080600981905550505050565b6000600160008373ffffffffffffffffffffffffffffffffffffffff1673ffffffffffffffffffffffffffffffffffffffff168152602001908152602001600020549050919050565b600260003373ffffffffffffffffffffffffffffffffffffffff1673ffffffffffffffffffffffffffffffffffffffff16815260200190815260200160002060009054906101000a900460ff16806114f857506114c961107b565b73ffffffffffffffffffffffffffffffffffffffff163373ffffffffffffffffffffffffffffffffffffffff16145b611537576040517f08c379a000000000000000000000000000000000000000000000000000000000815260040161152e90611eaa565b60405180910390fd5b600073ffffffffffffffffffffffffffffffffffffffff168373ffffffffffffffffffffffffffffffffffffffff16036115a6576040517f08c379a000000000000000000000000000000000000000000000000000000000815260040161159d906121a4565b60405180910390fd5b600082116115e9576040517f08c379a00000000000000000000000000000000000000000000000000000000081526004016115e090612210565b60405180910390fd5b81600160008573ffffffffffffffffffffffffffffffffffffffff1673ffffffffffffffffffffffffffffffffffffffff16815260200190815260200160002060008282546116389190611ef9565b925050819055508273ffffffffffffffffffffffffffffffffffffffff167f4c3089477cda1ac100291a040b3ac97ff5f55b6d8b2acfb56a59b9419d95ce04838360405161168792919061230a565b60405180910390a2505050565b61169c6117a0565b600073ffffffffffffffffffffffffffffffffffffffff168173ffffffffffffffffffffffffffffffffffffffff160361170e5760006040517f1e4fbdf70000000000000000000000000000000000000000000000000000000081526004016117059190611bf4565b60405180910390fd5b61171781611827565b50565b60016020528060005260406000206000915090505481565b60036020528060005260406000206000915090505481565b6000600260008373ffffffffffffffffffffffffffffffffffffffff1673ffffffffffffffffffffffffffffffffffffffff16815260200190815260200160002060009054906101000a900460ff169050919050565b6117a86118eb565b73ffffffffffffffffffffffffffffffffffffffff166117c661107b565b73ffffffffffffffffffffffffffffffffffffffff1614611825576117e96118eb565b6040517f118cdaa700000000000000000000000000000000000000000000000000000000815260040161181c9190611bf4565b60405180910390fd5b565b60008060009054906101000a900473ffffffffffffffffffffffffffffffffffffffff169050816000806101000a81548173ffffffffffffffffffffffffffffffffffffffff021916908373ffffffffffffffffffffffffffffffffffffffff1602179055508173ffffffffffffffffffffffffffffffffffffffff168173ffffffffffffffffffffffffffffffffffffffff167f8be0079c531659141344cd1fd0a4f28419497f9722a3daafe3b4186f6b6457e060405160405180910390a35050565b600033905090565b6000604051905090565b600080fd5b600080fd5b600073ffffffffffffffffffffffffffffffffffffffff82169050919050565b600061193282611907565b9050919050565b61194281611927565b811461194d57600080fd5b50565b60008135905061195f81611939565b92915050565b60006020828403121561197b5761197a6118fd565b5b600061198984828501611950565b91505092915050565b6000819050919050565b6119a581611992565b82525050565b60006020820190506119c0600083018461199c565b92915050565b6119cf81611992565b81146119da57600080fd5b50565b6000813590506119ec816119c6565b92915050565b60008060408385031215611a0957611a086118fd565b5b6000611a17858286016119dd565b9250506020611a28858286016119dd565b9150509250929050565b600081519050919050565b600082825260208201905092915050565b6000819050602082019050919050565b611a6781611927565b82525050565b6000611a798383611a5e565b60208301905092915050565b6000602082019050919050565b6000611a9d82611a32565b611aa78185611a3d565b9350611ab283611a4e565b8060005b83811015611ae3578151611aca8882611a6d565b9750611ad583611a85565b925050600181019050611ab6565b5085935050505092915050565b600081519050919050565b600082825260208201905092915050565b6000819050602082019050919050565b611b2581611992565b82525050565b6000611b378383611b1c565b60208301905092915050565b6000602082019050919050565b6000611b5b82611af0565b611b658185611afb565b9350611b7083611b0c565b8060005b83811015611ba1578151611b888882611b2b565b9750611b9383611b43565b925050600181019050611b74565b5085935050505092915050565b60006040820190508181036000830152611bc88185611a92565b90508181036020830152611bdc8184611b50565b90509392505050565b611bee81611927565b82525050565b6000602082019050611c096000830184611be5565b92915050565b600080fd5b600080fd5b6000601f19601f8301169050919050565b7f4e487b7100000000000000000000000000000000000000000000000000000000600052604160045260246000fd5b611c6282611c19565b810181811067ffffffffffffffff82111715611c8157611c80611c2a565b5b80604052505050565b6000611c946118f3565b9050611ca08282611c59565b919050565b600067ffffffffffffffff821115611cc057611cbf611c2a565b5b611cc982611c19565b9050602081019050919050565b82818337600083830152505050565b6000611cf8611cf384611ca5565b611c8a565b905082815260208101848484011115611d1457611d13611c14565b5b611d1f848285611cd6565b509392505050565b600082601f830112611d3c57611d3b611c0f565b5b8135611d4c848260208601611ce5565b91505092915050565b600080600060608486031215611d6e57611d6d6118fd565b5b6000611d7c86828701611950565b9350506020611d8d868287016119dd565b925050604084013567ffffffffffffffff811115611dae57611dad611902565b5b611dba86828701611d27565b9150509250925092565b60008115159050919050565b611dd981611dc4565b82525050565b6000602082019050611df46000830184611dd0565b92915050565b600080600060608486031215611e1357611e126118fd565b5b6000611e21868287016119dd565b9350506020611e32868287016119dd565b9250506040611e43868287016119dd565b9150509250925092565b600082825260208201905092915050565b7f4e6f7420617574686f72697a6564000000000000000000000000000000000000600082015250565b6000611e94600e83611e4d565b9150611e9f82611e5e565b602082019050919050565b60006020820190508181036000830152611ec381611e87565b9050919050565b7f4e487b7100000000000000000000000000000000000000000000000000000000600052601160045260246000fd5b6000611f0482611992565b9150611f0f83611992565b9250828201905080821115611f2757611f26611eca565b5b92915050565b6000611f3882611992565b9150611f4383611992565b9250828202611f5181611992565b91508282048414831517611f6857611f67611eca565b5b5092915050565b6000611f7a82611992565b91507fffffffffffffffffffffffffffffffffffffffffffffffffffffffffffffffff8203611fac57611fab611eca565b5b600182019050919050565b6000604082019050611fcc600083018561199c565b611fd9602083018461199c565b9392505050565b7f496e76616c696420636f6e747261637420616464726573730000000000000000600082015250565b6000612016601883611e4d565b915061202182611fe0565b602082019050919050565b6000602082019050818103600083015261204581612009565b9050919050565b7f496e76616c69642072616e676500000000000000000000000000000000000000600082015250565b6000612082600d83611e4d565b915061208d8261204c565b602082019050919050565b600060208201905081810360008301526120b181612075565b9050919050565b60006120c382611992565b91506120ce83611992565b92508282039050818111156120e6576120e5611eca565b5b92915050565b7f52616e676520746f6f206c617267650000000000000000000000000000000000600082015250565b6000612122600f83611e4d565b915061212d826120ec565b602082019050919050565b6000602082019050818103600083015261215181612115565b9050919050565b7f496e76616c696420757365722061646472657373000000000000000000000000600082015250565b600061218e601483611e4d565b915061219982612158565b602082019050919050565b600060208201905081810360008301526121bd81612181565b9050919050565b7f416d6f756e74206d7573742062652067726561746572207468616e2030000000600082015250565b60006121fa601d83611e4d565b9150612205826121c4565b602082019050919050565b60006020820190508181036000830152612229816121ed565b9050919050565b7f496e73756666696369656e7420706f696e747300000000000000000000000000600082015250565b6000612266601383611e4d565b915061227182612230565b602082019050919050565b6000602082019050818103600083015261229581612259565b9050919050565b600081519050919050565b60005b838110156122c55780820151818401526020810190506122aa565b60008484015250505050565b60006122dc8261229c565b6122e68185611e4d565b93506122f68185602086016122a7565b6122ff81611c19565b840191505092915050565b600060408201905061231f600083018561199c565b818103602083015261233181846122d1565b9050939250505056fea2646970667358221220909c5071b306c232b6d11c9d7ccfb1655087293ad8376fa6c2cf0dbc4843b41764736f6c634300081a0033",
  "linkReferences": {},
  "deployedLinkReferences": {}
}