{
  "_format": "hh-sol-artifact-1",
  "contractName": "ChainReactionContract",
  "sourceName": "contracts/ChainReactionContract.sol",
  "abi": [
    {
      "inputs": [
        {
          "internalType": "address",
          "name": "admin",
          "type": "address"
        },
        {
          "internalType": "address",
          "name": "_pointsContract",
          "type": "address"
        },
        {
          "internalType": "address",
          "name": "_badgesContract",
          "type": "address"
        }
      ],
      "stateMutability": "nonpayable",
      "type": "constructor"
    },
    {
      "inputs": [
        {
          "internalType": "address",
          "name": "owner",
          "type": "address"
        }
      ],
      "name": "OwnableInvalidOwner",
      "type": "error"
    },
    {
      "inputs": [
        {
          "internalType": "address",
          "name": "account",
          "type": "address"
        }
      ],
      "name": "OwnableUnauthorizedAccount",
      "type": "error"
    },
    {
      "anonymous": false,
      "inputs": [
        {
          "indexed": true,
          "internalType": "address",
          "name": "responder",
          "type": "address"
        },
        {
          "indexed": true,
          "internalType": "uint256",
          "name": "challengeId",
          "type": "uint256"
        },
        {
          "indexed": true,
          "internalType": "uint256",
          "name": "responseId",
          "type": "uint256"
        },
        {
          "indexed": false,
          "internalType": "uint256",
          "name": "parentResponseId",
          "type": "uint256"
        },
        {
          "indexed": false,
          "internalType": "string",
          "name": "responseText",
          "type": "string"
        },
        {
          "indexed": false,
          "internalType": "string",
          "name": "responseImageIpfsHash",
          "type": "string"
        }
      ],
      "name": "ChallengeJoined",
      "type": "event"
    },
    {
      "anonymous": false,
      "inputs": [
        {
          "indexed": true,
          "internalType": "address",
          "name": "initiator",
          "type": "address"
        },
        {
          "indexed": true,
          "internalType": "uint256",
          "name": "challengeId",
          "type": "uint256"
        },
        {
          "indexed": false,
          "internalType": "string",
          "name": "prompt",
          "type": "string"
        },
        {
          "indexed": false,
          "internalType": "string",
          "name": "promptImageIpfsHash",
          "type": "string"
        }
      ],
      "name": "ChallengeStarted",
      "type": "event"
    },
    {
      "anonymous": false,
      "inputs": [
        {
          "indexed": true,
          "internalType": "address",
          "name": "previousOwner",
          "type": "address"
        },
        {
          "indexed": true,
          "internalType": "address",
          "name": "newOwner",
          "type": "address"
        }
      ],
      "name": "OwnershipTransferred",
      "type": "event"
    },
    {
      "anonymous": false,
      "inputs": [
        {
          "indexed": false,
          "internalType": "uint256",
          "name": "newPointsPerChallenge",
          "type": "uint256"
        },
        {
          "indexed": false,
          "internalType": "uint256",
          "name": "newPointsPerResponse",
          "type": "uint256"
        }
      ],
      "name": "PointsUpdated",
      "type": "event"
    },
    {
      "inputs": [],
      "name": "badgesContract",
      "outputs": [
        {
          "internalType": "contract VibeCasterBadges",
          "name": "",
          "type": "address"
        }
      ],
      "stateMutability": "view",
      "type": "function"
    },
    {
      "inputs": [
        {
          "internalType": "uint256",
          "name": "",
          "type": "uint256"
        }
      ],
      "name": "challenges",
      "outputs": [
        {
          "internalType": "address",
          "name": "initiator",
          "type": "address"
        },
        {
          "internalType": "string",
          "name": "prompt",
          "type": "string"
        },
        {
          "internalType": "string",
          "name": "promptImageIpfsHash",
          "type": "string"
        },
        {
          "internalType": "uint256",
          "name": "timestamp",
          "type": "uint256"
        },
        {
          "internalType": "bool",
          "name": "exists",
          "type": "bool"
        }
      ],
      "stateMutability": "view",
      "type": "function"
    },
    {
      "inputs": [
        {
          "internalType": "uint256",
          "name": "limit",
          "type": "uint256"
        }
      ],
      "name": "getActiveChallenges",
      "outputs": [
        {
          "internalType": "uint256[]",
          "name": "",
          "type": "uint256[]"
        }
      ],
      "stateMutability": "view",
      "type": "function"
    },
    {
      "inputs": [
        {
          "internalType": "uint256",
          "name": "challengeId",
          "type": "uint256"
        }
      ],
      "name": "getChain",
      "outputs": [
        {
          "internalType": "uint256[]",
          "name": "",
          "type": "uint256[]"
        }
      ],
      "stateMutability": "view",
      "type": "function"
    },
    {
      "inputs": [
        {
          "internalType": "uint256",
          "name": "challengeId",
          "type": "uint256"
        }
      ],
      "name": "getChallenge",
      "outputs": [
        {
          "components": [
            {
              "internalType": "address",
              "name": "initiator",
              "type": "address"
            },
            {
              "internalType": "string",
              "name": "prompt",
              "type": "string"
            },
            {
              "internalType": "string",
              "name": "promptImageIpfsHash",
              "type": "string"
            },
            {
              "internalType": "uint256",
              "name": "timestamp",
              "type": "uint256"
            },
            {
              "internalType": "uint256[]",
              "name": "responseIds",
              "type": "uint256[]"
            },
            {
              "internalType": "bool",
              "name": "exists",
              "type": "bool"
            }
          ],
          "internalType": "struct ChainReactionContract.Challenge",
          "name": "",
          "type": "tuple"
        }
      ],
      "stateMutability": "view",
      "type": "function"
    },
    {
      "inputs": [
        {
          "internalType": "uint256",
          "name": "challengeId",
          "type": "uint256"
        }
      ],
      "name": "getChallengeResponseCount",
      "outputs": [
        {
          "internalType": "uint256",
          "name": "",
          "type": "uint256"
        }
      ],
      "stateMutability": "view",
      "type": "function"
    },
    {
      "inputs": [
        {
          "internalType": "uint256",
          "name": "responseId",
          "type": "uint256"
        }
      ],
      "name": "getResponse",
      "outputs": [
        {
          "components": [
            {
              "internalType": "address",
              "name": "responder",
              "type": "address"
            },
            {
              "internalType": "uint256",
              "name": "parentChallengeId",
              "type": "uint256"
            },
            {
              "internalType": "uint256",
              "name": "parentResponseId",
              "type": "uint256"
            },
            {
              "internalType": "string",
              "name": "responseText",
              "type": "string"
            },
            {
              "internalType": "string",
              "name": "responseImageIpfsHash",
              "type": "string"
            },
            {
              "internalType": "uint256",
              "name": "timestamp",
              "type": "uint256"
            },
            {
              "internalType": "uint256[]",
              "name": "childResponseIds",
              "type": "uint256[]"
            },
            {
              "internalType": "bool",
              "name": "exists",
              "type": "bool"
            }
          ],
          "internalType": "struct ChainReactionContract.Response",
          "name": "",
          "type": "tuple"
        }
      ],
      "stateMutability": "view",
      "type": "function"
    },
    {
      "inputs": [
        {
          "internalType": "uint256",
          "name": "responseId",
          "type": "uint256"
        }
      ],
      "name": "getResponseChain",
      "outputs": [
        {
          "internalType": "uint256[]",
          "name": "",
          "type": "uint256[]"
        }
      ],
      "stateMutability": "view",
      "type": "function"
    },
    {
      "inputs": [
        {
          "internalType": "uint256",
          "name": "responseId",
          "type": "uint256"
        }
      ],
      "name": "getResponseChildCount",
      "outputs": [
        {
          "internalType": "uint256",
          "name": "",
          "type": "uint256"
        }
      ],
      "stateMutability": "view",
      "type": "function"
    },
    {
      "inputs": [
        {
          "internalType": "address",
          "name": "user",
          "type": "address"
        }
      ],
      "name": "getUserChallenges",
      "outputs": [
        {
          "internalType": "uint256[]",
          "name": "",
          "type": "uint256[]"
        }
      ],
      "stateMutability": "view",
      "type": "function"
    },
    {
      "inputs": [
        {
          "internalType": "address",
          "name": "user",
          "type": "address"
        }
      ],
      "name": "getUserResponses",
      "outputs": [
        {
          "internalType": "uint256[]",
          "name": "",
          "type": "uint256[]"
        }
      ],
      "stateMutability": "view",
      "type": "function"
    },
    {
      "inputs": [
        {
          "internalType": "uint256",
          "name": "challengeId",
          "type": "uint256"
        },
        {
          "internalType": "uint256",
          "name": "parentResponseId",
          "type": "uint256"
        },
        {
          "internalType": "string",
          "name": "responseText",
          "type": "string"
        },
        {
          "internalType": "string",
          "name": "responseImageIpfsHash",
          "type": "string"
        }
      ],
      "name": "joinChallenge",
      "outputs": [
        {
          "internalType": "uint256",
          "name": "",
          "type": "uint256"
        }
      ],
      "stateMutability": "nonpayable",
      "type": "function"
    },
    {
      "inputs": [],
      "name": "owner",
      "outputs": [
        {
          "internalType": "address",
          "name": "",
          "type": "address"
        }
      ],
      "stateMutability": "view",
      "type": "function"
    },
    {
      "inputs": [],
      "name": "pointsContract",
      "outputs": [
        {
          "internalType": "contract VibeCasterPoints",
          "name": "",
          "type": "address"
        }
      ],
      "stateMutability": "view",
      "type": "function"
    },
    {
      "inputs": [],
      "name": "pointsPerChallenge",
      "outputs": [
        {
          "internalType": "uint256",
          "name": "",
          "type": "uint256"
        }
      ],
      "stateMutability": "view",
      "type": "function"
    },
    {
      "inputs": [],
      "name": "pointsPerResponse",
      "outputs": [
        {
          "internalType": "uint256",
          "name": "",
          "type": "uint256"
        }
      ],
      "stateMutability": "view",
      "type": "function"
    },
    {
      "inputs": [],
      "name": "renounceOwnership",
      "outputs": [],
      "stateMutability": "nonpayable",
      "type": "function"
    },
    {
      "inputs": [
        {
          "internalType": "uint256",
          "name": "",
          "type": "uint256"
        }
      ],
      "name": "responses",
      "outputs": [
        {
          "internalType": "address",
          "name": "responder",
          "type": "address"
        },
        {
          "internalType": "uint256",
          "name": "parentChallengeId",
          "type": "uint256"
        },
        {
          "internalType": "uint256",
          "name": "parentResponseId",
          "type": "uint256"
        },
        {
          "internalType": "string",
          "name": "responseText",
          "type": "string"
        },
        {
          "internalType": "string",
          "name": "responseImageIpfsHash",
          "type": "string"
        },
        {
          "internalType": "uint256",
          "name": "timestamp",
          "type": "uint256"
        },
        {
          "internalType": "bool",
          "name": "exists",
          "type": "bool"
        }
      ],
      "stateMutability": "view",
      "type": "function"
    },
    {
      "inputs": [
        {
          "internalType": "string",
          "name": "prompt",
          "type": "string"
        },
        {
          "internalType": "string",
          "name": "promptImageIpfsHash",
          "type": "string"
        }
      ],
      "name": "startChallenge",
      "outputs": [
        {
          "internalType": "uint256",
          "name": "",
          "type": "uint256"
        }
      ],
      "stateMutability": "nonpayable",
      "type": "function"
    },
    {
      "inputs": [],
      "name": "totalChallenges",
      "outputs": [
        {
          "internalType": "uint256",
          "name": "",
          "type": "uint256"
        }
      ],
      "stateMutability": "view",
      "type": "function"
    },
    {
      "inputs": [],
      "name": "totalResponses",
      "outputs": [
        {
          "internalType": "uint256",
          "name": "",
          "type": "uint256"
        }
      ],
      "stateMutability": "view",
      "type": "function"
    },
    {
      "inputs": [
        {
          "internalType": "address",
          "name": "newOwner",
          "type": "address"
        }
      ],
      "name": "transferOwnership",
      "outputs": [],
      "stateMutability": "nonpayable",
      "type": "function"
    },
    {
      "inputs": [
        {
          "internalType": "uint256",
          "name": "newPointsPerChallenge",
          "type": "uint256"
        },
        {
          "internalType": "uint256",
          "name": "newPointsPerResponse",
          "type": "uint256"
        }
      ],
      "name": "updatePoints",
      "outputs": [],
      "stateMutability": "nonpayable",
      "type": "function"
    },
    {
      "inputs": [
        {
          "internalType": "address",
          "name": "",
          "type": "address"
        },
        {
          "internalType": "uint256",
          "name": "",
          "type": "uint256"
        }
      ],
      "name": "userChallenges",
      "outputs": [
        {
          "internalType": "uint256",
          "name": "",
          "type": "uint256"
        }
      ],
      "stateMutability": "view",
      "type": "function"
    },
    {
      "inputs": [
        {
          "internalType": "address",
          "name": "",
          "type": "address"
        },
        {
          "internalType": "uint256",
          "name": "",
          "type": "uint256"
        }
      ],
      "name": "userResponses",
      "outputs": [
        {
          "internalType": "uint256",
          "name": "",
          "type": "uint256"
        }
      ],
      "stateMutability": "view",
      "type": "function"
    }
  ],
  "bytecode": "0x6080604052600f600955600a805534801561001957600080fd5b50604051613501380380613501833981810160405281019061003b919061026f565b82600073ffffffffffffffffffffffffffffffffffffffff168173ffffffffffffffffffffffffffffffffffffffff16036100ae5760006040517f1e4fbdf70000000000000000000000000000000000000000000000000000000081526004016100a591906102d1565b60405180910390fd5b6100bd8161014860201b60201c565b5081600160006101000a81548173ffffffffffffffffffffffffffffffffffffffff021916908373ffffffffffffffffffffffffffffffffffffffff16021790555080600260006101000a81548173ffffffffffffffffffffffffffffffffffffffff021916908373ffffffffffffffffffffffffffffffffffffffff1602179055505050506102ec565b60008060009054906101000a900473ffffffffffffffffffffffffffffffffffffffff169050816000806101000a81548173ffffffffffffffffffffffffffffffffffffffff021916908373ffffffffffffffffffffffffffffffffffffffff1602179055508173ffffffffffffffffffffffffffffffffffffffff168173ffffffffffffffffffffffffffffffffffffffff167f8be0079c531659141344cd1fd0a4f28419497f9722a3daafe3b4186f6b6457e060405160405180910390a35050565b600080fd5b600073ffffffffffffffffffffffffffffffffffffffff82169050919050565b600061023c82610211565b9050919050565b61024c81610231565b811461025757600080fd5b50565b60008151905061026981610243565b92915050565b6000806000606084860312156102885761028761020c565b5b60006102968682870161025a565b93505060206102a78682870161025a565b92505060406102b88682870161025a565b9150509250925092565b6102cb81610231565b82525050565b60006020820190506102e660008301846102c2565b92915050565b613206806102fb6000396000f3fe608060405234801561001057600080fd5b50600436106101725760003560e01c8063a5ff0a13116100de578063d17defcb11610097578063e9cdaed611610071578063e9cdaed6146104c5578063ed35d7e5146104e3578063f2fde38b14610519578063fdb1287a1461053557610172565b8063d17defcb14610459578063e4a4455214610477578063e99623fe1461049557610172565b8063a5ff0a1314610339578063a78674d614610369578063b6791ad414610399578063b9456fe2146103c9578063bdf75cb6146103f9578063cb08bf2a1461042957610172565b80635a5619de116101305780635a5619de1461027157806370c181991461028f578063715018a6146102bf5780638da5cb5b146102c95780638f1d3776146102e757806397d3b9ec1461031b57610172565b80625b541c1461017757806309d145ea146101a757806311da8e54146101c35780631bdd4b74146101f35780632b4f8a1f14610223578063458511b114610241575b600080fd5b610191600480360381019061018c9190612020565b610565565b60405161019e919061205c565b60405180910390f35b6101c160048036038101906101bc9190612077565b6105eb565b005b6101dd60048036038101906101d89190612115565b61063e565b6040516101ea9190612200565b60405180910390f35b61020d60048036038101906102089190612020565b6106d5565b60405161021a91906123e2565b60405180910390f35b61022b61095c565b6040516102389190612463565b60405180910390f35b61025b60048036038101906102569190612020565b610982565b604051610268919061205c565b60405180910390f35b610279610a08565b604051610286919061205c565b60405180910390f35b6102a960048036038101906102a49190612020565b610a12565b6040516102b6919061253c565b60405180910390f35b6102c7610cae565b005b6102d1610cc2565b6040516102de919061256d565b60405180910390f35b61030160048036038101906102fc9190612020565b610ceb565b6040516103129594939291906125e1565b60405180910390f35b610323610e5e565b6040516103309190612663565b60405180910390f35b610353600480360381019061034e919061267e565b610e84565b604051610360919061205c565b60405180910390f35b610383600480360381019061037e91906127f3565b610eb5565b604051610390919061205c565b60405180910390f35b6103b360048036038101906103ae9190612020565b61142b565b6040516103c09190612200565b60405180910390f35b6103e360048036038101906103de919061267e565b6114fc565b6040516103f0919061205c565b60405180910390f35b610413600480360381019061040e9190612115565b61152d565b6040516104209190612200565b60405180910390f35b610443600480360381019061043e9190612020565b6115c4565b6040516104509190612200565b60405180910390f35b610461611695565b60405161046e919061205c565b60405180910390f35b61047f61169f565b60405161048c919061205c565b60405180910390f35b6104af60048036038101906104aa9190612020565b6116a5565b6040516104bc9190612200565b60405180910390f35b6104cd6117cc565b6040516104da919061205c565b60405180910390f35b6104fd60048036038101906104f89190612020565b6117d2565b6040516105109796959493929190612892565b60405180910390f35b610533600480360381019061052e9190612115565b611951565b005b61054f600480360381019061054a919061290f565b6119d7565b60405161055c919061205c565b60405180910390f35b60006003600083815260200190815260200160002060050160009054906101000a900460ff166105ca576040517f08c379a00000000000000000000000000000000000000000000000000000000081526004016105c1906129d3565b60405180910390fd5b60036000838152602001908152602001600020600401805490509050919050565b6105f3611d6e565b8160098190555080600a819055507f2a4f386dacbb02a5d478d3fc1d2dbc487b69ed735b8d629e99d905680db927eb82826040516106329291906129f3565b60405180910390a15050565b6060600560008373ffffffffffffffffffffffffffffffffffffffff1673ffffffffffffffffffffffffffffffffffffffff1681526020019081526020016000208054806020026020016040519081016040528092919081815260200182805480156106c957602002820191906000526020600020905b8154815260200190600101908083116106b5575b50505050509050919050565b6106dd611ec1565b6003600083815260200190815260200160002060050160009054906101000a900460ff16610740576040517f08c379a0000000000000000000000000000000000000000000000000000000008152600401610737906129d3565b60405180910390fd5b600360008381526020019081526020016000206040518060c00160405290816000820160009054906101000a900473ffffffffffffffffffffffffffffffffffffffff1673ffffffffffffffffffffffffffffffffffffffff1673ffffffffffffffffffffffffffffffffffffffff1681526020016001820180546107c490612a4b565b80601f01602080910402602001604051908101604052809291908181526020018280546107f090612a4b565b801561083d5780601f106108125761010080835404028352916020019161083d565b820191906000526020600020905b81548152906001019060200180831161082057829003601f168201915b5050505050815260200160028201805461085690612a4b565b80601f016020809104026020016040519081016040528092919081815260200182805461088290612a4b565b80156108cf5780601f106108a4576101008083540402835291602001916108cf565b820191906000526020600020905b8154815290600101906020018083116108b257829003601f168201915b50505050508152602001600382015481526020016004820180548060200260200160405190810160405280929190818152602001828054801561093157602002820191906000526020600020905b81548152602001906001019080831161091d575b505050505081526020016005820160009054906101000a900460ff1615151515815250509050919050565b600160009054906101000a900473ffffffffffffffffffffffffffffffffffffffff1681565b60006004600083815260200190815260200160002060070160009054906101000a900460ff166109e7576040517f08c379a00000000000000000000000000000000000000000000000000000000081526004016109de90612ac8565b60405180910390fd5b60046000838152602001908152602001600020600601805490509050919050565b6000600854905090565b610a1a611f0f565b6004600083815260200190815260200160002060070160009054906101000a900460ff16610a7d576040517f08c379a0000000000000000000000000000000000000000000000000000000008152600401610a7490612ac8565b60405180910390fd5b60046000838152602001908152602001600020604051806101000160405290816000820160009054906101000a900473ffffffffffffffffffffffffffffffffffffffff1673ffffffffffffffffffffffffffffffffffffffff1673ffffffffffffffffffffffffffffffffffffffff1681526020016001820154815260200160028201548152602001600382018054610b1690612a4b565b80601f0160208091040260200160405190810160405280929190818152602001828054610b4290612a4b565b8015610b8f5780601f10610b6457610100808354040283529160200191610b8f565b820191906000526020600020905b815481529060010190602001808311610b7257829003601f168201915b50505050508152602001600482018054610ba890612a4b565b80601f0160208091040260200160405190810160405280929190818152602001828054610bd490612a4b565b8015610c215780601f10610bf657610100808354040283529160200191610c21565b820191906000526020600020905b815481529060010190602001808311610c0457829003601f168201915b505050505081526020016005820154815260200160068201805480602002602001604051908101604052809291908181526020018280548015610c8357602002820191906000526020600020905b815481526020019060010190808311610c6f575b505050505081526020016007820160009054906101000a900460ff1615151515815250509050919050565b610cb6611d6e565b610cc06000611df5565b565b60008060009054906101000a900473ffffffffffffffffffffffffffffffffffffffff16905090565b60036020528060005260406000206000915090508060000160009054906101000a900473ffffffffffffffffffffffffffffffffffffffff1690806001018054610d3490612a4b565b80601f0160208091040260200160405190810160405280929190818152602001828054610d6090612a4b565b8015610dad5780601f10610d8257610100808354040283529160200191610dad565b820191906000526020600020905b815481529060010190602001808311610d9057829003601f168201915b505050505090806002018054610dc290612a4b565b80601f0160208091040260200160405190810160405280929190818152602001828054610dee90612a4b565b8015610e3b5780601f10610e1057610100808354040283529160200191610e3b565b820191906000526020600020905b815481529060010190602001808311610e1e57829003601f168201915b5050505050908060030154908060050160009054906101000a900460ff16905085565b600260009054906101000a900473ffffffffffffffffffffffffffffffffffffffff1681565b60056020528160005260406000208181548110610ea057600080fd5b90600052602060002001600091509150505481565b60006003600086815260200190815260200160002060050160009054906101000a900460ff16610f1a576040517f08c379a0000000000000000000000000000000000000000000000000000000008152600401610f11906129d3565b60405180910390fd5b600083511180610f2b575060008251115b610f6a576040517f08c379a0000000000000000000000000000000000000000000000000000000008152600401610f6190612b34565b60405180910390fd5b600084111561102f576004600085815260200190815260200160002060070160009054906101000a900460ff16610fd6576040517f08c379a0000000000000000000000000000000000000000000000000000000008152600401610fcd90612ba0565b60405180910390fd5b8460046000868152602001908152602001600020600101541461102e576040517f08c379a000000000000000000000000000000000000000000000000000000000815260040161102590612c32565b60405180910390fd5b5b6008600081548092919061104290612c81565b9190505550600060085490506040518061010001604052803373ffffffffffffffffffffffffffffffffffffffff168152602001878152602001868152602001858152602001848152602001428152602001600067ffffffffffffffff8111156110af576110ae6126c8565b5b6040519080825280602002602001820160405280156110dd5781602001602082028036833780820191505090505b508152602001600115158152506004600083815260200190815260200160002060008201518160000160006101000a81548173ffffffffffffffffffffffffffffffffffffffff021916908373ffffffffffffffffffffffffffffffffffffffff1602179055506020820151816001015560408201518160020155606082015181600301908161116d9190612e6b565b5060808201518160040190816111839190612e6b565b5060a0820151816005015560c08201518160060190805190602001906111aa929190611f6c565b5060e08201518160070160006101000a81548160ff02191690831515021790555090505060036000878152602001908152602001600020600401819080600181540180825580915050600190039060005260206000200160009091909190915055600085111561125257600460008681526020019081526020016000206006018190806001815401808255809150506001900390600052602060002001600090919091909150555b600660003373ffffffffffffffffffffffffffffffffffffffff1673ffffffffffffffffffffffffffffffffffffffff168152602001908152602001600020819080600181540180825580915050600190039060005260206000200160009091909190915055600160009054906101000a900473ffffffffffffffffffffffffffffffffffffffff1673ffffffffffffffffffffffffffffffffffffffff1663f0c47cab33600a546040518363ffffffff1660e01b8152600401611317929190612f89565b600060405180830381600087803b15801561133157600080fd5b505af1158015611345573d6000803e3d6000fd5b50505050600160009054906101000a900473ffffffffffffffffffffffffffffffffffffffff1673ffffffffffffffffffffffffffffffffffffffff16634756f60c6040518163ffffffff1660e01b8152600401600060405180830381600087803b1580156113b357600080fd5b505af11580156113c7573d6000803e3d6000fd5b5050505080863373ffffffffffffffffffffffffffffffffffffffff167f376c2a24b9c1cbc9467ca5897c479fd325024b91ba7fc8651acfae86dd6e94b488888860405161141793929190612fc5565b60405180910390a480915050949350505050565b60606003600083815260200190815260200160002060050160009054906101000a900460ff16611490576040517f08c379a0000000000000000000000000000000000000000000000000000000008152600401611487906129d3565b60405180910390fd5b600360008381526020019081526020016000206004018054806020026020016040519081016040528092919081815260200182805480156114f057602002820191906000526020600020905b8154815260200190600101908083116114dc575b50505050509050919050565b6006602052816000526040600020818154811061151857600080fd5b90600052602060002001600091509150505481565b6060600660008373ffffffffffffffffffffffffffffffffffffffff1673ffffffffffffffffffffffffffffffffffffffff1681526020019081526020016000208054806020026020016040519081016040528092919081815260200182805480156115b857602002820191906000526020600020905b8154815260200190600101908083116115a4575b50505050509050919050565b60606004600083815260200190815260200160002060070160009054906101000a900460ff16611629576040517f08c379a000000000000000000000000000000000000000000000000000000000815260040161162090612ac8565b60405180910390fd5b6004600083815260200190815260200160002060060180548060200260200160405190810160405280929190818152602001828054801561168957602002820191906000526020600020905b815481526020019060010190808311611675575b50505050509050919050565b6000600754905090565b60095481565b606060328211156116eb576040517f08c379a00000000000000000000000000000000000000000000000000000000081526004016116e290613056565b60405180910390fd5b60008267ffffffffffffffff811115611707576117066126c8565b5b6040519080825280602002602001820160405280156117355781602001602082028036833780820191505090505b509050600080600190505b600754811115801561175157508482105b156117c1576003600082815260200190815260200160002060050160009054906101000a900460ff16156117ae578083838151811061179357611792613076565b5b60200260200101818152505081806117aa90612c81565b9250505b80806117b990612c81565b915050611740565b508192505050919050565b600a5481565b60046020528060005260406000206000915090508060000160009054906101000a900473ffffffffffffffffffffffffffffffffffffffff169080600101549080600201549080600301805461182790612a4b565b80601f016020809104026020016040519081016040528092919081815260200182805461185390612a4b565b80156118a05780601f10611875576101008083540402835291602001916118a0565b820191906000526020600020905b81548152906001019060200180831161188357829003601f168201915b5050505050908060040180546118b590612a4b565b80601f01602080910402602001604051908101604052809291908181526020018280546118e190612a4b565b801561192e5780601f106119035761010080835404028352916020019161192e565b820191906000526020600020905b81548152906001019060200180831161191157829003601f168201915b5050505050908060050154908060070160009054906101000a900460ff16905087565b611959611d6e565b600073ffffffffffffffffffffffffffffffffffffffff168173ffffffffffffffffffffffffffffffffffffffff16036119cb5760006040517f1e4fbdf70000000000000000000000000000000000000000000000000000000081526004016119c2919061256d565b60405180910390fd5b6119d481611df5565b50565b600080835111611a1c576040517f08c379a0000000000000000000000000000000000000000000000000000000008152600401611a13906130f1565b60405180910390fd5b60076000815480929190611a2f90612c81565b9190505550600060075490506040518060c001604052803373ffffffffffffffffffffffffffffffffffffffff168152602001858152602001848152602001428152602001600067ffffffffffffffff811115611a8f57611a8e6126c8565b5b604051908082528060200260200182016040528015611abd5781602001602082028036833780820191505090505b508152602001600115158152506003600083815260200190815260200160002060008201518160000160006101000a81548173ffffffffffffffffffffffffffffffffffffffff021916908373ffffffffffffffffffffffffffffffffffffffff1602179055506020820151816001019081611b399190612e6b565b506040820151816002019081611b4f9190612e6b565b50606082015181600301556080820151816004019080519060200190611b76929190611f6c565b5060a08201518160050160006101000a81548160ff021916908315150217905550905050600560003373ffffffffffffffffffffffffffffffffffffffff1673ffffffffffffffffffffffffffffffffffffffff168152602001908152602001600020819080600181540180825580915050600190039060005260206000200160009091909190915055600160009054906101000a900473ffffffffffffffffffffffffffffffffffffffff1673ffffffffffffffffffffffffffffffffffffffff1663f0c47cab336009546040518363ffffffff1660e01b8152600401611c5f92919061315d565b600060405180830381600087803b158015611c7957600080fd5b505af1158015611c8d573d6000803e3d6000fd5b50505050600160009054906101000a900473ffffffffffffffffffffffffffffffffffffffff1673ffffffffffffffffffffffffffffffffffffffff16634756f60c6040518163ffffffff1660e01b8152600401600060405180830381600087803b158015611cfb57600080fd5b505af1158015611d0f573d6000803e3d6000fd5b50505050803373ffffffffffffffffffffffffffffffffffffffff167f075158c3374bf14e8d924ed3a94e79c81b46f8f0790ba544cd01a0ba9524318a8686604051611d5c929190613199565b60405180910390a38091505092915050565b611d76611eb9565b73ffffffffffffffffffffffffffffffffffffffff16611d94610cc2565b73ffffffffffffffffffffffffffffffffffffffff1614611df357611db7611eb9565b6040517f118cdaa7000000000000000000000000000000000000000000000000000000008152600401611dea919061256d565b60405180910390fd5b565b60008060009054906101000a900473ffffffffffffffffffffffffffffffffffffffff169050816000806101000a81548173ffffffffffffffffffffffffffffffffffffffff021916908373ffffffffffffffffffffffffffffffffffffffff1602179055508173ffffffffffffffffffffffffffffffffffffffff168173ffffffffffffffffffffffffffffffffffffffff167f8be0079c531659141344cd1fd0a4f28419497f9722a3daafe3b4186f6b6457e060405160405180910390a35050565b600033905090565b6040518060c00160405280600073ffffffffffffffffffffffffffffffffffffffff168152602001606081526020016060815260200160008152602001606081526020016000151581525090565b604051806101000160405280600073ffffffffffffffffffffffffffffffffffffffff1681526020016000815260200160008152602001606081526020016060815260200160008152602001606081526020016000151581525090565b828054828255906000526020600020908101928215611fa8579160200282015b82811115611fa7578251825591602001919060010190611f8c565b5b509050611fb59190611fb9565b5090565b5b80821115611fd2576000816000905550600101611fba565b5090565b6000604051905090565b600080fd5b600080fd5b6000819050919050565b611ffd81611fea565b811461200857600080fd5b50565b60008135905061201a81611ff4565b92915050565b60006020828403121561203657612035611fe0565b5b60006120448482850161200b565b91505092915050565b61205681611fea565b82525050565b6000602082019050612071600083018461204d565b92915050565b6000806040838503121561208e5761208d611fe0565b5b600061209c8582860161200b565b92505060206120ad8582860161200b565b9150509250929050565b600073ffffffffffffffffffffffffffffffffffffffff82169050919050565b60006120e2826120b7565b9050919050565b6120f2816120d7565b81146120fd57600080fd5b50565b60008135905061210f816120e9565b92915050565b60006020828403121561212b5761212a611fe0565b5b600061213984828501612100565b91505092915050565b600081519050919050565b600082825260208201905092915050565b6000819050602082019050919050565b61217781611fea565b82525050565b6000612189838361216e565b60208301905092915050565b6000602082019050919050565b60006121ad82612142565b6121b7818561214d565b93506121c28361215e565b8060005b838110156121f35781516121da888261217d565b97506121e583612195565b9250506001810190506121c6565b5085935050505092915050565b6000602082019050818103600083015261221a81846121a2565b905092915050565b61222b816120d7565b82525050565b600081519050919050565b600082825260208201905092915050565b60005b8381101561226b578082015181840152602081019050612250565b60008484015250505050565b6000601f19601f8301169050919050565b600061229382612231565b61229d818561223c565b93506122ad81856020860161224d565b6122b681612277565b840191505092915050565b600082825260208201905092915050565b60006122dd82612142565b6122e781856122c1565b93506122f28361215e565b8060005b8381101561232357815161230a888261217d565b975061231583612195565b9250506001810190506122f6565b5085935050505092915050565b60008115159050919050565b61234581612330565b82525050565b600060c0830160008301516123636000860182612222565b506020830151848203602086015261237b8282612288565b915050604083015184820360408601526123958282612288565b91505060608301516123aa606086018261216e565b50608083015184820360808601526123c282826122d2565b91505060a08301516123d760a086018261233c565b508091505092915050565b600060208201905081810360008301526123fc818461234b565b905092915050565b6000819050919050565b600061242961242461241f846120b7565b612404565b6120b7565b9050919050565b600061243b8261240e565b9050919050565b600061244d82612430565b9050919050565b61245d81612442565b82525050565b60006020820190506124786000830184612454565b92915050565b6000610100830160008301516124976000860182612222565b5060208301516124aa602086018261216e565b5060408301516124bd604086018261216e565b50606083015184820360608601526124d58282612288565b915050608083015184820360808601526124ef8282612288565b91505060a083015161250460a086018261216e565b5060c083015184820360c086015261251c82826122d2565b91505060e083015161253160e086018261233c565b508091505092915050565b60006020820190508181036000830152612556818461247e565b905092915050565b612567816120d7565b82525050565b6000602082019050612582600083018461255e565b92915050565b600082825260208201905092915050565b60006125a482612231565b6125ae8185612588565b93506125be81856020860161224d565b6125c781612277565b840191505092915050565b6125db81612330565b82525050565b600060a0820190506125f6600083018861255e565b81810360208301526126088187612599565b9050818103604083015261261c8186612599565b905061262b606083018561204d565b61263860808301846125d2565b9695505050505050565b600061264d82612430565b9050919050565b61265d81612642565b82525050565b60006020820190506126786000830184612654565b92915050565b6000806040838503121561269557612694611fe0565b5b60006126a385828601612100565b92505060206126b48582860161200b565b9150509250929050565b600080fd5b600080fd5b7f4e487b7100000000000000000000000000000000000000000000000000000000600052604160045260246000fd5b61270082612277565b810181811067ffffffffffffffff8211171561271f5761271e6126c8565b5b80604052505050565b6000612732611fd6565b905061273e82826126f7565b919050565b600067ffffffffffffffff82111561275e5761275d6126c8565b5b61276782612277565b9050602081019050919050565b82818337600083830152505050565b600061279661279184612743565b612728565b9050828152602081018484840111156127b2576127b16126c3565b5b6127bd848285612774565b509392505050565b600082601f8301126127da576127d96126be565b5b81356127ea848260208601612783565b91505092915050565b6000806000806080858703121561280d5761280c611fe0565b5b600061281b8782880161200b565b945050602061282c8782880161200b565b935050604085013567ffffffffffffffff81111561284d5761284c611fe5565b5b612859878288016127c5565b925050606085013567ffffffffffffffff81111561287a57612879611fe5565b5b612886878288016127c5565b91505092959194509250565b600060e0820190506128a7600083018a61255e565b6128b4602083018961204d565b6128c1604083018861204d565b81810360608301526128d38187612599565b905081810360808301526128e78186612599565b90506128f660a083018561204d565b61290360c08301846125d2565b98975050505050505050565b6000806040838503121561292657612925611fe0565b5b600083013567ffffffffffffffff81111561294457612943611fe5565b5b612950858286016127c5565b925050602083013567ffffffffffffffff81111561297157612970611fe5565b5b61297d858286016127c5565b9150509250929050565b7f4368616c6c656e676520646f6573206e6f742065786973740000000000000000600082015250565b60006129bd601883612588565b91506129c882612987565b602082019050919050565b600060208201905081810360008301526129ec816129b0565b9050919050565b6000604082019050612a08600083018561204d565b612a15602083018461204d565b9392505050565b7f4e487b7100000000000000000000000000000000000000000000000000000000600052602260045260246000fd5b60006002820490506001821680612a6357607f821691505b602082108103612a7657612a75612a1c565b5b50919050565b7f526573706f6e736520646f6573206e6f74206578697374000000000000000000600082015250565b6000612ab2601783612588565b9150612abd82612a7c565b602082019050919050565b60006020820190508181036000830152612ae181612aa5565b9050919050565b7f526573706f6e73652063616e6e6f7420626520656d7074790000000000000000600082015250565b6000612b1e601883612588565b9150612b2982612ae8565b602082019050919050565b60006020820190508181036000830152612b4d81612b11565b9050919050565b7f506172656e7420726573706f6e736520646f6573206e6f742065786973740000600082015250565b6000612b8a601e83612588565b9150612b9582612b54565b602082019050919050565b60006020820190508181036000830152612bb981612b7d565b9050919050565b7f506172656e7420726573706f6e7365206e6f7420696e2074686973206368616c60008201527f6c656e6765000000000000000000000000000000000000000000000000000000602082015250565b6000612c1c602583612588565b9150612c2782612bc0565b604082019050919050565b60006020820190508181036000830152612c4b81612c0f565b9050919050565b7f4e487b7100000000000000000000000000000000000000000000000000000000600052601160045260246000fd5b6000612c8c82611fea565b91507fffffffffffffffffffffffffffffffffffffffffffffffffffffffffffffffff8203612cbe57612cbd612c52565b5b600182019050919050565b60008190508160005260206000209050919050565b60006020601f8301049050919050565b600082821b905092915050565b600060088302612d2b7fffffffffffffffffffffffffffffffffffffffffffffffffffffffffffffffff82612cee565b612d358683612cee565b95508019841693508086168417925050509392505050565b6000612d68612d63612d5e84611fea565b612404565b611fea565b9050919050565b6000819050919050565b612d8283612d4d565b612d96612d8e82612d6f565b848454612cfb565b825550505050565b600090565b612dab612d9e565b612db6818484612d79565b505050565b5b81811015612dda57612dcf600082612da3565b600181019050612dbc565b5050565b601f821115612e1f57612df081612cc9565b612df984612cde565b81016020851015612e08578190505b612e1c612e1485612cde565b830182612dbb565b50505b505050565b600082821c905092915050565b6000612e4260001984600802612e24565b1980831691505092915050565b6000612e5b8383612e31565b9150826002028217905092915050565b612e7482612231565b67ffffffffffffffff811115612e8d57612e8c6126c8565b5b612e978254612a4b565b612ea2828285612dde565b600060209050601f831160018114612ed55760008415612ec3578287015190505b612ecd8582612e4f565b865550612f35565b601f198416612ee386612cc9565b60005b82811015612f0b57848901518255600182019150602085019450602081019050612ee6565b86831015612f285784890151612f24601f891682612e31565b8355505b6001600288020188555050505b505050505050565b7f4368616c6c656e676520726573706f6e73650000000000000000000000000000600082015250565b6000612f73601283612588565b9150612f7e82612f3d565b602082019050919050565b6000606082019050612f9e600083018561255e565b612fab602083018461204d565b8181036040830152612fbc81612f66565b90509392505050565b6000606082019050612fda600083018661204d565b8181036020830152612fec8185612599565b905081810360408301526130008184612599565b9050949350505050565b7f4c696d697420746f6f2068696768000000000000000000000000000000000000600082015250565b6000613040600e83612588565b915061304b8261300a565b602082019050919050565b6000602082019050818103600083015261306f81613033565b9050919050565b7f4e487b7100000000000000000000000000000000000000000000000000000000600052603260045260246000fd5b7f496e76616c69642070726f6d7074000000000000000000000000000000000000600082015250565b60006130db600e83612588565b91506130e6826130a5565b602082019050919050565b6000602082019050818103600083015261310a816130ce565b9050919050565b7f4368616c6c656e676520696e6974696174696f6e000000000000000000000000600082015250565b6000613147601483612588565b915061315282613111565b602082019050919050565b6000606082019050613172600083018561255e565b61317f602083018461204d565b81810360408301526131908161313a565b90509392505050565b600060408201905081810360008301526131b38185612599565b905081810360208301526131c78184612599565b9050939250505056fea264697066735822122093e8bb16211920c70dfa1d951171fcf978da3c2176666dfb2badddc6fb2c6a9064736f6c634300081a0033",
  "linkReferences": {},
  "deployedLinkReferences": {}
}